:100000000C942A000C943C000C943C000C943C0092
:100010000C943C000C943C000C943C000C943C0070
:100020000C943C000C943C000C943C000C943C0060
:100030000C943C000C943C000C943C000C943C0050
:100040000C943C000C943C000C943C000C943C0040
:100050000C943C0011241FBECFE5D4E0DEBFCDBF21
:1000600010E0A0E6B0E001C01D92A536B107E1F7AF
:100070000E943E000C947F000C940000EF92FF92CF
:100080000F931F93CF93DF9384E58DBF84E08EBFE2
:100090008FEF8ABB1BBA80E987BB83E58DB9EEE29F
:1000A000F0E080818E7F8083E8E3F0E00F2EFFE2B6
:1000B000EF2EFF24F02DAEE2B0E00BE310E064EF92
:1000C00071E048EC50E080818F7E8083E7011882E8
:1000D0008C918823ECF7E7018881809364008091FC
:1000E00064008095E80188838081806180839B0122
:1000F000CA010197F1F721503040D1F7E4CFF894CD
:02010000FFCF2F
:00000001FF
