:020000040000FA
:0A000000072800000000000084281B
:04000A00003400348A
:02000E00831657
:100010008312FF308500F0308600FF3087002530E6
:10002000940083165030810000308500F030860047
:10003000D930870007309C0094010F309F00831255
:10004000BF30A100A200A300A400A001A0308B003B
:100050008316141C28288312931F28288316141C27
:100060002E2883121308A900A91B28285F20A500A9
:100070008316141C382883121308A900A91B2828EA
:100080005F20A6008316141C422883121308A900BF
:10009000A91B28285F20A7008316141C4C28831254
:1000A0001308A900A91B28285F208B13A400270888
:1000B000A3002608A2002508A1008B172828A91E46
:1000C0006328FF300800291E6728BF3008007F30F2
:1000D000291FFF30AA0029080F39A90071202A051D
:1000E0000800743029078200C034F934A434B034D5
:1000F000993492348234F834803498348834833498
:10010000C634A13486348E34F0000308F2000A08A5
:10011000F10083120B1DA7280B118601A0080319FB
:10012000A0152408A0199B28230820199B28220821
:10013000A0189B2821088500AB00AB0CAB0CAB0CC6
:10014000AB0C2B0C8700200886000310A00C710854
:0C0150008A0072088300F00E700E090097
:02400E00FA377F
:00000001FF
