:020000040000FA
:040000001DEF04F0FC
:080008002C6E25AE03D02D0E75
:100010003FEC01F0096A0A6A0B6A0C6A258E6A0EC7
:100020002426D8902532263227320C320B320A325F
:100030000932243EF6D72750245C2726245E26501A
:10004000255C2626255E076A3AD82E0E3FEC01F085
:100050002D6AD8900934276E0A34266E0B34256E2B
:100060000C34246E2D36D890273626362536243685
:100070002D36095027260A50D8B00A3C26260B50A8
:10008000D8B00B3C25260C50D8B00C3C2426D8B058
:100090002D3ED89027362636253624362D362D503F
:1000A000300F3FEC01F027C009F026C00AF025C050
:1000B0000BF024C00CF02C2ECBD7D8901200009659
:1000C000075003E100860A0E076E27C014F026C011
:1000D00013F025C012F024C011F0066A1C6A1B6AD6
:1000E0001A6A0A0E196ECBEC01F0062A0650075C5C
:1000F000D8A4F4D71950D8A4009600A602D0072C93
:1001000004D01950300F3FEC01F0072EDED712005B
:10011000A66AA68E026A06C0F6FF07C0F7FF0900AE
:10012000F55005E005D8064A072A023EF4D712002A
:100130001E6ECCEC00F03150E9EC00F019C004F078
:100140001AC005F0060E1E022E0EF324F66E0D0EDA
:10015000D8B0010FF424F76E060E226EA66AA68EA2
:100160000900F55009D8222EF9D704C019F005C0AE
:100170001AF01E501200195081903AD8818033D85D
:100180007D0E316002D0312A01D0316A315021D840
:10019000819031502DD827D000B219D0216E939282
:1001A0009390939493969398956A00828A928A94F6
:1001B0008A90316AB80E1CD816D8400E19D813D8B8
:1001C000C00E16D810D83F0E13D80DD821508190EC
:1001D0001200E8BC04D0819600008188120081865C
:1001E0000000819812008182836E000081921200CB
:1001F00081849568116A818200008192000083AE3B
:1002000002D0113EF8D78194836A956A1200C4DF48
:10021000316E8196819800823F0EE5DFB80E0310A3
:10022000E7DFE1DF3150060DF350D3DFF3507F0BF2
:10023000316E4009DDDFD7D70092CCEC00F081961B
:10024000000081983E0ECFDF226A81902250B809CB
:10025000CFDFC9DF236A819023504009C9DFC3DFA4
:10026000000E8190C5DF8180BEDF232A23ACF3D747
:10027000222A22A6EAD7819000928EDF120001BEC8
:1002800098EF00F001B203D001B06CEF01F00098DC
:10029000008A008C008E00840AD0008800A8009894
:1002A00000BA03D0008A37D82BE2009448D8C5861C
:1002B00046D8C95000B407D000B804D0C588C5B826
:1002C000FED700B81DD8D890156E21D0008A008CBA
:1002D000008E02D0008800A8009800BC05D0FE0B5C
:1002E000086E008CD89013D000BE06D01D6E008E14
:1002F00014D8D8B005D01D5014D802E200A807D0F9
:10030000C584C5B4FED7009C009E009A00941F804F
:10031000D8A01F9012000DD801D005D8085000BAFF
:100320000109C96E0AD094869488C580C5B0FED7ED
:100330001200C582C5B2FED71200C7B4FED7156839
:10034000C5501F0B0000D890D8B41200152EF8D756
:10035000D8801200166A156EFF0E1526162200D0E0
:10036000D8A01200030E126EDF0E02D8F5D7126A63
:10037000E90F116EFC0E05E3000000001126FDE2FE
:10038000000011261206F9E211B000D011A202D02D
:1003900000D00000120014501C18800BF46E14AE34
:1003A00006D0D880000E11561256135614561CAEA5
:1003B00006D0D880000E19561A561B561C56156AC0
:1003C000166A176A186A286A296A2A6A2B6A1C50F0
:1003D0001B101A10191023E0200EF36ED89011365E
:1003E000123613361436283629362A362B3619504B
:1003F000285C1A5029581B502A581C502B5809E3C6
:100400001950285E1A50295A1B502A5A1C502B5A30
:10041000D8801536163617361836F32EDFD7F4AED9
:1004200006D0D880000E155616561756185615C009
:1004300011F016C012F017C013F018C014F028C045
:1004400019F029C01AF02AC01BF02BC01CF01200B2
:100450000E500A18306E30BE30D00EBE17D00D5080
:10046000095CD8A0000CD8A4010C0E500A5CD8A0DE
:10047000000CD8A4010C0F500B5CD8A0000CD8A421
:10048000010C10500C5CD8A0000C010C09500D5C44
:10049000D8A0000CD8A4010C0A500E5CD8A0000C07
:1004A000D8A4010C0B500F5CD8A0000CD8A4010CF0
:1004B0000C50105CD8A0000C010C0AAE010C000C12
:1004C000800E0E1A0D50095C2D6E11E22D6C095034
:1004D0000DC009F00D6E0A500EC00AF00E6E0B50E2
:1004E0000FC00BF00F6E0C5010C00CF0106E1A0EF7
:1004F0002D6078D00D5276E02C6A0A502F6E0E18BF
:10050000326E0A8E0E8E080E2D5E08E310C02CF09F
:100510000FC010F00EC00FF00E6AF5D72D2607E0C1
:10052000D8900E320F3210322C322D2EF9D732AE37
:1005300035D010500C5E0F500B5A0E500A5A07E27D
:10054000D880000E0C560B560A56800E2F1A2C6CB3
:1005500004E00C06000E0B5A0A5A040E2D6E0A66B1
:100560000DD00BC00AF00CC00BF02CC00CF02C6AA4
:10057000080E095E2DE32D2EF2D72AD00ABE08D030
:10058000D8902C360C360B360A36092EF7D720D0E9
:100590002EAC26D02CAE24D02C6A11D010500C26B4
:1005A0000F500B220E500A2206E30A320B320C3295
:1005B0002C32094A0FD02EAC13D02CAE11D00C3EE9
:1005C0000FD00B3E0DD00A3E0BD0D8800C90EDD74B
:1005D000096A02D02E8209680C6A0B6A800E0A6EC4
:1005E0002FAE0A9E0C5012000A502A6E0E18326E60
:1005F0000D5053E0095254E0095E7F0E03E20926D4
:1006000003E24DD009264EE20CC028F00BC029F0C1
:100610002A8E0E8E180E2F6E0C6A0B6A0A6A0BD089
:100620001050285C0F50295811E3296E2A6A105087
:10063000285E0BD004E20E502A5CF2E007E3105073
:10064000285E0F50295A0E502A5AD8800C360B3685
:100650000A36283629362A362F2EECD70ABE07D07E
:1006600009521DE0323209062F2A3236E3D72EAC6A
:100670001FD007E21050285E0F50295A0E502A5AF8
:1006800017E30C3E15D00B3E13D00A3E11D00A32B0
:100690000B320C32093E0CD005D02E8604D02E84AD
:1006A000096A02D02E8209680C6A0B6A800E0A6EF3
:1006B00032AE0A9E0C5012000A502A6E0E18326E8C
:1006C0000950D8A40D503CE009267E0E03E3095ED4
:1006D00003E338D0095E33E30CC028F00BC029F0E7
:1006E0002A8E0E8E0C6A0B6A0A6A180E2F6E2A3238
:1006F0002932283206E310500C260F500B220E50E0
:100700000A220A320B320C322F2EF1D70ABE07D042
:100710000C360B360A36095212E009062A342EAC82
:1007200017D016E30C3E14D00B3E12D00A3E10D068
:10073000D8800A320B320C32093E0AD003D02E8404
:10074000096A02D02E8209680C6A0B6A800E0A6E52
:1007500032AE0A9E0C50120009500CC009F00C6E0B
:100760000B500AC00BF00A6E960E2F6E326A09AE5D
:1007700007D0D880000E0C560B560A560956328EFA
:10078000095218E02EAC0DD00CAE0BD00B3E09D0A8
:100790000A3E07D0093E05D0D88009320A320B3212
:1007A0002F2A080E2F260BC00CF00AC00BF009C030
:1007B0000AF015D00A6613D0080E2F5E0B5005E123
:1007C000080E2F5E0C5011E00C6A0A6E0CC00BF084
:1007D0000C6A05D0D8900C360B360A362F060AAEB6
:1007E000F9D72FC009F032AE0A9E0C5012002050EB
:1007F0005431303020507265636973696F6E200028
:1008000054656D7065726174757265204D657465AF
:10081000720054656D70203A200052746420523A80
:10082000200020302E3030300000204F686D7320C3
:100830000000204F686D73200000F86A400E2E6E95
:10084000006AAB6A280EC66E090EC86E800EC76EAF
:10085000070EC16ED00E336E4B6A4A6A496A810E2A
:10086000486E4F6A4E6A480E4D6E850E4C6E320EC3
:10087000536E110E526E516A770E506E800E576E87
:10088000050E566E9B0E556E6A0E546E640EAAECE3
:1008900001F01CEC01F0036A020E07EC01F0070EF8
:1008A000076EEE0E066E88EC00F0010E036E020E6F
:1008B00007EC01F0080E076E000E066E88EC00F0E3
:1008C0000C0E036E010E07EC01F0080E076E120EFF
:1008D000066E88EC00F01E0E036E010E07EC01F0B0
:1008E000080E076E1A0E066E88EC00F00C0E036EF2
:1008F000480E07EC01F0200E98EC00F0300E98EC5A
:1009000000F02E0E98EC00F0300E98EC00F098EC11
:1009100000F0200E98EC00F00C0E036E500E07EC69
:1009200001F0640E98EC00F0650E98EC00F0670E94
:1009300098EC00F0430E98EC00F01E0E036E480E8B
:1009400007EC01F0080E076E220E066E88EC00F030
:10095000080E076E2A0E066E88EC00F09E0E376EAB
:1009600065EC06F0320EAAEC01F06CEC06F0FAEC45
:1009700004F054EC05F00C0E036E480E07EC01F089
:10098000800E016E47C027F046C026F045C025F016
:1009900044C024F0020E04EC00F0200E98EC00F0AD
:1009A0000C0E036E500E07EC01F0640E98EC00F094
:1009B000650E98EC00F0670E98EC00F0430E98EC92
:1009C00000F01E0E036E480E07EC01F0800E016E63
:1009D00043C027F042C026F041C025F040C024F0BB
:1009E000030E04EC00F0080E076E320E066E88EC63
:1009F00000F0BBD73B6A3A6A396A36C038F0276ADA
:100A0000266A35C025F0246A24503826255039221C
:100A100026503A2227503B22276A34C026F0256A06
:100A2000246A245038262550392226503A2227504D
:100A30003B22800E106E0F687F0E0E6E8F0E0D6EB5
:100A400038C009F039C00AF03AC00BF03BC00CF0D6
:100A500083DEF4EC02F00CC03FF00BC03EF00AC0A5
:100A60003DF009C03CF00B0E3C2402E32E82FF0E49
:100A70003C6E3FC00CF03EC00BF03DC00AF03CC0E5
:100A800009F04BC010F04AC00FF049C00EF048C04A
:100A90000DF0F4EC02F00CC043F00BC042F00AC0C1
:100AA00041F009C040F01200676A800E666E540E75
:100AB000656E880E646E6B6A6A6AC80E696E860E11
:100AC000686E6BC00CF06AC00BF069C00AF068C0B9
:100AD00009F067C010F066C00FF065C00EF064C08A
:100AE0000DF062EC02F00CC027F00BC026F00AC03B
:100AF00025F009C024F027C047F026C046F025C0E5
:100B000045F02450D8B42E84D8A42404446E47C0A1
:100B10000CF046C00BF045C00AF044C009F057C0C5
:100B200010F056C00FF055C00EF054C00DF05CEC44
:100B300003F00CC027F00BC026F00AC025F009C056
:100B400024F027C00CF026C00BF025C00AF024C00A
:100B500009F053C010F052C00FF051C00EF050C059
:100B60000DF062EC02F00CC05BF00BC05AF00AC052
:100B700059F009C058F05BC00CF05AC00BF059C0D6
:100B80000AF058C009F047C010F046C00FF045C049
:100B90000EF044C00DF05CEC03F00CC027F00BC06D
:100BA00026F00AC025F009C024F00C6A0B6A0A6A14
:100BB0007F0E096E27C010F026C00FF025C00EF082
:100BC00024C00DF062EC02F00CC05BF00BC05AF0D8
:100BD0000AC059F009C058F05BC00CF05AC00BF0C5
:100BE00059C00AF058C009F04FC010F04EC00FF0C5
:100BF0004DC00EF04CC00DF05CEC03F00CC05BF08F
:100C00000BC05AF00AC059F009C058F043C00CF0AC
:100C100042C00BF041C00AF040C009F05BC010F0C8
:100C20005AC00FF059C00EF058C00DF060EC02F041
:100C30000CC05FF00BC05EF00AC05DF009C05CF054
:100C40000C6A0B6A0A6A096A5FC010F05EC00FF096
:100C50005DC00EF05CC00DF028EC02F00108D8B4C5
:100C60003CEF06F047C06BF046C06AF045C069F043
:100C700044C068F044EF06F047C067F046C066F035
:100C800045C065F044C064F05FC063F05EC062F0D0
:100C90005DC061F0619E5CC060F06F0E0C6E120E64
:100CA0000B6E030E0A6E750E096E63C010F062C003
:100CB0000FF061C00EF060C00DF028EC02F00108EA
:100CC000D8B464EF06F0FDD6120033506CEC01F09E
:100CD00037506AEC01F0120093EC01F0332866EC17
:100CE00001F047EC01F0346E5EEC01F047EC01F0EE
:100CF000356E5EEC01F047EC01F0366E5EEC01F013
:100D000047EC01F0376E810E375CD8A091EF06F00A
:100D10005EEC01F047EC01F0376E0A0EAAEC01F030
:100D2000F2D7FF0E66EC01F080EC01F0120000003B
:100D300000000000FFFFFFFFFFFF070707000000A4
:100D4000000000070707E0E0E0000000000000E00E
:100D5000E0E0FFFFFF000000000000FFFFFF0707CB
:100D600007070707E0E0E0E0E0E0E0E0E007070772
:100D7000070707E0E0E0FFFFFFE0E0E0E0E0E0FF82
:100D8000FFFF070707FFFFFFFFFFFF07070755AA42
:100D900055AA55AAAA55AA55AA5501010101010152
:100DA000808080808080FF00000000000000000044
:100DB00000FFFF01010101010101010101FFFF80AD
:100DC000808080808080808080FF00000000F0F0C4
:100DD000000000000F0F00000000000000000000F5
:100DE0000000000000000000000000000000000003
:100DF0000000000000004F00000000070007000096
:100E0000147F147F1400242A7F2A120023130864FD
:100E100062003649552250000005030000001C22E4
:100E200041000000000041221C0014083E0814008C
:100E300008083E08080000503000000008080808B4
:100E400008000060600000002010080402003E510D
:100E500049453E0000427F40000042615149460042
:100E60002141454B31001814127F1000274545459C
:100E700039003C4A494930000171090503003649EF
:100E800049493600064949493E000036360000000F
:100E900000563600000008142241000014141414F7
:100EA00014000041221408000201510906003249D1
:100EB00079413E007E1111117E007F49494936007B
:100EC0003E41414122007F4141221C007F49494966
:100ED00041007F09090901003E4149497A007F0824
:100EE00008087F0000417F4100002040413F010091
:100EF0007F08142241007F40404040007F020C02E6
:100F00007F007F0408107F003E4141413E007F0981
:100F1000090906003E4151215E007F09192946005A
:100F200046494949310001017F0101003F404040ED
:100F30003F001F2040201F003F4038403F00631407
:100F40000814630007087008070061514945430011
:100F50007F414100000002040810200000004141D0
:100F60007F000402010204004040404040000001B4
:100F7000020400002054545478007F484444380050
:100F8000384444442000384444487F003854545482
:100F90001800087E090102000C5252523E007F08E0
:100FA0000404780000447D400000002040443D00DF
:100FB0007F102844000000417F4000007C0418049A
:100FC00078007C08040478003844444438007C14D9
:100FD00014140800081414187C007C080404080089
:100FE000485454542000043F444020003C404020DA
:100FF0007C001C2040201C003C4030403C00442829
:10100000102844000C5050503C004464544C4400A0
:1010100008364100000000007F000000000041365B
:0E10200008000008040804000300FED7FFD7F4
:020000040030CA
:03000100230F0EBC
:02000500018573
:060008000FC00FE00F40E5
:00000001FF
