:020000040000fa
:080000000002040000000000f2
:020000040000fa
:100008000806000008060000900200009a0200009e
:1000180008060000080600000806000008060000a0
:100028000806000008060000080600001e1101006e
:100038000806000008060000080600000806000080
:100048000806000008060000080600000806000070
:100058000806000008060000080600000806000060
:100068000806000008060000080600000806000050
:100078000806000008060000080600000806000040
:100088000806000008060000080600000806000030
:1000980008060000080600002402010066020100ac
:1000a8000806000008060000080600000806000010
:1000b8000806000008060000080600000806000000
:1000c80008060000080600000806000008060000f0
:1000d80008060000080600000806000008060000e0
:1000e80008060000080600000806000008060000d0
:1000f80008060000080600000806000008060000c0
:1001080008060000080600000806000008060000af
:10011800080600000806000008060000080600009f
:10012800080600000806000008060000080600008f
:10013800080600000806000008060000080600007f
:10014800080600000806000008060000080600006f
:10015800080600000806000008060000080600005f
:10016800080600000806000008060000080600004f
:10017800080600000806000008060000080600003f
:10018800080600000806000008060000080600002f
:10019800080600000806000008060000080600001f
:1001a800080600000806000008060000080600000f
:1001b80008060000080600000806000008060000ff
:1001c80008060000080600000806000008060000ef
:1001d80008060000080600000806000008060000df
:1001e80008060000080600000806000008060000cf
:0801f8000806000008060000e3
:020000040000fa
:100208000806000008060000900200009a0200009c
:10021800080600000806000008060000080600009e
:100228000806000008060000080600001e1101006c
:10023800080600000806000008060000080600007e
:10024800080600000806000008060000080600006e
:10025800080600000806000008060000080600005e
:10026800080600000806000008060000080600004e
:10027800080600000806000008060000080600003e
:10028800080600000806000008060000080600002e
:1002980008060000080600002402010066020100aa
:1002a800080600000806000008060000080600000e
:1002b80008060000080600000806000008060000fe
:1002c80008060000080600000806000008060000ee
:1002d80008060000080600000806000008060000de
:1002e80008060000080600000806000008060000ce
:1002f80008060000080600000806000008060000be
:1003080008060000080600000806000008060000ad
:10031800080600000806000008060000080600009d
:10032800080600000806000008060000080600008d
:10033800080600000806000008060000080600007d
:10034800080600000806000008060000080600006d
:10035800080600000806000008060000080600005d
:10036800080600000806000008060000080600004d
:10037800080600000806000008060000080600003d
:10038800080600000806000008060000080600002d
:10039800080600000806000008060000080600001d
:1003a800080600000806000008060000080600000d
:1003b80008060000080600000806000008060000fd
:1003c80008060000080600000806000008060000ed
:1003d80008060000080600000806000008060000dd
:1003e80008060000080600000806000008060000cd
:0803f8000806000008060000e1
:020000040000fa
:100400000ffd20000e7f22000e018800000000007a
:100410000c000700802920001100200011000700b7
:10042000000020000000e000020032000000020096
:1004300000000000a4020200000000000040da00fa
:100440000000fe004440a900804721000000e000b9
:100450000300320000002000a00188004440a800f2
:100460000000060091018800800078000000eb0089
:1004700015003700e280400032a0b4009101ba00bc
:10048000e280400032a0b4009102ba00e280400055
:1004900032a0b4000002eb00472bde00f507b200eb
:1004a000602ce10004003a000059eb008301e900f0
:1004b000fdff3e00040037006128e100010032002a
:1004c0000082eb00040007001101ba000200e00006
:1004d000e8ff3a00000006003159ba008301e90044
:1004e0000c0032002159ba008301e90008003200f3
:1004f0000400e00003003a00e280400032a0b400b3
:10050000f5ff370011d9ba008301e900faff3a007c
:100510008100e800e180400032a0b4000000060045
:100520000000fa0000000000000000000080fa0057
:10053000004006000000fa0000000000000000007b
:100540000080fa00004006000400fa0005010700e0
:10055000be04020001000000400620005214020008
:100560000100000020e920001202200041cd2900f6
:10057000940a0200000000004c0502000100000087
:100580001a10020001000000b89e020000000000e6
:1005900020010700a116800000002200808060007a
:1005a0000000eb00808f500041003a009a100200da
:1005b00001000000008fbe00412c20000040eb0035
:1005c00080487800320037009a10020001000000d5
:1005d0003e015000ae81580000092d00310020007e
:1005e000800f5100818f5900290036006000b8004b
:1005f000a4ed02000000000000c0eb00b8ed020016
:100600000000000000c0eb00b8ed02000000000098
:1006100028ee02000000000050cf2900ec09020083
:1006200001000000412c2000f0c0b3008048780099
:10063000000000009a100200010000003e0150007e
:10064000ae8158000200be000001be0020aa2400b6
:1006500041002000800f5100818f5900f5ff3400c8
:10066000412c20000040eb00804878000000000092
:10067000a116800000002200808060000000eb00d6
:10068000808f5000faff32000000fe0006003700a5
:10069000a116800000002200808060000000eb00b6
:1006a000808f5000c8ff320020e8020000000000e8
:1006b000b0f6020000000000a600020001000000e9
:1006c00001003700000000009a1002000100000045
:1006d0000001be00706b8000816b80000001510042
:1006e0008181590010a1270001002000800f5100d6
:1006f000818f5900100036009a100200010000009e
:10070000706b8800816b88002016800000407800a4
:10071000614060000004a200614060000080fb00b6
:100720006100600022168000e1ff2f00810061005f
:10073000008070002016880006f70200000000000c
:1007400078f9020000000000140b02000100000014
:100750005812020001000000f40e02000100000027
:100760005813020001000000880c02000100000084
:10077000be0d02000100000040fc0200000000006d
:10078000710007008069800091698000926b800091
:10079000a36b8000820f5000838f5800c9ff320086
:1007a0008069800091698000906b8800a16b88004f
:1007b000f0d32900ec0902000100000080698000ec
:1007c000916980000600070020d52900ec0902008d
:1007d00001000000ec07020001000000baff370032
:1007e0000c00fa00881f7800400798005107980015
:1007f00000c1b300204798000040eb00004f780094
:100800003c0037009e4078000180fb00e800470074
:1008100000804000104078000080fb00e3004700ab
:10082000f0af02000000000063004700ec09020086
:10083000010000000040eb00104798000f00370057
:100840002e4090000081fb001e4090000080fb00c5
:10085000e30047006140780021e920008100410069
:10086000804878002e4090000040e8002047980023
:100870001e4090000040e800104798001e40900085
:100880000084fb0063004700de0a02000000000055
:10089000800f5400eaff39009e40780030c0b3005a
:1008a00080cf5000180032002e4090008080fb0066
:1008b00020e9200080804000e0c2b300804878003a
:1008c0002e4090000040e800204798000000000003
:1008d000c60a0200010000008040eb00814f50007a
:1008e000fbff3a00e0022000f60a020001000000cf
:1008f0001e4fe8009e40780030c0b30080cf50000b
:10090000c0ff36000100370000000000ae4090003c
:10091000f0c1b30080cf500006003e002e40900092
:100920008080fb0020e92000808040000040eb0038
:10093000804878004c050200010000004f04780058
:100940000080fa00000006000000fa000018800095
:1009500061d62000f0af0200000000000080fa0025
:10096000000006000000fa00c002a900c022a90091
:10097000c042a900c062a900c082a900c0a2a9000b
:10098000c0c2a900c4e2a900412c20000040eb0035
:1009900080487800213a8000f08f2f0000806000ae
:1009a000203a88000000eb00401988002c83a90041
:1009b0002ca3a900404e28000019880040402000c8
:1009c0001019880030002100201988000002200042
:1009d00080198800dea2a900de82a800000028009d
:1009e0008011880000402000901188003003200012
:1009f000c0118800d7c2a800d3c2a900d782a8001e
:100a0000d382a9003aec0200000000000080fa0046
:100a1000000006000800fa00881f78000040eb0084
:100a2000004f7800320320008000eb0000d320004c
:100a3000a20a0200000000005ccda8005ceda80046
:100a40006200200051d52900d0d52000940a020070
:100a50000000000090ea2f0011102000806988003b
:100a6000916988008069800091698000206a88000f
:100a7000316a8800f0ff2f0001002000a069880083
:100a8000b1698800a0698000b1698000406a88006f
:100a9000516a880090ea2f0011102000c069880078
:100aa000d169880090ea2f0011102000e0698800c9
:100ab000f16988006000b800006a8800116a880047
:100ac00002012000b1d52900c0d42000940a020000
:100ad00000000000c0d42000f0b2020000000000be
:100ae0003103200000d3200032b2020000000000d9
:100af000206b88009e4078000040eb0080cf5000c3
:100b00000200320000d32000290007000e80e80018
:100b100063002000000178006000b800b6ec02001d
:100b2000000000003303200002d3200060002000fa
:100b300001002000b6ec0200000000000e80e8007a
:100b40009000780030032000808f50000d003a00a4
:100b50000e80e80090009000206b8000808f500095
:100b600008003a000e80e8002004900031032000c5
:100b700000d3200032b2020000000000800f5400b9
:100b8000080032009e4078000040eb0080cf50000b
:100b900001003200ffff370010c0b300004f7800a3
:100ba000a0ff37004f0478000080fa000000060024
:100bb0000800fa0030079800206b800010079800aa
:100bc0003e0090003103200032b20200000000001d
:100bd0002007980030032000000f78006000b80064
:100be000a4ed0200000000000e007800610020006b
:100bf000faed0200000000003e00900031032000ea
:100c0000faed0200000000000080fa00000006007b
:100c10000040da000000fe00680107000400be008a
:100c2000000006000800fa00889fbe008a9fbe00f0
:100c300084bf9f0095bf9f00a6bf9f00b7bf9f00c6
:100c40003004be002005be000fba97009fba97007f
:100c50002fbb9700bfbb97000404440085844c0061
:100c600006054d0087854d000898be000a90be001d
:100c70000440e10005c8e10006d0e10007d8e1002a
:100c800002003100680040001008e8004f05be0077
:100c90004f04be000080fa0000000600fe874700f7
:100ca000889fbe008a9fbe008c9fbe008e1f78006a
:100cb000d0b79f00e1b79f00f2b79f0083bf9f00ae
:100cc00084b79f0095b79f00a6b79f00b7b79f0056
:100cd0008000eb00f1af9f00e1af9f00d1af9f001c
:100ce000c1af9f00b1af9f00010678000d04200046
:100cf000ccb79f000605be000404be007fae97007f
:100d00006faf97005fa89700e00f56000f003d00ff
:100d1000cf71de000c01460002817100f2af9f002e
:100d20005d0007004f20de008180400081007000e0
:100d3000640007000802be000a03be0060fd2f0029
:100d40000f004000b7ff07001d00370052000700ea
:100d50004f21de00818040008100710059000700b2
:100d60003faa9700cfaa97005fab9700efab970021
:100d70000800520089805a000a015b008b815b00e9
:100d8000b0af9f00c1af9f00d2af9f00e3af9f0005
:100d90004f70de000c0146000200700013002000be
:100da0000820e10009a8e1000ab0e1000bb8e10069
:100db000010039008001eb0003005000f0af9f00fc
:100dc0007fae9700e00f56000f00350010002000a6
:100dd000010020006011b8005fb29700efb29700e9
:100de0007fb397008fbb970004027000858270006c
:100df0000603710087837100d4b79f00e5b79f0099
:100e0000f6b79f0087bf9f00cfb297008502e8002a
:100e1000c5b79f008d8f5200b8ff3a000c017800d3
:100e2000e00f510007003d000fb297009fb29700fe
:100e30002fb39700bfb3970060fd2f000f00400055
:100e400078ff0700ffa09700e08f500008003a00ed
:100e50003fac9700cfac97005fad9700efad970028
:100e6000d8b79f00e9b79f00fab79f008bbf9f00dc
:100e70005fb09700efb097007fb197008fb99700f0
:100e80004f0778004f06be004f05be004f04be005e
:100e9000ef01b100000006004f01de008e004700a8
:100ea00081007100c1af9f00afa897004f09de001d
:100eb0000000400000007100b0af9f001faa970023
:100ec00000000600a1af9f000e0007004f18de00d3
:100ed000040242000002720094af9f000900070064
:100ee00000004000818048000201490083814900e0
:100ef000b0b79f00c1b79f00d2b79f00e3b79f0074
:100f0000000006001fb09700afb097003fb19700f8
:100f1000cfb1970000000600881f7800180020005d
:100f2000881f78005dff07008f87e9004f04780075
:100f300000000600801feb0058ff07008f87e900c4
:100f400000000600889fbe008a9fbe008c1f7800ac
:100f50006044b8006055b8000800e1000988e1006d
:100f60000a90e1000b98e1000d003d0000005400e4
:100f700081805c0002015d0083815d001c00200017
:100f80000820e10009a8e1000ab0e1000bb8e10087
:100f90000b003d00210007000006eb0008003700b1
:100fa0000006eb00e00f5200e08f5a00e00f5b00fc
:100fb000e08f5b0002003d00180007001c002000cd
:100fc000d5ff0700800578000105780082047800cd
:100fd000030478000b0278008a0278000903780085
:100fe00088037800e00f5600060032006000b80069
:100ff0006011b800040250008582580006035900b1
:10100000878359000400be000601be004f06780029
:101010004f05be004f04be0000000600040254004d
:1010200085825c0006035d0087835d00000006008a
:10103000889fbe008a9fbe008c1f78006044b80065
:101040006055b8000800e1000988e1000a90e1005d
:101050000b98e1000b003d000000540081805c0013
:1010600002015d0083815d001c0020000820e1007a
:1010700009a8e1000ab0e1000bb8e1000b003d0057
:10108000060037000006eb00e00f5200e08f5a0028
:10109000e00f5b00e08f5b0004003d0004025400a1
:1010a00085825c0006035d0087835d00a1ff070069
:1010b0008005780001057800820478000304780038
:1010c0000b0278008a027800090378008803780010
:1010d000e00f5600060032006000b8006011b80052
:1010e0000402500085825800060359008783590086
:1010f0000400be000601be004f0678004f05be008a
:101100004f04be0000000600889fbe008a9fbe00fc
:101110008c1f78000006eb00e00f5000e08f5800b5
:10112000e00f5900e08f590007003d006044b8000f
:101130006055b8000000540081805c0002015d0031
:1011400083815d001c002000e00f5200e08f5a00f8
:10115000e00f5b00e08f5b0007003d006044b800db
:101160006055b8000402540085825c0006035d00ef
:1011700087835d000c00a200200007000203be0070
:101180000002be00e00f5600060032006000b8000a
:101190006011b8000402500085825800060359000f
:1011a000878359000400be000601be004f06780088
:1011b0004f05be004f04be00000006006022b800cc
:1011c000060220000000d0008180d2000482d200fc
:1011d0008582d2000000a0000202520083825a00e1
:1011e000030031000202420083824a000000a10095
:1011f0000603e900f3ff3a0000000600889fbe00e6
:101200008a9fbe008c9fbe000404b8000506b8008b
:101210008904460060854e000606b8000a054600af
:10122000e0854e000706b8008b054600040eb800a6
:10123000890446000a854e00e0854d00050eb80081
:101240000a0546008b854e00060eb8008b05460049
:101250000416b8000a0546008b854e000516b80036
:101260008b054600041eb8008b0546000800be0032
:101270000a01be004f06be004f05be004f04be006f
:101280000000060003c2b3000001780002007800ed
:10129000b040780083cf5000fbff3200e9cf500010
:1012a000f9ff3200d3c2b30083cf500003003a00ed
:1012b0000001780013c0b300050037008041eb0047
:1012c000b4c2b30084cf500001003a00000178009e
:1012d0000000eb00020037006a00b9000000420085
:1012e0003202fb000403b100e90f5200faff36009e
:1012f000e0cf5100010032000000ea0000000600cb
:10130000889fbe008a9fbe0001c2b30030447800af
:1013100080047800814f5400fcff3200e94f5400f4
:10132000faff3200d0c2b300804f540003003a00ed
:10133000394478001ac0b300050037000045eb00bf
:10134000b0c2b300804f540001003a003944780025
:101350006022b8000bcdb3000b003700a2002000c4
:10136000030020000400be00d40007000001be00fe
:101370000b4244000482fb000500200004024100ef
:1013800085824900394478000880fb000003b100e1
:10139000e90f5000f1ff3600e04f55000200320027
:1013a00060021200e0821a000400be004f05be0079
:1013b0004f04be0000000600889fbe008a9fbe004a
:1013c0008c9fbe00800678008205780003067800b6
:1013d000010478000b0078008c007800cfc4de0098
:1013e00001003700820678000801be0073ff070085
:1013f0008001780001017800030078008200780005
:101400000d01e800e00f5000e08f5800f5ff3a00b2
:101410000049eb000801be000b0078008c0078004a
:10142000fdfd0700004578000801be000b007800b4
:101430008c00780061ff07000002be000403be00bc
:101440008605780007067800e94f55000100340052
:101450006745450000c3b30080564500e00f5200c9
:10146000e08f5a00ebff3a000d0078004f06be00f7
:101470004f05be004f04be0000000600881f780024
:1014800000047800e00f5100e08f590006003d0095
:1014900008027800d0c2b300005a78006001110041
:1014a000e08119000100370008027800040078008c
:1014b000c1ff0700080078004f0478000000060014
:1014c000e68747008e1f7800d0bf9f0066875700d1
:1014d000012f78000e0037005fba970014407800a3
:1014e000efb99700934078000201e900814f500066
:1014f000040032000080fb008180fb0001005000ee
:10150000060037000402e800d4bf9f00030fe80084
:10151000e00f5100f0ff3a00020078004f0778001a
:101520006f00b10000000600800178000200370063
:10153000b15978000201e900e00f5100fcff3a00c8
:101540000000060080017800020037008159780011
:101550000201e900e00f5100fcff3a000000060024
:10156000000178000200780000017800b2417800a4
:1015700081cf510003003200e0cf5100f9ff3a0063
:101580000000eb0000000600b041780031c15100be
:1015900002003a0082cf5100fbff3a000200fb003c
:1015a00000000600800178003141780082597800ff
:1015b000e04f5100fcff3a00000006008000780078
:1015c0000041eb00b14f1100fdff3a000080ea003e
:1015d000008040000000060080017800060037000f
:1015e0000201e900b14278008559780003027800d1
:1015f000e0cf52000600320003027800e00f5100f5
:10160000f7ff3a0002003700005aeb000201e90040
:10161000e00f5100fcff3a0000000600889fbe006a
:101620000004be000b00370009007800e3ff07004c
:10163000000178000800be000f000700e00f500016
:101640000a0032000800e8009900fb00c4ff070010
:1016500000047800e00f5400040032000040eb006a
:10166000984f1000f0ff3a000004eb0008007800eb
:101670004f04be00000006000b003700b0417800a8
:10168000e0cf5100030032000201e900b1cf510068
:10169000050032008381fb00144278000480fb00c7
:1016a000008051000000060001027800e00f5100a8
:1016b000f2ff3a000200780000000600020ab900ba
:1016c000001bb9000200b800810042008100430005
:0416d0000000060010
:020000040000fa
:1016d400666f00006f740000657200002e690000e0
:1016e4006e6300000068000065610000646500002e
:1016f400722e0000696e00006300000021440000a7
:1017040045460000000d00000a0000007478000047
:1017140074000000687400006d000000687400002c
:101724006d6c000000630000676900000078000031
:101734006d6c00000063000073730000006700001c
:1017440069660000007000006e670000006a000017
:1017540070670000006300006c6100000077000007
:10176400617600000000000000000000000000009e
:10177400888b00008c8b0000908b0000958b000000
:10178400998b00009d8b0000a18b0000a58b0000ad
:10179400a98b0000ad8b0000b18b0000b58b00005d
:1017a40074650000787400002f7000006c61000004
:1017b400696e00000074000065780000742f00005a
:1017c400687400006d6c000000740000657800000f
:1017d400742f0000786d00006c0000007465000038
:1017e400787400002f630000737300000069000028
:1017f4006d610000676500002f67000069660000e6
:10180400006900006d610000676500002f70000032
:101814006e670000006900006d61000067650000ec
:101824002f6a00007065000067000000617000000e
:10183400706c00006963000061740000696f00004f
:101844006e2f00006a610000766100002d760000b2
:101854006d00000061750000646900006f2f0000d6
:10186400782d00007761000076650000000000001c
:10187400d28b0000dd8b0000dd8b0000dd8b0000cf
:10188400e78b0000f08b0000f98b0000038c000054
:101894000d8c0000188c00002c8c0000398c00008a
:1018a40048540000545000002f3100002e31000035
:1018b4002032000030300000204f00004b0d0000ab
:1018c4000a4300006f6e00006e6500006374000040
:1018d400696f00006e3a0000206300006c6f000026
:1018e400736500000d0a0000004800005454000015
:1018f400502f0000312e0000312000003430000051
:1019040030200000426100006420000052650000a5
:101914007175000065730000740d00000a43000037
:101924006f6e00006e65000063740000696f000054
:101934006e3a0000206300006c6f000073650000c5
:101944000d0a00000d0a00003430000030200000b1
:1019540042610000642000005265000071750000bf
:1019640065730000743a000020630000616e00009b
:101974002774000020680000616e0000646c0000a1
:1019840065200000436f00006e740000656e000067
:10199400742d00004c6500006e6700007468000040
:1019a4000d0a00000048000054540000502f0000ad
:1019b400312e0000312000003430000031200000be
:1019c400556e000061750000746800006f720000bd
:1019d400697a0000656400000d0a00005757000092
:1019e400572d00004175000074680000656e00000a
:1019f4007469000063610000746500003a2000000f
:101a040042610000736900006320000072650000f9
:101a1400616c00006d3d000022500000726f0000f8
:101a2400746500006374000065640000220d00000a
:101a34000a4300006f6e00006e65000063740000ce
:101a4400696f00006e3a0000206300006c6f0000b4
:101a5400736500000d0a00000d0a00003430000018
:101a640031200000556e00006175000074680000ac
:101a74006f720000697a0000656400003a2000007b
:101a84005061000073730000776f000072640000ff
:101a94002072000065710000756900007265000025
:101aa400640d00000a000000485400005450000077
:101ab4002f3100002e3100002034000030340000ab
:101ac400204e00006f740000206600006f75000057
:101ad4006e6400000d0a0000436f00006e6e00008b
:101ae40065630000746900006f6e00003a20000016
:101af400636c00006f730000650d00000a43000072
:101b04006f6e0000746500006e7400002d540000b8
:101b140079700000653a00002074000065780000c8
:101b2400742f0000687400006d6c00000d0a000042
:101b34000d0a000034300000343a00002046000052
:101b4400696c0000652000006e6f000074200000c6
:101b5400666f0000756e0000643c00006272000055
:101b64003e55000073650000203c00006120000029
:101b740068720000656600003d2200002f6d0000c1
:101b84007066000073750000706c00006f610000e7
:101b9400642200003e4d0000504600005320000027
:101ba400557000006c6f0000616400003c2f000061
:101bb400613e0000207400006f200000707200007d
:101bc4006f670000726100006d20000077650000ff
:101bd400622000007061000067650000730d000062
:101be4000a00000048540000545000002f31000047
:101bf4002e31000020340000313400002052000057
:101c04006571000075650000737400002d550000b7
:101c140052490000205400006f6f0000204c000067
:101c24006f6e0000670d00000a4300006f6e000035
:101c34006e65000063740000696f00006e3a000076
:101c4400206300006c6f0000736500000d0a000043
:101c54000d0a0000343100003420000052650000f9
:101c64007175000065730000742d0000555200006a
:101c740049200000546f00006f2000004c6f0000ea
:101c84006e6700003a20000042750000666600009e
:101c940065720000206f0000766500007266000027
:101ca4006c6f00007720000064650000746500001c
:101cb40063740000656400000d0a00000048000021
:101cc40054540000502f0000312e00003120000039
:101cd4003530000030200000496e000074650000bb
:101ce400726e0000616c00002053000065720000f9
:101cf400766500007220000045720000726f0000db
:101d0400720d00000a4300006f6e00006e65000053
:101d140063740000696f00006e3a000020630000e5
:101d24006c6f0000736500000d0a00000d0a0000ce
:101d34003530000030200000496e0000746500005a
:101d4400726e0000616c0000205300006572000098
:101d5400766500007220000045720000726f00007a
:101d6400723a0000204500007870000065630000ae
:101d74007465000064200000646100007461000068
:101d8400206e00006f740000207000007265000077
:101d9400736500006e7400000d0a00000048000026
:101da40054540000502f0000312e00003120000058
:101db40035300000312000004e6f00007420000018
:101dc400496d0000706c0000656d0000656e0000d8
:101dd40074650000640d00000a4300006f6e00008b
:101de4006e65000063740000696f00006e3a0000c5
:101df400206300006c6f0000736500000d0a000092
:101e04000d0a000035300000312000004e6f000044
:101e140074200000496d0000706c0000656d0000c6
:101e2400656e000074650000643a0000204f0000f5
:101e34006e6c00007920000047450000542000002b
:101e4400616e000064200000504f000053540000f5
:101e54002073000075700000706f00007274000041
:101e6400656400000d0a000000480000545400009e
:101e7400502f0000312e00003120000032300000cd
:101e8400302000004f4b00000d0a0000436f00009b
:101e94006e6e000065630000746900006f6e0000e0
:101ea4003a200000636c00006f730000650d0000b1
:101eb4000a4300006f6e0000746500006e74000039
:101ec4002d54000079700000653a00002074000071
:101ed40065780000742f0000687400006d6c0000c9
:101ee4000d0a00000d0a00003c680000746d00003b
:101ef4006c3e00003c6200006f640000792000002a
:101f040073740000796c0000653d0000226d0000d0
:101f140061720000676900006e3a00003130000011
:101f240030700000782200003e3c0000666f000024
:101f3400726d0000206d000065740000686f000081
:101f4400643d0000706f00007374000020610000a5
:101f540063740000696f00006e3d0000222f0000d2
:101f64006d70000066730000757000006c6f0000f7
:101f74006164000022200000656e000063740000ac
:101f840079700000653d0000226d0000756c000052
:101f94007469000070610000727400002f66000014
:101fa4006f7200006d2d0000646100007461000018
:101fb400223e00003c6200003e4d000050460000fe
:101fc40053200000496d0000616700006520000097
:101fd400557000006c6f0000616400003c2f00002d
:101fe400623e00003c7000003e3c0000696e000050
:101ff40070750000742000007479000070650000a2
:102004003d660000696c0000652000006e61000000
:102014006d6500003d69000020730000697a0000ce
:10202400653d0000343000003e200000266e0000b4
:1020340062730000703b0000203c0000696e0000e9
:102044007075000074200000747900007065000051
:102054003d730000756200006d690000742000008b
:10206400766100006c750000653d0000225500009b
:10207400706c00006f610000642200003e3c0000b0
:102084002f6600006f7200006d3e00003c2f0000c0
:10209400626f0000647900003e3c00002f6800007d
:1020a400746d00006c3e00000048000054540000b1
:1020b400502f0000312e000031200000323000008b
:1020c400302000004f4b00000d0a0000436f000059
:1020d4006e6e000065630000746900006f6e00009e
:1020e4003a200000636c00006f730000650d00006f
:1020f4000a4300006f6e0000746500006e740000f7
:102104002d54000079700000653a0000207400002e
:1021140065780000742f0000687400006d6c000086
:102124000d0a00000d0a00003c680000746d0000f8
:102134006c3e00003c6200006f64000079200000e7
:1021440073740000796c0000653d0000226d00008e
:1021540061720000676900006e3a000031300000cf
:1021640030700000782200003e3c0000623e000017
:102174004d500000465300002055000070640000dc
:102184006174000065200000537500006363000063
:102194006573000073660000756c00003c2f00003e
:1021a400623e00003c7000003e3c000061200000e4
:1021b40068720000656600003d2200002f220000c6
:1021c4003e53000069740000652000006d6100004a
:1021d400696e00002070000061670000653c00002b
:1021e4002f6100003e3c00002f6200006f6400007d
:1021f400793e00003c2f0000687400006d6c000004
:102204003e00000048540000545000002f310000ec
:102214002e3100002035000030300000204900003d
:102224006e740000657200006e6100006c20000096
:1022340053650000727600006572000020450000be
:10224400727200006f7200000d0a0000436f0000fc
:102254006e6e000065630000746900006f6e00001c
:102264003a200000636c00006f730000650d0000ed
:102274000a4300006f6e0000746500006e74000075
:102284002d54000079700000653a000020740000ad
:1022940065780000742f0000687400006d6c000005
:1022a4000d0a00000d0a00003c680000746d000077
:1022b4006c3e00003c6200006f6400007920000066
:1022c40073740000796c0000653d0000226d00000d
:1022d40061720000676900006e3a0000313000004e
:1022e40030700000782200003e3c0000623e000096
:1022f4004d50000046530000204900006d6100006d
:1023040067650000204300006f72000072750000d2
:1023140070740000206f00007220000057720000eb
:102324006f6e0000672000005665000072730000a5
:10233400696f00006e3c00002f6200003e3c00000c
:10234400703e00003c6100002068000072650000df
:10235400663d0000222f00006d70000066730000cf
:10236400757000006c6f000061640000223e000084
:102374005472000079200000616700006169000068
:102384006e3f00003c2f0000613e00003c2f000027
:10239400626f0000647900003e3c00002f6800007a
:1023a400746d00006c3e00000048000054540000ae
:1023b400502f0000312e0000312000003330000087
:1023c40032200000466f0000756e0000640d0000ae
:1023d4000a4300006f6e00006e6500006374000025
:1023e400696f00006e3a0000206300006c6f00000b
:1023f400736500000d0a00004c6f0000636100006b
:10240400746900006f6e00003a200000004800006c
:1024140054540000502f0000312e000031200000e1
:102424003430000033200000466f00007262000068
:1024340069640000646500006e0d00000a4300003a
:102444006f6e00006e65000063740000696f000029
:102454006e3a0000206300006c6f0000736500009a
:102464000d0a00000d0a0000343000003320000083
:10247400466f000072620000696400006465000039
:102484006e3a000020530000534c0000205200001c
:102494006571000075690000726500006420000029
:1024a4002d200000757300006520000048540000d2
:1024b40054500000530d00000a000000528c00002c
:1024c400528c0000778c0000d58c0000568d0000e3
:1024d400f48d0000618e0000d18e0000378f000063
:1024e400398c00005790000004910000d79100003f
:1024f40009920000436f00006f6b000069650000e3
:102504003a00000041750000746800006f7200001a
:10251400697a000061740000696f00006e3a00007f
:10252400004300006f6e0000746500006e740000cc
:102534002d4c0000656e000067740000683a0000ce
:10254400000000007c92000084920000939200003e
:102554004745000054000000504f00005354000051
:10256400006d00007066000073750000706c000060
:102574006f61000064000000696e00006465000083
:10258400782e0000687400006d0000000d0a000041
:102594000d0a0000333000003420000052650000b2
:1025a4006469000072650000637400003a20000052
:1025b400004300006f6e0000746500006e7400003c
:1025c4002d54000079700000653a000020000000de
:1025d400436f00006e740000656e0000742d0000ef
:1025e400456e0000636f0000646900006e670000c0
:1025f4003a200000677a0000697000000d0a0000ac
:102604000043000061630000686500002d43000082
:102614006f6e0000747200006f6c00003a200000be
:10262400006e00006f2d000063610000636800000d
:10263400650000006d610000782d000061670000f6
:10264400653d0000003600003030000000530000fb
:10265400657400002d4300006f6f00006b6900007b
:10266400653a0000200000000d0a00000d0a000079
:10267400000d00000a0d00000a4d00005046000045
:102684005302000001000000707200006f7400002b
:102694006563000074000000736e00006d7000003c
:1026a40000610000646d0000696e0000006d0000b0
:1026b40069630000726f00006368000069700000c5
:1026c400006600006f7200006d7300002e68000049
:1026d400746d0000006c00006564000034000000ac
:1026e4006c65000064330000006c00006564000049
:1026f400320000006c6500006431000000630000db
:102704006f6f00006b690000657300002e680000a5
:10271400746d0000006c000065640000732e0000fe
:1027240063670000690000006c650000640000003d
:10273400757000006c6f0000616400002e6800007a
:10274400746d000000700000726f0000746500007a
:10275400637400002f6300006f6e00006669000060
:10276400672e0000687400006d000000656d0000b5
:10277400616900006c2f0000696e00006465000050
:10278400782e0000687400006d0000006c63000087
:10279400640000002f6600006f7200006d7300007b
:1027a4002e680000746d00000069000070000000d5
:1027b4006777000000730000756200000064000089
:1027c4006e73000031000000646e0000733200007c
:1027d400006d000061630000006800006f7300007a
:1027e400740000006468000063700000002f0000a3
:1027f400707200006f74000065630000742f0000a5
:1028040072650000626f00006f7400002e680000a3
:10281400746d00003f0000002f700000726f000014
:1028240074650000637400002f6300006f6e000085
:1028340066690000672e0000687400006d000000e7
:102844000d0a0000000d00000a0d00000a0000003f
:102854004d690000637200006f6300006869000046
:102864007020000054430000502f00004950000025
:102874002053000074610000636b000020530000cb
:10288400746100007475000073200000557000002e
:10289400646100007465000000220000534d0000d4
:1028a4005450000020530000657200007669000057
:1028b40063650000222000003c6d00006368000096
:1028c400706200006f6100007264000040700000dc
:1028d400696300007361000072650000676f0000a7
:1028e4006f6400002e6300006f6d00003e00000066
:1028f4004d4900004d4500002d7600006572000032
:10290400736900006f6e00003a200000312e000051
:10291400300d00000a4300006f6e00007465000073
:102924006e7400002d74000079700000653a000098
:10293400206d0000756c0000746900007061000077
:10294400727400002f6d0000697800006564000057
:102954003b200000626f0000756e0000646100009f
:10296400727900003d220000667200006f6e000064
:102974007469000065720000220d00000a00000066
:10298400736500007276000065720000007000003c
:102994006f7200007400000075730000657200001f
:1029a400007000006173000073000000746f000089
:1029b400006d0000736700000054000068690000a7
:1029c400732000006973000020610000206d000086
:1029d400756c0000746900002d70000061720000c5
:1029e400742000006d6500007373000061670000cf
:1029f40065200000696e0000204d0000494d000074
:102a040045200000666f0000726d000061740000d4
:102a14002e0d00000a0000002d2d0000667200003b
:102a24006f6e000074690000657200000d0a0000fa
:102a3400436f00006e740000656e0000742d00008a
:102a440074790000706500003a200000746500008d
:102a5400787400002f7000006c610000696e000043
:102a64000d0a00000d0a0000000d00000a2d0000f0
:102a74002d660000726f00006e740000696500002e
:102a8400720d00000a4300006f6e000074650000c0
:102a94006e7400002d74000079700000653a000027
:102aa4002074000065780000742f00006373000038
:102ab400760d00000a4300006f6e0000746500008c
:102ac4006e7400002d44000069730000706f0000f4
:102ad40073690000746900006f6e00003a20000002
:102ae4006174000074610000636800006d6500009b
:102af4006e7400003b200000666900006c650000f5
:102b04006e6100006d6500003d22000073740000da
:102b140061740000757300002e630000737600007a
:102b2400220d00000a0d00000a00000053590000a5
:102b340053540000454d0000205300005441000050
:102b440054550000530d00000a00000042750000b7
:102b5400747400006f6e0000733a00002c000000d3
:102b64004c450000447300003a2c00000050000063
:102b74006f7400003a2c0000002d00002d66000048
:102b8400726f00006e74000069650000722d000011
:102b94002d0d00000a0000002f6500006d6100008b
:102ba400696c00002f6900006e6400006578000005
:102bb4002e680000746d0000005300006570000072
:102bc400203100003020000032300000313200009b
:102bd40020300000303a0000303800003a30000065
:102be40030000000763500002e3400003200000072
:102bf40075700000006400006e0000005345000082
:102c04004c4500004354000045440000003c0000d3
:102c140062720000202f00003e000000266e0000bb
:102c240062730000703b0000006e0000616d0000e4
:102c340065000000486500006c6c00006f2c00000b
:102c4400200000006e6f0000742000007365000017
:102c5400740000003c6200003e550000706c0000ef
:102c64006f610000642000006120000046690000dc
:102c74006c6500003c2f0000623e0000003c000038
:102c8400623e0000557000006c6f0000616400003b
:102c94006564000020460000696c000065270000a0
:102ca400732000004d4400003520000077610000cf
:102cb400733a00003c2f0000623e00003c620000ba
:102cc400722000002f3e00000063000068650000d1
:102cd400636b000065640000006600006169000029
:102ce4006c00000054680000652000004479000076
:102cf4006e6100006d69000063200000444e000016
:102d040053200000436c0000696500006e740000ed
:102d140020690000732000006e6f00007420000022
:102d2400656e0000616200006c650000642e0000a6
:102d3400006e00006f6e000065000000626c000011
:102d44006f6300006b0000000d0a00000d0a000014
:102d54000d4d000069630000726f0000636800009d
:102d64006970000020540000435000002f49000007
:102d740050200000436f00006e6600006967000089
:102d840020410000707000006c6900006361000065
:102d9400746900006f6e0000202800007635000082
:102da4002e340000322c0000205300006570000017
:102db40020310000302000003230000031320000a9
:102dc400290d00000a0d00000a000000093100006e
:102dd4003a20000043680000616e0000676500004f
:102de4002073000065720000696100006c2000001f
:102df4006e7500006d620000657200003a09000003
:102e0400090000000d0a0000093200003a20000009
:102e140043680000616e00006765000020680000e0
:102e24006f730000742000006e6100006d65000087
:102e34003a09000009090000000d00000a09000019
:102e4400333a000020430000686100006e67000010
:102e54006520000073740000617400006963000061
:102e640020490000502000006164000064720000ea
:102e740065730000733a000009090000000d0000aa
:102e84000a090000343a0000204300006861000091
:102e94006e67000065200000737400006174000018
:102ea400696300002067000061740000657700001a
:102eb4006179000020610000646400007265000014
:102ec400737300003a090000000d00000a090000b5
:102ed400353a000020430000686100006e6700007e
:102ee40065200000737400006174000069630000d1
:102ef40020730000756200006e65000074200000fd
:102f04006d610000736b00003a09000009000000c5
:102f14000d0a0000093600003a2000004368000052
:102f2400616e00006765000020730000746100009a
:102f3400746900006320000070720000696d000075
:102f44006172000079200000444e0000532000000c
:102f54007365000072760000657200003a09000093
:102f6400000d00000a090000373a00002043000069
:102f7400686100006e670000652000007374000043
:102f84006174000069630000207300006563000041
:102f94006f6e00006461000072790000204400003c
:102fa4004e53000020730000657200007665000037
:102fb400723a0000090000000d0a00000938000000
:102fc4003a2000000044000069730000004500003e
:102fd4006e000000616200006c6500002044000087
:102fe4004843000050200000262000004950000003
:102ff400204700006c650000616e0000696e0000ef
:10300400673a0000090900004448000043500000ea
:1030140020690000732000006375000072720000d4
:10302400656e0000746c00007920000000650000eb
:103034006e610000626c00006564000000640000c2
:1030440069730000616200006c65000064000000a8
:103054000d0a0000093900003a200000446f000006
:10306400776e00006c6f000061640000204d00006a
:103074005046000053200000696d000061670000a5
:10308400652e0000000d00000a090000303a00001f
:103094002053000061760000652000002620000017
:1030a40051750000697400002e0000000d0a000034
:1030b400456e00007465000072200000612000006d
:1030c4006d6500006e75000020630000686f0000ed
:1030d40069630000653a0000200000000d0a00004a
:1030e400004e000065770000207300006574000046
:1030f400746900006e6700003a2000000049000077
:103104006e760000616c00006964000020690000b4
:103114006e700000757400002e0d00000a0000009f
:103124005365000074740000696e0000677300004a
:103134002073000061760000656400002e0d00001d
:103144000a0000001b5b0000324a00001b5b000009
:10315400333100006d1b00005b3100006d4d000039
:1031640069630000726f000063680000697000000a
:1031740020540000656c00006e650000742000009f
:103184005365000072760000657200002031000073
:103194002e3100001b5b0000306d00000d0a0000a2
:1031a400286600006f720000207400006869000047
:1031b40073200000646500006d6f00002c20000087
:1031c400747900007065000020270000616400002d
:1031d4006d6900006e270000206600006f72000019
:1031e4002074000068650000206c00006f67000018
:1031f400696e0000206100006e640000202700005a
:103204006d690000637200006f630000686900006c
:1032140070270000206600006f7200002074000018
:10322400686500002070000061730000737700007f
:103234006f720000642e0000290d00000a4c00008b
:103244006f670000696e00003a2000000050000023
:1032540061730000737700006f720000643a00002d
:1032640020ff0000fd2d0000000d00000a410000b9
:103274006363000065730000732000006465000050
:103284006e690000656400000d0a00000d0a00006c
:10329400000d00000a4c00006f6700006765000025
:1032a40064200000696e0000207300007563000054
:1032b4006365000073730000667500006c6c0000a9
:1032c400790d00000a0d00000a0d00000a500000ec
:1032d400726500007373000020270000712700004e
:1032e400207400006f2000007175000069740000f4
:1032f4000d0a0000000d00000a5300004e540000a7
:1033040050200000546900006d6500003a20000060
:103314002020000020280000646900007361000080
:10332400626c000065640000290d00000a41000081
:103334006e6100006c6f0000673a000020200000fe
:103344002020000020200000202000002020000079
:10335400202000002031000030320000330d000036
:103364000a42000075740000746f00006e73000060
:103374003a2000002020000020200000202000002f
:103384002020000033200000322000003120000003
:10339400300d00000a4c000045440000733a000060
:1033a40020200000202000003720000036200000ec
:1033b40035200000342000003320000032200000bb
:1033c40031200000300000002020000020200000f8
:1033d400202000002020000020200000000d00001c
:1033e4000a0d00000a4700006f6f000064620000cd
:1033f40079650000210d00000a0000000d0a00009c
:10340400546f00006f2000006d75000063680000b9
:103414002064000061740000612e00000d0a0000a9
:1034240000610000646d0000696e0000005400003b
:103434006f6f0000206d00007563000068200000bd
:1034440064610000746100002e0d00000a00000099
:103454006d690000637200006f630000686900001a
:10346400700000001b5b0000316d0000001b0000b9
:103474005b310000303b0000313500006600000085
:103484001b5b0000313100003b320000316600005c
:10349400001b00005b310000323b000031380000ab
:1034a400660000001b5b0000313300003b3100006c
:1034b40030660000001b00005b310000343b00005c
:1034c4003166000000000000070c00001116000027
:1034d400070c000011160000070c00001116000074
:1034e400070c000011160000050900000e1400006e
:1034f400050900000e140000050900000e14000068
:10350400050900000e140000040b00001017000051
:10351400040b000010170000040b0000101700003b
:10352400040b000010170000060a00000f1500002d
:10353400060a00000f150000060a00000f1500001f
:10354400060a00000f15000078a400006ad70000e6
:1035540056b70000c7e80000db700000202400001c
:10356400eece0000bdc10000af0f00007cf50000ee
:103574002ac60000874700001346000030a8000058
:103584000195000046fd0000d89800008069000005
:10359400aff70000448b0000b15b0000ffff0000a8
:1035a400bed700005c89000022110000906b00006f
:1035b4009371000098fd00008e43000079a600007e
:1035c40021080000b4490000622500001ef6000036
:1035d40040b3000040c00000515a00005e260000c5
:1035e400aac70000b6e900005d1000002fd6000055
:1035f400531400004402000081e60000a1d800003a
:10360400c8fb0000d3e70000e6cd0000e121000084
:10361400d607000037c30000870d0000d5f4000072
:10362400ed1400005a45000005e90000e3a900007c
:10363400f8a30000effc0000d90200006f6700004f
:103644008a4c00002a8d000042390000faff000075
:1036540081f6000071870000226100009d6d00006a
:103664000c380000e5fd000044ea0000bea40000a0
:10367400a9cf0000de4b0000604b0000bbf6000049
:1036840070bc0000bfbe0000c67e00009b28000086
:10369400fa270000a1ea000085300000efd4000002
:1036a400051d00008804000039d00000d4d90000b2
:1036b400e5990000dbe60000f87c0000a21f000092
:1036c40065560000acc400004422000029f4000048
:1036d40097ff00002a430000a723000094ab0000da
:1036e40039a0000093fc0000c35900005b65000092
:1036f40092cc00000c8f00007df40000efff00006e
:10370400d15d0000848500004f7e0000a86f00009a
:10371400e0e600002cfe00001443000001a30000ba
:10372400a1110000084e0000827e000053f7000043
:1037340035f200003abd0000bbd20000d72a0000d9
:1037440091d3000086eb000077770000772e00000d
:10375400676f00006f6700006c6500002e63000057
:103764006f6d0000004300006f7500006c64000082
:10377400206e00006f74000020720000657300006a
:103784006f6c000076650000205300006572000035
:1037940076650000724e0000616d0000655b0000fc
:1037a4005d200000746f00002049000050200000dc
:1037b400616400006472000065730000732e0000f1
:1037c4000d0a0000000d00000a0d00000a4300006d
:1037d4006f6e00006e65000063740000696e000087
:1037e4006720000075730000696e00006720000008
:1037f40042650000726b0000656c00006579000092
:10380400205300006f6300006b65000074730000b8
:1038140020540000435000002041000050490000a3
:103824002e2e00002e0d00000a00000020200000b3
:10383400204e00006f740000653a00002074000000
:103844006869000073200000646500006d6f00006b
:1038540020770000696c00006c200000646f000099
:10386400206e00006f740000686900006e6700003d
:103874002069000066200000616e000020750000d1
:103884006e640000657200006c790000696e0000cf
:103894006720000054430000505f000050550000b2
:1038a400525000004f530000455f000042450000a5
:1038b400524b0000454c0000455900005f43000096
:1038c4004c490000454e000054200000747900006b
:1038d40070650000200d00000a2000002020000078
:1038e400736f0000636b00006574000020690000c2
:1038f40073200000756e00006176000061690000ad
:103904006c610000626c0000652c00002061000006
:103914007320000064650000636c000061720000a5
:1039240065640000206200007920000074680000d3
:103934006520000054430000505300006f630000f2
:103944006b650000744900006e6900007469000032
:10395400616c0000697a0000657200005b5d000024
:10396400206100007272000061790000206900008b
:103974006e2000000d0a00002020000020540000ea
:103984004350000049500000436f00006e66000081
:10399400696700002e6800002e0d00000a0d00006b
:1039a4000a000000544300005053000074610000fa
:1039b400636b000020760000352e000034320000d6
:1039c40020200000202000002020000020200000f3
:1039d40020200000202000002020000020200000e3
:1039e40020200000000d00000a0d00000a42000023
:1039f40055540000544f00004e3000002068000071
:103a0400656c000064200000666f000072200000f6
:103a14006d6f000072650000207400006861000092
:103a24006e2000003420000073650000636f000006
:103a34006e640000732e0000202000004465000026
:103a440066610000756c000074200000736500005e
:103a540074740000696e0000677300002072000037
:103a640065730000746f000072650000642e00002e
:103a74000d0a00000d0a0000000d00000a4e0000af
:103a840065770000204900005020000041640000d8
:103a94006472000065730000733a000020000000a7
:103aa4000d0a00000000000004a300000000000054
:103ab400004d000043480000504200004f41000008
:103ac40052440000000000002f73000065610000f4
:103ad40072630000683f0000617300005f710000c2
:103ae4003d4d000069630000726f000063680000d0
:103af4006970000026610000735f000073690000b4
:103b04007465000073650000617200006368000062
:103b14003d6d000069630000726f0000636800007f
:103b2400697000002e6300006f6d0000000d00003e
:103b34000a0d00000a4300006f6e00006e6500006d
:103b440063740000696e0000672000007573000054
:103b5400696e0000672000004d6900006372000078
:103b64006f63000068690000702000005443000087
:103b74005020000041500000492e00002e2e00006d
:103b84000d0a00000047000045540000200000001a
:103b94002048000054540000502f0000312e000033
:103ba400300d00000a4800006f730000743a0000f2
:103bb400200000000d0a0000436f00006e6e00003c
:103bc40065630000746900006f6e00003a20000015
:103bd400636c00006f730000650d00000a0d0000a7
:103be4000a000000484500004c4f0000204d000032
:103bf40043480000504200004f410000524400007e
:103c04000d0a000000450000484c00004f20000051
:103c14004d43000048500000424f00004152000054
:103c2400440d00000a000000415500005448000003
:103c3400204c00004f470000494e00000d0a0000d0
:103c4400000d00000a0000004d410000494c000036
:103c540020460000524f00004d3a00003c00000096
:103c64003e0d00000a0000005243000050540000c2
:103c7400205400004f3a00003c0000004441000082
:103c8400544100000d0a000000460000726f00005d
:103c94006d3a0000200000000d0a0000546f00007f
:103ca4003a200000000d00000a430000433a0000df
:103cb400200000000d0a000053750000626a000035
:103cc40065630000743a0000200000000d0a000043
:103cd4002e0d00000a0000000d0a00002e00000056
:103ce40051550000495400000d0a00000000000076
:103cf4003a20000057650000206100007265000052
:103d04002063000075720000726500006e7400008c
:103d14006c790000206100006368000069650000a0
:103d2400766900006e67000020000000202000007b
:103d3400202000002020000020000000303000007f
:103d44002062000079740000657300002f73000086
:103d5400656300006f6e000064200000545800008a
:103d640020740000687200006f750000676800002e
:103d740070750000742e00000d0a00000020000081
:103d84006279000074650000732f00007365000001
:103d9400636f00006e6400000d0a00000000000064
:103da4006d610000696c000000220000534d0000aa
:103db4005450000020530000657200007669000032
:103dc40063650000222000003c6d00006368000071
:103dd400706200006f6100007264000040700000b7
:103de400696300007361000072650000676f000082
:103df4006f6400002e6300006f6d00003e00000041
:103e0400486500006c6c00006f200000776f0000b4
:103e1400726c00006421000020200000534d00005b
:103e2400545000002054000065730000742e0000fc
:103e34000000000077770000312e00006d6900005b
:103e4400637200006f63000068690000702e000058
:103e5400636f00006d000000506900006e67000091
:103e640020740000696d000065640000206f00008c
:103e74007574000000430000616e000027740000a8
:103e840020720000657300006f6c0000766500000e
:103e9400204900005000000052650000706c0000d2
:103ea400793a0000200000006d730000000000005b
:103eb400000000007d00000064000000010000001c
:103ec400140000001400000002000000c8000000fc
:103ed4009600000005000000c8000000010000007a
:103ee40007000000000100000001000008000000bd
:103ef400c8000000c800000008000000c80000005e
:103f0400c800000009000000c8000000c80000004c
:103f14000a00000019000000140000000d0a00004f
:103f240044480000435000002f5000006f77000009
:103f34006572000020650000766500006e74000064
:103f4400206f00006363000075720000726500005a
:103f540064000000426f00006f7400006c6f00008a
:103f64006164000065720000205200006573000067
:103f74006574000000000000706f00006f6c0000aa
:103f84002e6e0000747000002e6f00007267000037
:103f940000000000706f00006f6c00002e6e0000c7
:103fa400747000002e6f00007267000000000000b3
:103fb4004d500000465300000201000000000000c4
:020000040000fa
:103fc4000200fa00004f780061fc20009140780064
:103fd4001e40780080cf50002100320061fc200098
:103fe40091407800e0cfb30080cf50000a00320047
:103ff400c6cfbf000080fb007e00b90080007800bf
:104004000080200000804000e20120002197200071
:10401400940a0200000000001e407800c6efb700ba
:104024009e407800e0cfb30080cf50000e003200f5
:104034009e4078000180fb007e00b900800078007b
:104044000080200000804000e20120008000780011
:1040540020972000940a02000000000003003700ab
:104064000000000001003700000000000080fa009a
:10407400000006000000fa0071fc20009140780066
:10408400c6cfbf0080cf50002700320071fc200053
:1040940091407800e0cfb30080cf5000150032008b
:1040a400e2902000c7cfbf000080fb007e00b90073
:1040b40000007800fc0040000080200000804000e8
:1040c40090427800c7cfbf000080fb007e00b9009b
:1040d40080007800008020000080400010007800fc
:1040e4008002b1008402200013c0b3008540780030
:1040f400ed110700c6cfbf00c7efb7008ec9bf00e0
:10410400914b80008102b100e590200084022000e0
:10411400804178000101780011c0b30005007800e7
:10412400e111070001003700000000000080fa00e0
:10413400000006000c00fa00c0fb200010079800e5
:10414400217e80000000eb00808f500008003a00c0
:1041540096aa02000000000080007800f07f200092
:10416400808060000040200000804000207e8800a5
:10417400c20320008000eb0060932000a20a02002a
:10418400000000000040eb00404798000040eb00b6
:10419400004f78004e0037001e40780088ff07006b
:1041a4009e4078000180fb006600b9008000780022
:1041b400a0f52900008040009040900051479800ed
:1041c4009e4078000180fb006600b9000000780082
:1041d4008080e800a0f5290000804000900078006d
:1041e400310798009e4078000180fb006600b9000a
:1041f40000007800e4004000a0f5290000804000a1
:1042040090007800410798005e4090008080fb0099
:104214000000eb00808f5000010032002b003700bb
:104224001e00900050079800be0090004e009000c1
:10423400808040001e00900000804000a002b0007a
:10424400100798009e00900080ef2100808f50009e
:10425400fcff3e00de409000010078008ee9b700cc
:104264005e0090008002b000904b8800914b80006b
:104274003e009000008040000000e800a04b880051
:10428400a14b80004e00900000804000b04b88009d
:10429400d0002000404c88008a69a90075ff0700ff
:1042a4009e4078000180fb006600b9008000780021
:1042b400a0f52900008040001040780035e9b700df
:1042c400730b07001e4fe80001003700ffff3700a3
:1042d4009e40780080c0b30080cf5000aeff36000f
:1042e4000080fa00000006000c00fa001007980095
:1042f400210798006247980043079800244f9800cc
:104304000040eb00004f78009a0037001e40780010
:104314002bff0700414c8000d0002000808f50000c
:1043240090003a0053ff0700519320009140780019
:104334002e48900080cf50008c003a00802120004d
:1043440090498800ee4090000040eb0080cf500080
:1043540008003a004e009000f04888008a69a800de
:1043640040002000404c8800ce019000634c88003f
:104374007a003700217e8000f03f2000808f5000bb
:1043840004003600217e800080382100808f500098
:104394000200360000402000207e8800207e80003d
:1043a400f04888000000e800207e88004e0090005d
:1043b400e04888009a10020001000000004c8800c8
:1043c400114c88008a89a8006e4090000080fb0090
:1043d4006101b9000080eb008080eb000200400026
:1043e400838048003200200003002000820f500028
:1043f400838f580059003e0000600100030037001d
:1044040002003700160037002c0037001e00900011
:10441400ae00900020498800314988006e40900029
:104424000014a2000080fb000000e9004f00de0041
:10443400004078000080fb00610060004200dd0065
:1044440082498000b1ff2f0081006100008070006c
:10445400804988000000eb00404c88003f00370092
:104464000e80e800900090000e80e80010007800b4
:10447400808040004e00900080804000f048800022
:1044840000806800604c88001e009000ae00900020
:1044940020498800314988000040eb0034e9b70026
:1044a400d003200001002000704888008148880063
:1044b40020002000404c8800280037001e00900097
:1044c400ae00900000007800800078002140900049
:1044d4000081fb00314090000080fb004800dd00bb
:1044e40002007000000178001e009000ae009000f1
:1044f40000007800904178008380fb001040900019
:104504000080fb004800dd000100700080004100d5
:104514004e00900080804000f048800000806800d9
:10452400604c88001e009000ae00900000007800ef
:10453400a20020008000780040922000940a02002b
:104544000000000050002000404c880011c0b3005f
:1045540020c0b30056070700000000001e4078008a
:1045640009003700000000000100370000000000cf
:104574001e4fe8009e40780080c0b30080cf5000fa
:1045840062ff3600e0cfb3000080fa0000000600ae
:104594000200fa00004f78009e40780080c0b3000b
:1045a40080cf500002003600100020000c003700bd
:1045b4001e40780082fe0700514c8000000021005c
:1045c400808060000000eb00808f50000300320008
:1045d4008b89a90010002000010037000000eb00c7
:1045e4000080fa00000006000200fa00004f780084
:1045f4009e40780080c0b30080cf50000200360097
:104604000000eb00080037001e4078006cfe070035
:10461400424c80001000200071002000810f5100e6
:10462400010032000000eb000080fa0000000600e8
:104634000200fa00004f78009e40780080c0b3006a
:1046440080cf50004a003e001e4078005cfe070008
:10465400e04b8000f04b8800404c800001002000bb
:10466400e200200003002000820f5000838f5800d6
:1046740039003e0000600100120037000d003700d1
:10468400100037000f003700330037000d003700eb
:104694000e0037000d0037002f0037002e003700c2
:1046a4002d003700190037002b0037002a0037008f
:1046b4002600370072c6020000000000740a0700da
:1046c4002c003700720a07002a00370011c0b3001b
:1046d40010c1b300f6060700014980000000eb009a
:1046e400808f500005003200c14b8000d04880000c
:1046f400808f5000f5ff3a000100370000000000f1
:1047040080002000404c88001a00370011c0b3001c
:1047140010c1b300e6060700014980000000eb0069
:10472400808f500005003200c14b8000d0488000cb
:10473400808f5000f5ff3a000100370000000000b0
:10474400c0002000404c88000a003700d000200040
:10475400404c8800070037008040eb0040c1b300a4
:10476400d30607004a0a07000000000001003700d2
:10477400000000000080fa00000006000200fa00b9
:10478400004f78009e40780080c0b30080cf500076
:1047940006003e001e40780009fe07008a69a90051
:1047a4001e407800a2ff070001003700000000004f
:1047b4000080fa00000006000200fa00004f7800b2
:1047c4009e40780080c0b30080cf500002003600c5
:1047d4000000eb000b0037001e407800f8fd0700d6
:1047e40024fe0700a200200041922000009920002e
:1047f400940a020000000000e0488000d04c8800c9
:10480400009920000080fa00000006000200fa006f
:10481400004f78009e40780080c0b30080cf5000e5
:104824000b003e001e407800e5fd070011fe070066
:10483400c14b8000d0488000808f500005003200ba
:1048440011c0b30000c1b30099060700010037008e
:10485400000000000080fa00000006000400fa00d6
:1048640020479800ae40900080c0b30080cf500035
:10487400020036000000eb001f0037002e409000bd
:10488400cffd0700404c8000004f78009e40780028
:1048940070c0b30080cf5000060032009e40780004
:1048a400b0c0b30080cf5000020032000000eb0023
:1048b40011003700c14b8000d04b8000808f500026
:1048c40009003900a14b8000904b8000808050008b
:1048d400d24b8000c04b800000005100008040009b
:1048e4000000e90004003700d14b8000c04b800079
:1048f400008050000000e9000080fa00000006007b
:104904000400fa002047980031479800ae40900018
:1049140080c0b30080cf5000020036000000eb00de
:10492400470037002e409000a5fd07002e40900060
:10493400caff0700000f78009e0078000000eb001b
:10494400808f500002003a000000eb003c0037006a
:104954009e00780010002000808f500002003a0072
:104964002e409000a9ff0700514c80000010200049
:10497400808060000000eb00808f50000a003a0045
:10498400a14b8000904b8000008050008000d1003b
:104994001e007800808f5000030039002e409000e4
:1049a4009aff07008b09a800e30047008ec9bf00e7
:1049b400c54b80001400200013c0b300010178002f
:1049c4008040780005007800b70f0700c04b8000d6
:1049d4000000e800c04b8800c14b8000a04b800061
:1049e400808f500002003900904b8000c04b88003b
:1049f4009e00780010002000808f500003003a00d1
:104a04002e40900081ff07000c003700514c8000bd
:104a140000022000808060000000eb00808f5000c6
:104a240006003a008aa9a800a610020001000000ae
:104a34000000780069004000204c8800100020002d
:104a44000080fa00000006000c00fa00604798009d
:104a540041079800520798000000eb0010079800e7
:104a6400ee40900080c0b30080cf500002003600ba
:104a74000000eb00600037006e40900050fd07001e
:104a84006e40900075ff070020079800ae0090006c
:104a94000000eb00808f500004003a006e4090004c
:104aa4005aff07000000eb00530037002e0090006f
:104ab400000f7800ae0090005e009000808f5000e0
:104ac400020036005e009000000f7800514c800018
:104ad40000102000808060000000eb00808f5000f8
:104ae4000a003a00a14b8000904b800000805000e7
:104af4008000d1002e009000808f50000300390008
:104b04006e40900041ff07008b09a800c04b800055
:104b14009e004000a04b8000808f5000150039009b
:104b2400a14b8000c04b800000805000100798000b
:104b3400ce0090008ec9bf00c54b80001e029000bd
:104b440013c0b300010178008040780005007800ac
:104b5400550f0700ce0090001e009000008040001a
:104b6400400798001e0090001e0f1000904b80001c
:104b7400c04b8800ce0090008ec9bf00c54b80009a
:104b84001e02780013c0b300010178008040780051
:104b940005007800440f0700c04b80001e00400051
:104ba400c04b8800ae0090005e009000808f5000e3
:104bb40003003e006e40900014ff07000c00370015
:104bc400514c800000022000808060000000eb0057
:104bd400808f500006003a008aa9a800a61002009f
:104be400010000000000780069004000204c8800ab
:104bf4001e0090001e0040000080fa000000060025
:104c04000400fa00004f7800110798001e0090007d
:104c1400de0a020000000000000178009e009000ff
:104c24001e40780088ff07009e009000008040002e
:104c34000080fa00000006000600fa0040479800d1
:104c4400ce40900080c0b30080cf500002003600f8
:104c54000000eb000b0037004e409000d8fc07002a
:104c6400a14b8000904b800000805000000fe900b1
:104c74004e409000f9fe0700100798001e009000b7
:104c84001e0010000080fa00000006000200fa0076
:104c9400004f78001e4078000c0007008000eb00f5
:104ca400810f5000070032001e407800c4fc07004a
:104cb400e04b8000f04b880011c0b30000c1b3008a
:104cc4007b0507000080fa00000006000200fa00dd
:104cd400004f78009e40780080c0b30080cf500021
:104ce400020036000000eb00120037001e4078007e
:104cf400b3fc0700e14b8000f04b8000808f500034
:104d040004003900e14b8000f04b8000008050002b
:104d140008003700b14b8000f04b800080805000c9
:104d2400e24b8000a04b8000000051000080400056
:104d34000000e8000080fa00000006000600fa0007
:104d440020479800210798002e409000dfff0700bd
:104d5400000f78009e0078000000eb00808f500068
:104d640002003a000000eb002b0037002e409000b8
:104d740093fc0700ae0090000000eb00808f500011
:104d8400090032008ec9bf00f14b8000ae029000d2
:104d940014002000804178000101780011c0b300a4
:104da40005007800c00e0700f04b80000000e8000a
:104db400f04b8800f14b8000b04b8000808f500096
:104dc40002003600a04b8000f04b88009e00780063
:104dd40010002000808f500002003a008b49a80088
:104de4000c003700514c80000002200080806000dd
:104df4000000eb00808f500006003a008aa9a8004a
:104e0400a610020001000000000078000003b000ba
:104e1400204c8800100020000080fa0000000600ea
:104e24000a00fa00404798003107980042079800aa
:104e34000000eb00000f78004e409000a3ff070035
:104e4400100798009e0090000000eb00808f500037
:104e540002003a000000eb00500037004e40900082
:104e640057fc0700ce0090001e009000808f500079
:104e7400020036001e00900040079800f14b8000ad
:104e84004e00900080804000b04b8000808f500026
:104e940019003600b14b8000f04b800000805000b8
:104ea400000fe800be0090000000eb00808f50006f
:104eb4000c0032008ec9bf00f14b8000be0290008e
:104ec4001e027800804178000101780011c0b3000f
:104ed40005007800740e07003e0090001e0040009c
:104ee400300798004e0090001e00500040079800c4
:104ef400a04b8000f04b8800be0090000000eb0047
:104f0400808f5000090032008ec9bf00f14b800031
:104f1400be0290004e0290008041780001017800aa
:104f240011c0b300050078005f0e0700f14b80004c
:104f34004e00900000804000f04b88004e0090002e
:104f44001e004000400798009e0090004e00900014
:104f5400808050004e009000808f500002003e0080
:104f64008b49a8000c003700514c8000000220003f
:104f7400808060000000eb00808f500006003a0043
:104f84008aa9a800a6100200010000000000780011
:104f94000003b000204c88004e0090000080fa000e
:104fa400000006000600fa0040479800ce4090003a
:104fb40080c0b30080cf5000020036000000eb0038
:104fc4000a0037004e409000fdfb0700b14b800003
:104fd400a04b8000008f50004e4090003bff070024
:104fe400100798001e0090001e0010000080fa00b8
:104ff400000006000e00fa00604798004107980080
:105004005207980063079800ee40900080c0b300f8
:1050140080cf500004003e00de0090000000eb0052
:10502400808f500002003a000000eb00430037007c
:105034006e409000e2fb07006e40900023ff0700e3
:1050440010079800ee0090005e0090008080400001
:105054001e009000808f5000040036009e009000d7
:105064006e0090000080500050079800f14b8000c3
:105074006e009000008f4000b14b80001e0078004d
:10508400808f500005003100b14b8000a04b8000a0
:10509400008050000080ea001e0f4000b04b8000ea
:1050a4001e0050000000e80020079800de00900079
:1050b4002e009000808f500009003e008ec9bf0072
:1050c400ce0290005e029000804178001e017800bc
:1050d40011c0b30005007800f30d07001600370077
:1050e4008ec9bf00ce0290002e029000804178004d
:1050f4001e01780011c0b30005007800ea0d070016
:10510400de0090002e009000008150008ec9bf0088
:10511400a14b80004e029000ae0190008302420039
:1051240002027800804178000101780011c0b300c8
:1051340005007800dc0d07005e0090000080fa0096
:10514400000006000600fa00204798002107980096
:10515400ae019000120020008e0078002e409000d6
:10516400a4ff07001e4078000080fa00000006003b
:105174003e00fa0020779800211f9800321f980003
:10518400431f9800541f9800651f9800ae7090004c
:1051940080c0b30080cf500004003e00be189000d1
:1051a4000000eb00808f500002003a000000eb008a
:1051b400330137002e70900081fb07002e709000a1
:1051c400c2fe0700ce18900001005000100798009e
:1051d4009e0090003e189000808f50000200310025
:1051e4000080eb0026013700de1890000000eb0081
:1051f400808f5000060032009e0090005e189000e0
:10520400808f5000020036005e189000100798004e
:10521400f14b80004e189000008040003007980049
:10522400b14b80003e009000808f50000700310099
:10523400b14b8000a04b8000008050000080ea0049
:10524400be0090000080400030079800be0090002f
:10525400010f7800b14b80003e00900000805000a8
:105264000000e800200798004e18900030079800ce
:10527400be189000710798002e189000000f980037
:105284002e18900090407800114f98002e1890002e
:105294000000e800201f98000000eb006007980061
:1052a400ee1890000000eb00808f50000c003200dc
:1052b4009e48900000c6b30080cf5000080036001e
:1052c4009e489000a0c7b30080cf500004003e0069
:1052d4009e48900000ceb30000c04000104f9800dc
:1052e40000c2b300204f98002e4890008080fb003d
:1052f4002e009000808f5000020036002e00900097
:10530400204f98002e4890008080fb001e009000e3
:10531400808f5000020036001e009000204f98003d
:105324002e4890008080fb008ec9bf00f202470027
:1053340001027800804178001e01780011c0b3009a
:1053440005007800580d07002e4890000080fb00ef
:105354001e0f40002e4890000080fb00ae0090001d
:105364000080500020079800ae0090000000eb0081
:10537400808f500004003a00a04b8000000f78009a
:105384000080eb0020079800ee1890000000eb006e
:10539400808f50006f0032000040eb00004f9800f7
:1053a400670037000e4890000080fb00f2004700c1
:1053b400008040009040780000c6b30080cf5000c9
:1053c400140036000e4890000080fb00f2004700f5
:1053d4000080400090407800a0c7b30080cf500008
:1053e4000c003e000e4890000081fb000e48900027
:1053f4000080fb00f20047000080400090407800ed
:1054040000ceb30000c04000f2004700828040009c
:10541400804878000e4890000080fb00f2004700ae
:1054240000804000904078001e48900080cf5000db
:1054340024003a003e1890000000e900301f980054
:10544400be1890000000eb00808f500008003a0066
:10545400be0090007e009000808050000e489000b6
:105464000080fb00008040000000e800840037005a
:105474002e18900090407800114f98002e1890003c
:105484000000e800201f980010002000600798002a
:105494009e48900000c6b30080cf5000250036001f
:1054a4009e489000a0c7b30080cf500021003e006a
:1054b4009e48900000ceb30000c04000104f9800fa
:1054c4001c0037007e009000301f9800ee00900012
:1054d4000000eb00808f5000160032008e08900010
:1054e400211f98002e18900090407800114f9800ca
:1054f4002e1890000000e800201f98009e4890009d
:1055040000c6b30080cf5000080036009e489000cb
:10551400a0c7b30080cf500004003e009e48900016
:1055240000ceb30000c04000104f98000000eb0014
:10553400600798000e4890000040e800004f980073
:105544008e4890002e48900080cf500095ff39007f
:105554003a0037000040eb00004f9800330037005a
:105564000e4890000080fb00f200470000804000dd
:10557400904078001e48900080cf500018003a00f8
:105584003e1890000000e900301f9800be189000fb
:105594000000eb00808f500008003a00be0090002d
:1055a4007e009000808050000e4890000080fb0038
:1055b400008040000000e800310037002e18900001
:1055c40090407800114f98002e1890000000e800d9
:1055d400201f98001000200060079800100037007a
:1055e4007e009000301f9800ee0090000000eb0059
:1055f400808f50000a0032008e089000211f98000e
:105604002e18900090407800114f98002e189000aa
:105614000000e800201f98000000eb0060079800dd
:105624000e4890000040e800004f98008e4890001b
:105634002e48900080cf5000c9ff39002e489000ba
:105644000080fb009e00900000805000100798002e
:105654009e0090003e189000808f500002003100a0
:105664000080eb00060037002e4890000080fb000d
:10567400be009000008040003007980018ff3700fb
:105684000080fa00000006000800fa00004f7800cd
:1056940011479800120798002307980034079800d0
:1056a4000e00e800be0290002e0290009e019000c1
:1056b40012002000800078001e407800acfe070035
:1056c4000080fa00000006000e00fa00881f78002f
:1056d4000040eb00004f7800500237001e40780075
:1056e40037fa07000040eb00604798000000eb0029
:1056f400100798000000eb0020079800514c800030
:1057040000202000808060000000eb00808f5000ab
:1057140006003a00514c8000004020008080600068
:105724000000eb00808f50000c0032007e860200e7
:10573400000000008000eb00810f500007003200e1
:1057440000c1b30060479800504c80004a00de005e
:10575400614060000080fb0010079800514c8000fd
:1057640000022000808060000000eb00808f500069
:105774000b003200284c8000a6100200010000003b
:105784000000780000005400800078000000eb0066
:10579400808f500002003c0000c1b30060479800b5
:1057a400514c800000042000808060000000eb0069
:1057b400808f50000b003200384c8000a61002008d
:1057c4000100000000007800000054008000780010
:1057d4000000eb00808f500002003c0000c1b300c9
:1057e40060479800414c8000b0002000808f50003a
:1057f4000d003a00384c8000a610020001000000a1
:105804000000780000005400800078000000eb00e5
:10581400808f500004003c0010c1b3006047980022
:10582400c0002000404c8800414c80004000200013
:10583400808f500065003a000000eb00400798009c
:105844005c0037004e0090007400b900000078003e
:10585400f000400060932000008040009000780039
:105864000000eb00808f5000570032004e00900083
:105874007400b90000007800f0004000609320003c
:105884000080400090007800604c8000808f5000c1
:1058940045003a00f7f907004e0090007400b90083
:1058a400800078006093200000804000a200200067
:1058b4008000780040922000940a0200000000005a
:1058c4004e0090007400b90000007800ea00400027
:1058d400609320000080400010007800e0488800b9
:1058e4004e0090007400b90000007800ec00400005
:1058f40060932000008040001001be0010002000d2
:10590400010020000200400083804800b048880065
:10591400c1488800314980002049800080804000cf
:10592400e048800080804000f048800000806800eb
:10593400604c880020c1b3006047980060002000dc
:10594400404c8800ce009000c0fe2f000088b900b3
:105954000000780083022000808141004e00900006
:105964000000e8007400b900800078006093200013
:1059740000804000000178004e0090007400b900df
:1059840080007800609320000080400003027800cb
:1059940013c0b30011c0b300c30b07000000eb0039
:1059a400704b8800090037004e0090000000e800aa
:1059b40040079800ce00900020002000808f500007
:1059c400a0ff36000100370000000000ee40900008
:1059d4000040eb0080cf50000900320010c0b3003b
:1059e4001e0190008000eb00810f51000100320085
:1059f4000040eb00804078006e4090002c020700cd
:105a0400504c8000f00060000000eb00808f5000dc
:105a140032003a00414c800070002000808f50001a
:105a240076013a009a100200010000000001be0055
:105a3400004c8000114c800000005100818059000e
:105a44000001be006000b800800f5100818f590032
:105a54006c013500504c8000e700600060002000bd
:105a6400808f50000f003a00504c80004300de004d
:105a740061406000604798001e407800ecfa07001f
:105a84001e407800eafa0700ee4090000040eb0068
:105a940080cf50005d013a00e0002000404c8800b7
:105aa4005d01370073f9070021c0b30000c1b300e2
:105ab400ff0107009a100200010000000001be006f
