:03000000020008F3
:0300610002000397
:0500030012009380FED5
:09006400902FFFE4F0904FFFF033
:0E006D002080FD902FFF7402F0904FFFE0F511
:0C007B0008902FFF7403F0904FFFE0F599
:0200870009224C
:02008900AA8249
:05008B0010990280FB4A
:030090008A992228
:0D0093007598DA438920758DFDD28ED299C3
:0C00A000120064AA08E4C454F0CAC4CAE8
:0C00AC006ACA54F0CA6AFBE509C4540F8C
:0E00B800FC7D00EC2AFAED3BFBC002C0037495
:0A00C600FDC0E07406C0E07480C0C5
:0E00D000E012010EE58124FBF5817A107B27FA
:0500DE001ABAFF011B2E
:0600E300EA4B70F780B744
:0E06FD004144432052454144494E47533A2060
:08070B0025303358680D0A0087
:06003700E478FFF6D8FD9D
:080015007900E94400601B7A48
:05001D000090071E78B1
:030022000075A0C6
:0A00250000E493F2A308B8000205FE
:08002F00A0D9F4DAF275A0FF7C
:08003D007800E84400600A7934
:030045000075A0A3
:0600480000E4F309D8FCFE
:08004E007800E84400600C7921
:0B00560000900000E4F0A3D8FCD9FAF1
:0600E900C00B85810B1223
:0500EF000089D00B2286
:0800F40085823185833285F01D
:0500FC0033E4F52EF5D0
:050101002F75300085A0
:030106000A349028
:0501090000E90201D134
:06010E00C00B85810BE52A
:070114000B24FBF534E4F5B8
:04011B002EF52FF599
:07011F0030E50B24FBF8861C
:0601260031088632088654
:05012C00339000E91210
:0501310001D1D00B22FA
:07013600AA82C024C025C00D
:06013D0026744DC0E074C1
:0601430001C0E0C022C073
:04014900238A822261
:0A014D00158115811581052CE4B51C
:040157002C02052D44
:01015B002281
:0B015C00AA8274302AFA7439B5020040
:0C016700500A74072AFA300003430220FB
:050173008A8202013642
:0E017800E582FAC4540FF582C00212015CD079
:0901860002740F5AF58202015CBB
:06018F0085820CAB27ACD9
:0401950028AD29AEBA
:040199002AAF2B75E9
:02019D000D2033
:0E019F00EF2FFFEE235401FA4207EB2BFBEC8F
:0C01AD0033FCED33FDEE33FEEFB50C002B
:0A01B9004008EFC3950CFF4303015B
:0601C300D50DD98B278C3D
:0401C900288D298EC6
:0401CD002A8F2B2228
:0701D100858222858323854E
:0301D8002E24854D
:0301DB002F258548
:0401DE003026E4F5EE
:0301E2002CF52DCC
:0501E500AA31AB32ACB1
:0C01EA00338A828B838CF01206DDFD74DA
:0901F600012AF531E43BF5328CDD
:0801FF0033EDFA70030206BEA5
:05020700BA250280038E
:03020C000206B631
:05020F00C201C202C2A1
:0402140003C204C25B
:0402180005C206C253
:04021C0007C2087598
:0802200035007536007DFFAECC
:0402280031AF32AB15
:01022C00339E
:0E022D008E828F838BF01206DDFAA3AE82AFB5
:06023B00838E318F328B2F
:0B02410033BA25078A8212013680992B
:05024C008A04BC300033
:0902510040288A047439B5040048
:0C025A00401FBDFF11E53675F00AA42A14
:0A02660024D0F53670C1D20280BD2D
:0B027000ED75F00AA42A24D0FD80B236
:0A027B00BA2E07BDFFAC7D0080A87D
:050285008A04BC6100C9
:09028A0040108A04747AB50400E6
:0902930040075302DFD200800293
:02029C00C2009E
:05029E00BA20028055AA
:0502A300BA2B02804BA4
:0502A800BA2D028041A7
:0502AD00BA4202804B83
:0502B200BA4302805078
:0602B700BA440302045FDB
:0602BD00BA4603020475BD
:0602C300BA490302045FCA
:0502C900BA4C02803474
:0602CE00BA4F03020466B2
:0602D400BA50030203F61C
:0502DA00BA5302804C44
:0602DF00BA550302046B96
:0602E500BA580302047088
:0302EB0002047991
:0502EE00D20102022D07
:0502F300D20302022D00
:0502F800D20402022DFA
:0502FD00D20602022DF3
:05030200D20702022DEC
:0803070030060AE53414F88801
:05030F00348602800F9E
:0A031400E53424FEF888348603085F
:05031E008604188B02AB
:080323008A82120136020482F5
:0A032B00E53424FDF8883486030849
:0A033500860408860618188B278C32
:0A033F00288E298B828C838EF0C07B
:0E034900051206C5AB82AC83D005BDFF028B4A
:0103570005A0
:0703580020012CEBB536007B
:09035F005026E536C39BF536ACCF
:01036800365E
:0C0369008C061C8C36EE6014758220C0DF
:0E03750003C004C005120136D005D004D00329
:0203830080E414
:020385008C36B4
:020387008D04E3
:07038900852782852883858A
:0C03900029F01206DDFDFA602F8C051C20
:0E039C00C374808DF063F08095F050208A824B
:0C03AA00C003C004120136D004D003AD23
:0403B60027AE28AF97
:0603BA00290DBD00010E3B
:0503C0008D278E288F3F
:0303C5002980C1CB
:0603C80020010302048283
:0403CE00EBB5360055
:0503D20040030204825B
:0703D700E536C39BF536ACCF
:0103DE0036E8
:0B03DF008C051C8C36ED7003020480BE
:0C03EA00758220C004120136D00480E9A6
:0A03F600E53424FDF888348605087C
:0A040000860608860718188D278E5F
:04040A00288F29AD61
:04040E0029BD800084
:0604120040047A4380144F
:03041800BD6000C4
:06041B0040047A50800B42
:03042100BD4000DB
:0604240040047A49800249
:02042A007A58FE
:0E042C008A82C00212013675823A12013675BC
:0E043A008230120136758278120136D002BA75
:040448004902800BDA
:05044C00BA5002800619
:06045100852882120178EB
:08045700852782120178802341
:07045F00D20575350A801C6F
:05046600753508801748
:05046B0075350A801246
:05047000753510800D40
:04047500D208800920
:070479008A821201368002A5
:020480008C36B8
:0904820030085AE53424FCF88826
:0C048B00348604088605088606088607EB
:080497001818188C278D288E1F
:04049F00298F2A7502
:0304A300271375A7
:0304A600280775AF
:0204A9002980A8
:0404AB0085273885E4
:0304AF0028398564
:0504B200293A74012548
:0704B70038FFE43539FCAD0C
:0404BE003A8F278CBE
:0404C200288D2985D3
:0604C600388285398385B0
:0A04CC003AF01206DDFCFA7003029C
:0204D60001E53E
:0704D8008A8212013680CC7C
:0704DF00E53570030201E5A1
:0404E6007537133023
:0704EA00062BE53414F8882D
:0A04F10034E6FD3395E0FEFFFC8DBC
:0404FB00278E288F91
:0404FF00298C2A20FA
:0A0503000562AC277D007E007F003A
:05050D008C278D288EF3
:05051200298F2A805032
:0905170030071FE53424FCF888CC
:0C05200034860408860508860608860755
:08052C001818188C278D288E89
:05053400298F2A802E32
:0A053900E53424FEF8883486040837
:0C054300860518ED3395E0FEFF8C278D37
:04054F00288E298F3A
:050553002A200510AC98
:0805580027AD287E007F008C16
:04056000278D288E2D
:03056400298F2AB2
:06056700300525AC27ADB4
:04056D0028AE29E5A6
:0C0571002AFF30E717C3E49CFCE49DFD6A
:0A057D00E49EFEE49FFF8C278D280A
:060587008E298F2A80027C
:02058D00C205A5
:06058F00D209A8377C0030
:0A059500752B00853582C004C000FC
:0B059F0012018FD000D00420090DE5F0
:0A05AA002BC4FDE6FE4DF61888375D
:0205B4008002C3
:0205B600A62B72
:0805B8000C8C03B209E5274594
:0405C000284529455C
:0805C4002A70CE88378C03E594
:0605CC00367003753601D4
:0A05D200200225200122EB04FCADFD
:0105DC0036E8
:0405DD00ECB5050074
:0E05E1005015758220C003C004C005120136FB
:0905EF00D005D004D0031D80E505
:0205F8008D363E
:0C05FA0030050E75822DC003120136D0B2
:050606000315368023FE
:0C060B00EB602030030E75822BC0031240
:080617000136D0031536800FF7
:0C061F0030040C758220C003120136D09C
:03062B000315367E
:05062E00200125AC369F
:090633008C051C8C36EBB50500AA
:09063C00502B3002047D308002D5
:020645007D2016
:0E0647008D82C003C004120136D004D003809F
:01065500DDC7
:04065600EBB53600CA
:0A065A005008E536C39BF536800713
:05066400753600800264
:020669008C36CD
:02066B00A837AE
:0A066D008B041BEC6026B209200983
:0B0677000A08E6C4540FFC8C2B80071F
:070682008604740F5CF52BE8
:0C068900852B82C003C00012015CD00071
:04069500D00380D43A
:060699002001030201E54F
:02069F00AB3678
:0906A1008B041BEC70030201E55F
:0C06AA00758220C003120136D00380EBE3
:0806B6008A821201360201E5FF
:0706BE00852C82852D8322AB
:0B0713003C4E4F20464C4F41543E002E
:0406C500AA82AB83D7
:0806C9001206DD6003A380F8B6
:0C06D100C3E5829AF582E5839BF5832245
:0300080075813AC5
:0A000B001206F9E58260030200030B
:0E06DD0020F71430F6148883A88220F507E673
:0606EB00A88375830022C4
:0306F100E280F7AD
:0306F400E493226A
:0206F700E022FF
:0406F90075820022E4
:00000001FF
