:020000040000FA
:1000000002002A00000080FB120033B90003020046
:100010002478089000367A08BA00028007E493A397
:10002000F608DAF912003E12000375D0007581BFA0
:100030000200087901220206040C0809010375A0D8
:100040000380117400FE74082EF8E6F5A07A327B66
:1000500000120085A280400BEEC3940850E57401A5
:100060002E80E2A28140EDEEC39401400574FF2E84
:1000700080027407FE74082EF8E6F5A07A327B0041
:1000800012008580CF80137C78ECFD74FF2DFCED91
:1000900070F7EA24FFFAEB34FFFB74006A70037414
:0500A000006B70E3227B
:040000050000002ACD
:00000001FF
