:020000040000fa
:080000000002040000000000f2
:020000040000fa
:100400000f80200000bf20000001880000000000d5
:100410000a00070011000700000020000000e000b3
:10042000020032000000020000000000880202000a
:10043000000000000040da000000fe004440a90077
:10044000000020000000e000030032000000200057
:10045000a00188004440a80000000600803320006e
:10046000010020001500370062004000e0804800d5
:10047000910188009001ba0062004000e0804800cd
:10048000910188009002ba0062004000e0804800bc
:100490000002eb006028e10004003a000059eb0084
:1004a0008301e900fdff3e00040037006128e10000
:1004b000010032000082eb00050007009101880076
:1004c0001001ba000200e000e7ff3a00000005005a
:1004d000910188008002780062004000e0804800be
:1004e0003559ba008301e900080032002559ba00e5
:1004f0008301e900050032000400e000f4ff32004f
:1005000015d9ba008301e900f1ff3a0000000600a6
:020000040000fa
:0200000401f009
:04000c00f9ff0000f8
:020000040000fa
:100008003a0300003a0300003a0300003a030000f4
:100018003a0300003a0300003a0300003a030000e4
:100028003a0300003a0300003a03000024030000ea
:100038003a0300003a0300003a0300003a030000c4
:100048003a0300003a0300003a0300003a030000b4
:100058003a0300003a0300003a0300003a030000a4
:100068003a0300003a0300003a0300003a03000094
:100078003a0300003a0300003a0300003a03000084
:100088003a0300003a0300003a0300003a03000074
:100098003a0300003a0300003a0300003a03000064
:1000a8003a0300003a0300003a0300003a03000054
:1000b8003a0300003a0300003a0300003a03000044
:1000c8003a0300003a0300003a0300003a03000034
:1000d8003a0300003a0300003a0300003a03000024
:1000e8003a0300003a0300003a0300003a03000014
:1000f8003a0300003a0300003a0300003a03000004
:100108003a0300003a0300003a0300003a030000f3
:100118003a0300003a0300003a0300003a030000e3
:100128003a0300003a0300003a0300003a030000d3
:100138003a0300003a0300003a0300003a030000c3
:100148003a0300003a0300003a0300003a030000b3
:100158003a0300003a0300003a0300003a030000a3
:100168003a0300003a0300003a0300003a03000093
:100178003a0300003a0300003a0300003a03000083
:100188003a0300003a0300003a0300003a03000073
:100198003a0300003a0300003a0300003a03000063
:1001a8003a0300003a0300003a0300003a03000053
:1001b8003a0300003a0300003a0300003a03000043
:1001c8003a0300003a0300003a0300003a03000033
:1001d8003a0300003a0300003a0300003a03000023
:1001e8003a0300003a0300003a0300003a03000013
:0801f8003a0300003a03000085
:020000040000fa
:100208003a0300003a0300003a0300003a030000f2
:100218003a0300003a0300003a0300003a030000e2
:100228003a0300003a0300003a03000024030000e8
:100238003a0300003a0300003a0300003a030000c2
:100248003a0300003a0300003a0300003a030000b2
:100258003a0300003a0300003a0300003a030000a2
:100268003a0300003a0300003a0300003a03000092
:100278003a0300003a0300003a0300003a03000082
:100288003a0300003a0300003a0300003a03000072
:100298003a0300003a0300003a0300003a03000062
:1002a8003a0300003a0300003a0300003a03000052
:1002b8003a0300003a0300003a0300003a03000042
:1002c8003a0300003a0300003a0300003a03000032
:1002d8003a0300003a0300003a0300003a03000022
:1002e8003a0300003a0300003a0300003a03000012
:1002f8003a0300003a0300003a0300003a03000002
:100308003a0300003a0300003a0300003a030000f1
:100318003a0300003a0300003a0300003a030000e1
:100328003a0300003a0300003a0300003a030000d1
:100338003a0300003a0300003a0300003a030000c1
:100348003a0300003a0300003a0300003a030000b1
:100358003a0300003a0300003a0300003a030000a1
:100368003a0300003a0300003a0300003a03000091
:100378003a0300003a0300003a0300003a03000081
:100388003a0300003a0300003a0300003a03000071
:100398003a0300003a0300003a0300003a03000061
:1003a8003a0300003a0300003a0300003a03000051
:1003b8003a0300003a0300003a0300003a03000041
:1003c8003a0300003a0300003a0300003a03000031
:1003d8003a0300003a0300003a0300003a03000021
:1003e8003a0300003a0300003a0300003a03000011
:0803f8003a0300003a03000083
:020000040000fa
:100510000200fa0050002000303a880044c7bf00b3
:10052000f043b20044e7b7004174200091407800e6
:1005300000ceb30000c0600044e7b70040a7a900a8
:1005400042c7bf000042b2000004e000fcff3200de
:100550009000200020358800816c200091407800b8
:1005600000ceb30000c060003040b300c8e6b70062
:10057000003c2000601988000000eb006016880035
:10058000f0ff2000401688000000eb000008880003
:10059000f0ff2100100888008460a9009460a80082
:1005a00000032800200888009002200040118800e5
:1005b000000028000011880000442000101188006d
:1005c0008560a9000000370085c0bf00684060005a
:1005d0000004e000fcff320030118000000f7800c2
:1005e00023c2bf00614060000004e000fcff320055
:1005f000200220002011880023c2bf00614060005b
:100600000004e000fcff32001e007800201188008a
:1006100023c2bf00614060000004e000fcff320024
:10062000200220002011880023c2bf00614060002a
:100630000004e000fcff32000002200020118800ce
:100640008560a900e0ff3700809fbe000000fa002f
:100650008460a9006016800001002f00010068007e
:10066000601688000080fa004f00be0000400600bf
:020000040000fa
:040670000000000086
:020000040000fa
:040674000000fe0084
:00000001FF
