:020000040000FA
:0600000027EF0CF01200D6
:0600080004EF08F01200F5
:060018000CEF08F01200DD
:02001E000100DF
:0C002000FF0F0000F900000001000000CC
:04002C00D9CFE6FF43
:10003000E1CFD9FFE6526A6A686A9F0E6B6EFB0ECB
:10004000696E6D8C6D9C6E6A020EE66EE66AE66AFB
:10005000710EE66E0F0EE66E0DEC0CF0106E050ED6
:10006000E15E1050DF6ADF50106E116A080E105CFE
:10007000000E115810E2DF50040DF3CFE9FFF4CF6A
:10008000EAFF000EE926040EEA22EE6AEE6AEE6A44
:10009000EE6ADF2AE8D7160E706E68A60CD0030E43
:1000A000E66E680EE66E0F0EE66E7FEC07F0E55228
:1000B000E552E552F2D70101A26BA76BA86BA96BC1
:1000C0006D98040E966F040E976F886B876BE552E0
:1000D000E552E7CFD9FF1200D9CFE6FFE1CFD9FF34
:1000E000E6520101875111E105D06D6A696A01018B
:1000F000876B7BD06D6A696A6DB602D06D86FCD75E
:100100000101010E876F140E6F6E870508E16DBA4D
:1001100006D0686A696A69806988020E876F6850CC
:10012000040B04E06950040B01E096D86DB25DD079
:100130006850010B11E06950010B0EE077DF0101FF
:10014000040E876F0401200E026F040E036F080E69
:10015000016F006B8C0E00136850100B04E06950A7
:10016000100B01E06AD86850400B10E06950400B5A
:100170000DE085EC0BF0060EE66E680EE66E0F0ED7
:10018000E66E7FEC07F0E552E552E5526850200B31
:1001900004E06950200B01E02DD86850020B06E006
:1001A0006950020B03E086EC0BF06A6A040E010151
:1001B000875D01E21AD069A618D0DF6A040EDF5C01
:1001C00014E268A60FD06CCFAFF1030EE66E680E96
:1001D000E66E0F0EE66E7FEC07F0E552E552E55253
:1001E0004ED801D002D0DF2AE9D7E552E552E7CF59
:1001F000D9FF120070A015D08AC1E9FF8BC1EAFFB8
:10020000EF5080080DE196C1E9FF97C1EAFFEF507A
:10021000840806E18AC1E9FF8BC1EAFF8C0EEF6E0C
:100220007090050EE66E680EE66E0F0EE66E7FECC1
:1002300007F0E552E552E55212006984040EE66EBD
:10024000680EE66E0F0EE66E7FEC07F0E552E552A3
:10025000E5526D8283EF0BF06D9284EC0BF06994A4
:1002600068A40CD0020EE66E680EE66E0F0EE66E07
:100270007FEC07F0E552E552E552F2D71200FD0E91
:100280000101AF151FE17E0EAF15E8407F0B040D95
:10029000F3CF8AF1F4CF8BF1000E8A27040E8B2363
:1002A0008AC18CF18BC18DF18AC1E9FF8BC1EAFF54
:1002B000EF503C0BE842E8420D0802E109D801D0BA
:1002C0001ED805D0FD0EAF15040801E120D812009C
:1002D00096C1E9FF97C1EAFFEF50800B05E096C198
:1002E000E9FF97C1EAFFEF6A01019E6B9F6BA36B69
:1002F000A46BA26BF6D887EC0BF0FDEF03F0020EB7
:1003000001019F5D02E1D6DB01D04DD81200D9CFAB
:10031000E6FFE1CFD9FFE65296C1E9FF97C1EAFFB8
:10032000EF50400B01E0010EDF6E080E0101875D0A
:100330000AE122C46EFF6E50000803E2100E876FC0
:1003400002D0040E876F9F0528E196C1E9FF97C18F
:10035000EAFF020EE926000EEA22280EEE6E040ED7
:10036000ED6E1DDB020E01019E5D07E196C1E9FF06
:1003700097C1EAFF840EEF6E0FD0DF5007E196C100
:10038000E9FF97C1EAFFC80EEF6E06D096C1E9FFFC
:1003900097C1EAFF880EEF6E01D005D8E552E5520D
:1003A000E7CFD9FF1200D9CFE6FFE1CFD9FF030E87
:1003B000E126020E01019F5D4AE16D50100B47E0FE
:1003C0008AC1E9FF8BC1EAFFEE52EF50106E116A4D
:1003D000080E101801E111503AE18AC1E9FF8BC102
:1003E000EAFFEF503C0BE842E8420D0830E18CC1D7
:1003F000E9FF8DC1EAFFEF50800B29E18CC1E9FFD5
:100400008DC1EAFF020EE926000EEA22200EEE6EF2
:10041000040EED6EDF6ADF50106E116A080E105C7C
:10042000000E115813E2DF50EA6A280FE96E040E3D
:10043000EA22EF50E66EDF50EA6A200FE96E040E02
:10044000EA22E552E750EF6EDF2AE5D731D09F6B05
:100450008CC1E9FF8DC1EAFFEE52080EEF6E8CC130
:10046000E9FF8DC1EAFF020EE926000EEA22200E06
:10047000EE6E040EED6E8CC1E9FF8DC1EAFF8C0EAD
:10048000EF6E96C1E9FF97C1EAFFEF6A000E961979
:10049000106E97C111F0010E10C0DBFF020E11C0EB
:1004A000DBFF010EDBCFE9FF020EDBCFEAFFEF6AD5
:1004B0000101A7AF0CD0AA51AB1107E005D0ABC129
:1004C000FAFF0101AA51F96EFADF0101A79F030E9D
:1004D000E15C02E2E16AE552E16EE552E7CFD9FF65
:1004E000120004012051600BE842E842E842E84271
:1004F000E842000901E04CD021510C0A48E00B0A07
:1005000043E00C0A35E0010A26E00B0A22E0020A69
:1005100020E0030A1CE0080A10E0010A0CE00F0AC0
:1005200008E0030A01E033D00101A28F080E876FB3
:100530002FD0B5D82DD04FDB2BD00101880EA06F66
:10054000010EA16FA281010EA36FA28F21D0FBD853
:100550001FD01FD81DD024510101A06FA16B890E9F
:10056000A027010EA123A281010EA36FA28F10D09C
:100570000101A28F04012451EA6A890FE96E010E7C
:10058000EA2222C4EFFF04D089EC0BF001D000D0A6
:100590001200D9CFE6FFE1CFD9FF050EE126040115
:1005A000220510E120511F0B00090CE10101A28F6F
:1005B000030E0401215D04E10101010EAE6F02D0C2
:1005C0000101AE6B0401225160E120511F0B0208B2
:1005D0005CE124510F0B000958E00101A28F040EC9
:1005E000DB6A020EF36E040EDBCFF4FFF350F45C13
:1005F0004CE2000EDE6E040EDD6E04012451800B11
:1006000001E0010E126E24510F0BE8241224040D98
:10061000F3CF10F0F4CF11F0D9CFE9FFDACFEAFF32
:100620001050EE261150ED22030E215D07E1DECFC2
:10063000E9FFDDCFEAFF840EEF6E24D024510F0BCB
:10064000116A700F106E0F0E1122020E10C0DBFF28
:10065000030E11C0DBFF020EDBCFE9FF030EDBCF81
:10066000EAFFEE90ED5224AF07D0DECFE9FFDDCFF9
:10067000EAFF400EEF6E06D0DECFE9FFDDCFEAFFE6
:10068000C80EEF6E040EDB2AACD7050EE15C02E269
:10069000E16AE552E16EE552E7CFD9FF1200800E24
:1006A0000401205D4FE10101C00EA26F040123513E
:1006B000030A2EE0010A0EE0030A03E00101A26B27
:1006C00041D00101360EA06F0F0EA16F120EA36F65
:1006D000A46B38D02251F66EF76AD890F636F7360A
:1006E000F70EF6260F0EF7220900F5CFA0F10A004B
:1006F000F5CFA1F1020E0101F76AA025F66EA15116
:10070000F7220900F5CFA3F10A00F5CFA4F11AD022
:100710002251F66EF76AD890F636F736F90EF626BD
:100720000F0EF7220900F5CFA0F10A00F5CFA1F1D5
:10073000A0C1F6FFA1C1F7FF0800F5500101A36FAA
:10074000A46B00D01200D9CFE6FFE1CFD9FF020E93
:10075000E1260401286B296B20511F0B020A12E0CD
:10076000030A0DE0010A01E034D00101A28F040167
:1007700028810101AE0502E1040128832AD001018C
:10078000A28F27D00101A28F000EDE6E040EDD6E57
:1007900004012451800B01E0010E126E24510F0B55
:1007A000E8241224040DF3CF10F0F4CF11F0D9CFC8
:1007B000E9FFDACFEAFF1050EE261150ED22DECF2E
:1007C000E9FFDDCFEAFFEF50040B02E0010E286FD6
:1007D00000D00101A2AF07D0280EA06F040EA16FB8
:1007E000A281020EA36F020EE15C02E2E16AE55211
:1007F000E16EE552E7CFD9FF12006D980101A2BF6B
:100800004AD0A7AF28D0020E9F6F96C1E9FF97C1CB
:10081000EAFFEE52EF6A96C1E9FF97C1EAFFC80E00
:10082000EF6E8CC1E9FF8DC1EAFFEE52080EEF6E4C
:100830008CC1E9FF8DC1EAFF020EE926000EEA2213
:10084000280EEE6E040EED6E8CC1E9FF8DC1EAFF3D
:10085000C80EEF6E1FD08CC1E9FF8DC1EAFFEE52CA
:10086000080EEF6E8CC1E9FF8DC1EAFF020EE9268A
:10087000000EEA22200EEE6E040EED6E8CC1E9FF32
:100880008DC1EAFF8C0EEF6E96C1E9FF97C1EAFFBA
:10089000840EEF6E83D0A7BF81D0040120AF56D065
:1008A0000101A3510401265D0101A451040127594E
:1008B00004E226C4A3F127C4A4F171D80101010EFA
:1008C0009F6F8CC1E9FF8DC1EAFFEE52080EEF6EFB
:1008D0008CC1E9FF8DC1EAFF020EE926000EEA2273
:1008E000200EEE6E040EED6E8CC1E9FF8DC1EAFFA5
:1008F000800EEF6E8AC1E9FF8BC1EAFFEE52080E4F
:10090000EF6E8AC1E9FF8BC1EAFF020EE926000EF5
:10091000EA22200EEE6E040EED6E8AC1E9FF8BC155
:10092000EAFF800EEF6E96C1E9FF97C1EAFF020E63
:10093000E926000EEA22280EEE6E040EED6E96C138
:10094000E9FF97C1EAFFC80EEF6E28D00101020E41
:100950009F6F96C1E9FF97C1EAFFEE52EF6A96C119
:10096000E9FF97C1EAFFC80EEF6E8CC1E9FF8DC1A8
:10097000EAFFEE52080EEF6E8CC1E9FF8DC1EAFF6F
:10098000020EE926000EEA22280EEE6E040EED6E2F
:100990008CC1E9FF8DC1EAFFC80EEF6E1200D9CFFE
:1009A000E6FFE1CFD9FF020EE1260101080EA35DAB
:1009B000000EA4590EE2A3C1DEFFA4C1DDFF9E51CB
:1009C00003E1010E9E6F04D09E0502E1020E9E6FB0
:1009D00003D0080EDE6EDD6A96C1E9FF97C1EAFF1B
:1009E000EF9296C1E9FF97C1EAFFEF9096C1E9FF48
:1009F00097C1EAFF010EDB50EF1296C1E9FF97C1E4
:100A0000EAFFEE52DFCFEFFF000EDB50A35F010ED7
:100A1000DB50A45B280EAC6F040EAD6FA2B121D0E9
:100A2000D9CFE9FFDACFEAFFEE50ED1019E0A0C10F
:100A3000F6FFA1C1F7FFA02B000EA1230800F5507F
:100A4000E66EACC1E9FFADC1EAFFAC2B000EAD23F1
:100A5000E552E750EF6EDF06010E01E2DB06E0D75C
:100A60001FD0D9CFE9FFDACFEAFFEE50ED1018E042
:100A7000A0C1E9FFA1C1EAFFA02B000EA123EF5006
:100A8000E66EACC1E9FFADC1EAFFAC2B000EAD23B1
:100A9000E552E750EF6EDF06010E01E2DB06E1D71B
:100AA000020EE15C02E2E16AE552E16EE552E7CF57
:100AB000D9FF1200D9CFE6FFE1CFD9FF020EE12620
:100AC0008AC1E9FF8BC1EAFFEE52EFCFDFFFDFCF34
:100AD00010F010500101A85D000EA95903E2A8C151
:100AE000DFFF09D0DF50106E116A1050A85DA86FAB
:100AF0001150A959A96F010EDB6ADF50F36E010E88
:100B0000DBCFF4FFF350F45C16E2010EDB50EA6A2F
:100B1000280FE96E040EEA22EF50E66EA5C1E9FF48
:100B2000A6C1EAFFA52B000EA623E552E750EF6E03
:100B3000010EDB2AE2D7000ED880A855000EA95579
:100B400028E28CC1E9FF8DC1EAFFEE52080EEF6E7C
:100B50008CC1E9FF8DC1EAFF020EE926000EEA22F0
:100B6000280EEE6E040EED6E8AC1E9FF8BC1EAFF1E
:100B7000EF50400B07E18CC1E9FF8DC1EAFFC80EC1
:100B8000EF6E06D08CC1E9FF8DC1EAFF880EEF6ED3
:100B900018D08CC1E9FF8DC1EAFF020EE926000ED4
:100BA000EA22200EEE6E040EED6EAA51AB1107E0A4
:100BB00005D0ABC1FAFF0101AA51F96EFADF0101BC
:100BC000A79F020EE15C02E2E16AE552E16EE552A6
:100BD000E7CFD9FF12000101A28F020EE66EE66A8E
:100BE000E66A710EE66E0F0EE66E0DEC0CF0106EFE
:100BF000050EE15E1050010EE66EE66AE66A890EA9
:100C0000E66E010EE66E0DEC0CF0106E050EE15E68
:100C1000105022C488F10401225104E10101100E98
:100C2000876F05D00101200E876F8AEC0BF0120050
:100C3000D9CFE6FFE1CFD9FF020EE126000EDE6E2E
:100C4000040EDD6EFD0EDB50040DF3CF12F0FE0E30
:100C5000DB50080DF3501224106E116A020E0F0BB8
:100C600005E0D89011321032E806FBE1D89010363A
:100C70001136D89010361136D9CFE9FFDACFEAFF16
:100C80001050EE261150ED22DECFE9FFDDCFEAFF56
:100C9000EF9EFD0EDB500FE1FE0EEA6ADB34FE0B29
:100CA000EA36E96E8E0EE926010EEA22DECFEEFF6D
:100CB000DDCFEDFF0ED0FE0EEA6ADB34FE0BEA3626
:100CC000E96E960EE926010EEA22DECFEEFFDDCFB9
:100CD000EDFFDECFE9FFDDCFEAFFEF8C020EE15C36
:100CE00002E2E16AE552E16EE552E7CFD9FF120078
:100CF000D9CFE6FFE1CFD9FF020EE126FE0EDB5091
:100D0000116A700F106E0F0E112210C0DEFF11C09D
:100D1000DDFFFD0EDB50E66EDECFE9FFDDCFEAFF43
:100D2000E552E750EE6EED6AFD0EDBA407D0E66AF1
:100D3000FE0EDBCFE6FF7CDFE552E552FD0EDBA2C7
:100D400008D0010EE66EFE0EDBCFE6FF71DFE55246
:100D5000E552020EE15C02E2E16AE552E16EE55223
:100D6000E7CFD9FF1200D9CFE6FFE1CFD9FF020EBE
:100D7000E126FE0EDB5020E18CC1E9FF8DC1EAFFC8
:100D8000EE52080EEF6E8CC1E9FF8DC1EAFF020E34
:100D9000E926000EEA22200EEE6E040EED6E8CC1E6
:100DA000E9FF8DC1EAFF8C0EEF6E96C1E9FF97C196
:100DB000EAFF840EEF6E1DD0FD0EDBCFE6FFFE0EC8
:100DC000DB50E824E552E724040DF3CF10F0F4CF14
:100DD00011F0000E1026040E112210C0DEFF11C00B
:100DE000DDFF840E106EDECFE9FFDDCFEAFF10508D
:100DF000EF12020EE15C02E2E16AE552E16EE552B9
:100E0000E7CFD9FF1200D9CFE6FFE1CFD9FF020E1D
:100E1000E126FD0EDB500FE0FE0EEA6ADB34FE0B2E
:100E2000EA36E96E960EE926010EEA22EECFDEFFE3
:100E3000EDCFDDFF0ED0FE0EEA6ADB34FE0BEA36A4
:100E4000E96E8E0EE926010EEA22EECFDEFFEDCF2F
:100E5000DDFFDECFE9FFDDCFEAFFEF7CDECFE9FF8C
:100E6000DDCFEAFF020EE926000EEA22FB0EDBCF01
:100E7000EEFFFC0EDBCFEDFFDECFE9FFDDCFEAFFBB
:100E8000EE52FA0EDBCFEFFF400E106EDECFE9FF21
:100E9000DDCFEAFF1050EF16880E106EDECFE9FFAF
:100EA000DDCFEAFF1050EF12FD0EDB500BE0FE0E1F
:100EB000EA6ADB34FE0BEA36E96E960EE926010E8D
:100EC000EA220AD0FE0EEA6ADB34FE0BEA36E96E4D
:100ED0008E0EE926010EEA22DECF10F0DDCF11F0F2
:100EE00010C0F3FF11C0F4FF020EE15C03E200D07A
:100EF000E16AE552E16EE552E7CFD9FF1200D9CFA2
:100F0000E6FFE1CFD9FF010EF36EFC0EDB5004E0EB
:100F1000D890F336E806FCE1F350E81C106EFD0EA5
:100F2000DBCFE9FFFE0EDBCFEAFF1050EF16E552F4
:060F3000E7CFD9FF12001B
:0A0F36001201000202000008D804B6
:100F40000A0001000102000109024300020100C081
:100F5000320904000001020201000524001001040E
:100F60002402020524060001052401000107058270
:100F70000308000209040100020A0000000705033B
:100F80000240000007058302400000040309043406
:100F9000034D006900630072006F00630068006920
:100FA000007000200054006500630068006E006F50
:100FB000006C006F0067007900200049006E00633C
:100FC000002E00340343004400430020005200532D
:100FD000002D00320033003200200045006D007506
:100FE000006C006100740069006F006E0020004416
:0F0FF0000065006D006F00480F8B0F8F0FC30F50
:010FFF0000F1
:0610000027EF0CF01200C6
:021006001200D6
:0610080043EF0AF01200A4
:061018004CEF0AF012008B
:02101E000401CB
:1010200020511F0B010801E04CD02051600BE84219
:10103000E842E842E842E842010801E042D0245197
:1010400003E0240501E03DD02151220A35E0030AE6
:1010500028E0010A17E0210A0EE0010A01E031D080
:101060000101CD0EA06F010EA16F080EA36FA46B3E
:10107000A281A28F26D00101CD0EA06F010EA16F1B
:10108000A28F1FD026C4A8F127C4A9F10101600EC8
:10109000A56F000EA66F5E0EAA6F150EAB6FA78F21
:1010A00010D00101E80EA06F000EA16F070EA36F14
:1010B000A46BC10EA26F05D022C4C8F10101A28F9A
:1010C00000D012000001E86B4B0EE96FEA6BEB6B8E
:1010D000EC6BED6B080EEE6F0101BD6BBC6B1A0E75
:1010E000E66E020EE66E78EC06F0E552E5521E0E54
:1010F000E66E030EE66E78EC06F0E552E552400E21
:10110000E66E680EE66E000EE66EE66A030EE66EAA
:1011100003EC07F0106E050EE15E1050F3CFC4F142
:10112000F4CFC5F10101C66BC76B1200D9CFE6FF42
:10113000E1CFD9FF0101BC6BC451C51102E1000E22
:1011400008D0C4C1E9FFC5C1EAFFEF50800B01E040
:10115000010E000945E1FC0EDBCF10F0C4C1E9FF30
:10116000C5C1EAFFEE52EF50D880105408E2C4C166
:10117000E9FFC5C1EAFFEE52FC0EEFCFDBFFBC6B0F
:10118000FC0EDB50BC5D19E2BC51EA6A680FE96EE7
:10119000000EEA22EF50E66EBC51E76EFD0EDBCF8B
:1011A000E9FFFE0EDBCFEAFFE750E926000EEA2258
:1011B000E552E750EF6EBC2BE3D7400EE66E680EAB
:1011C000E66E000EE66EE66A030EE66E03EC07F0CE
:1011D000106E050EE15E1050F3CFC4F1F4CFC5F1EF
:1011E0000101BC5100D0E552E7CFD9FF1200D9CFA1
:1011F000E6FFE1CFD9FF0101BD510CE1FD0EDBCFD0
:10120000BEF1FE0EDBCFBFF1FC0EDBCFC2F1010E53
:10121000C36FBD6FE552E7CFD9FF1200D9CFE6FF0C
:10122000E1CFD9FF030EE1260101BD5101E02ED02F
:10123000DF6AFD0EDBCF06F0FE0EDBCF07F0DE52DD
:1012400006C0DEFF07C0DDFFDD52DF2ADF50106E73
:10125000116AFF0E101801E1115001E10BD0010ECF
:10126000DBCFE9FFDB2A020EDBCFEAFF01E3DB2A5B
:10127000EF50EBE1FD0EDBCFBEF1FE0EDBCFBFF199
:10128000DFCFC2F10101010EC36FBD6F030EE15C40
:1012900002E2E16AE552E16EE552E7CFD9FF1200C2
:1012A000D9CFE6FFE1CFD9FF030EE1260101BD5101
:1012B00001E02FD0DF6AFD0EDBCF06F0FE0EDBCFA4
:1012C00007F0DE5206C0DEFF07C0DDFFDD52DF2A79
:1012D000DF50106E116AFF0E101801E1115001E18C
:1012E0000CD0010EDBCFF6FFDB2A020EDBCFF7FFBF
:1012F00001E3DB2A0800F550EAE1FD0EDBCFBEF189
:10130000FE0EDBCFBFF1DFCFC2F10101C36B010ED7
:10131000BD6F030EE15C02E2E16AE552E16EE55267
:10132000E7CFD9FF1200D9CFE6FFE1CFD9FF020EF8
:10133000E1260101C651C71102E1000E08D0C6C165
:10134000E9FFC7C1EAFFEF50800B01E0010E000981
:1013500001E08FD0030EBD5D01E1BD6BBD5101E128
:1013600088D0020EBD5D16E1E66A000EE66EE66A02
:10137000010EE66E030EE66E03EC07F0106E050E2E
:10138000E15E1050F3CFC6F1F4CFC7F10101030EB7
:10139000BD6F5BD0BD0559E1400E106E116AC251A0
:1013A000105C000E115803E2400EDF6E02D0C2C185
:1013B000DFFFDF50C25DC26FA80EC06F000EC16FAD
:1013C000010EDFCFDBFFC35117E1010EDB5013E04D
:1013D000BEC1F6FFBFC1F7FF0800F550C0C1E9FF6D
:1013E000C1C1EAFFEF6EC02B000EC123BE2BBF238D
:1013F000010EDB06EAD715D0010EDB5012E0BEC1AC
:10140000E9FFBFC1EAFFEF50C0C1E9FFC1C1EAFF78
:10141000EF6EC02B000EC123BE2BBF23010EDB06D7
:10142000EBD7C25112E1C6C1E9FFC7C1EAFFEE52D4
:10143000EF50106E116A400E101801E1115003E1D7
:10144000020EBD6F02D0030EBD6FDFCFE6FFA80E08
:10145000E66E000EE66E010EE66E030EE66E03EC1F
:1014600007F0106E050EE15E1050F3CFC6F1F4CF19
:10147000C7F1020EE15C02E2E16AE552E16EE5527B
:06148000E7CFD9FF1200C6
:0A148600DACFE4FFE2CFDAFFE6520E
:10149000E552E5CFDAFF1100D8CFE4FFE0CFE4FF5B
:1014A000E46EDACFE4FFE2CFDAFFE652E552E5CFB1
:1014B000DAFFE550E5CFE0FFE5CFD8FF100005D813
:1014C0006CEC00F0BBD8FCD712000F0EC11216EC6A
:1014D00000F06BEF0AF0D9CFE6FFE1CFD9FFE6527B
:1014E0001CD8DF6ADF50106E116A400E105C000ECF
:1014F000115809E2DF50EA6A000FE96E010EEA2294
:10150000EF6ADF2AEFD70101806B816B836B846BFD
:10151000E552E552E7CFD9FF1200D9CFE6FFE1CF80
:10152000D9FFE652938A939E240EAC6E900EAB6E5A
:10153000670EAF6EB06A080EB86EAE50DF6EE55241
:10154000E552E7CFD9FF1200D9CFE6FFE1CFD9FFAF
:10155000FE0EDB50AD6EE552E7CFD9FF1200D9CFBA
:10156000E6FFE1CFD9FF040EE126D880000E00018E
:101570006055C20E6155010E6255000E635501E2C1
:101580003ED060C0E8F061C0E9F062C0EAF063C03C
:10159000EBF0400E146E420E156E0F0E166E176AAB
:1015A00014C004F015C005F016C006F017C007F00F
:1015B000E8C009F0E9C00AF0EAC00BF0EBC00CF09B
:1015C000E9EC0BF004C010F005C011F006C012F0F9
:1015D00007C013F01006000E115A125A135A10C009
:1015E000DFFF010E11C0DBFF020E12C0DBFF030E96
:1015F00013C0DBFFDF50AF6E010EDB50B06E040E88
:10160000E15C02E2E16AE552E16EE552E7CFD9FF23
:101610001200D9CFE6FFE1CFD9FFE652ABA205D049
:10162000AB98AE50DF6EAB8802D0AE50DF6EDF50AD
:1016300000D0E552E552E7CFD9FF1200200E01019C
:10164000875D03E36D50020B01E05CD00001F951AE
:1016500015E1400EE66E400EE66E010EE66E96EC6B
:1016600008F0E552E552E5520101816F8151000811
:1016700005E20001010EF96F0101826B0001F951D1
:1016800015E0AC50020B12E001018251EA6A400FF2
:10169000E96E010EEA22EF50E66E56DFE5520101D7
:1016A000822B8151825D02E10001F96B9EAA14D068
:1016B000B0DFE66E01018051EA6A000FE96E010EAB
:1016C000EA22E552E750EF6E802B8051EA6A000F64
:1016D000E96E010EEA22EF6A0101BD5111E101013B
:1016E000805100080DE280C1E6FF000EE66E010E9B
:1016F000E66EF7EC08F0E552E552E5520101806B29
:1017000093EC09F0120012001200120012000FEF09
:1017100008F0120062EF08F06D840101080E856F79
:10172000070E866F8507000E865B85518611FAE1EC
:041730006D941200A2
:0C1734001E0EF66E000EF76E000EF86E32
:1017400000010900F550F46F0900F550F56F03E151
:10175000F46701D03DD00900F550EF6F0900F55056
:10176000F06F0900F550F16F09000900F550E96EBE
:101770000900F550EA6E090009000900F550F26F02
:101780000900F550F36F09000900F6CFF6F0F7CF26
:10179000F7F0F8CFF8F0EFC0F6FFF0C0F7FFF1C0B8
:1017A000F8FF0001F25302E1F35307E00900F5509E
:1017B000EE6EF207F8E2F307F9D7F6C0F6FFF7C0CE
:1017C000F7FFF8C0F8FF0001F407000EF55BBFD784
:0217D000120005
:0E17D200036A026A016A006A200EE76ED89070
:1017E000043605360636073600360136023603362D
:1017F0000950005C0A5001580B5002580C50035815
:1018000009E30950005E0A50015A0B50025A0C506D
:0A181000035A042AE72EE4D7120061
:06181A00FE0EE3CFE9FF22
:10182000FF0EE3CFEAFFE9CFF3FFEACFF4FFFB0EB1
:10183000E35003E1FC0EE35009E0FB0EE30602E295
:0E184000FC0EE306FD0EE350EE6EF1D7120033
:02184E0013EE97
:1018500000F023EE00F0F86A0F9C9AEC0BF003EC1A
:0A18600008F05FEC0AF0FBD712005D
:06186A0000EE00F00F0E7D
:08187000EE6AEA62FDD71200E6
:020000040030CA
:0100000000FF
:010001000EF0
:010002003FBE
:010003001EDE
:010005008179
:010006008178
:010008000FE8
:01000900C036
:01000A000FE6
:01000B00E014
:01000C000FE4
:01000D0040B2
:00000001FF
