:020000040000FA
:1000000002002A00000080FB120033B90003020046
:100010002478219000367A1FBA00028007E493A367
:10002000F608DAF912005512000375D0007581BF89
:10003000020008790122486176652061206E6963BB
:1000400065206461792100202050726F746575739A
:100050002056534D001200FB7A2179801201177A45
:100060003279C01201177A647B0012007B79011289
:1000700000BB7A647B0012007B80DD7C3C801E74B8
:10008000FF2CFDEDFCED70F77C3B74FF2CFDEDFCCF
:10009000ED70F77C3CEA24FFFAEB34FFFB74006A56
:1000A000700374006B70D8227580FFC2A2C2A0D208
:1000B000A1D2A200A28740F0C2A222EEC0E0E9FED7
:1000C0001200A8C2A2C2A0C2A18E80D2A200C2A267
:1000D0007A017B0012007BD0E0FE22EEC0E0E9FE58
:1000E0001200A8C2A2D2A0C2A18E80D2A200C2A237
:1000F0007A017B0012007BD0E0FE2279381200BB2F
:10010000790C1200BB79061200BB79011200BB7A90
:10011000017B0012007B22EEC0E0EAFE1200BB80F1
:1001200012EEF8E6F91200DB74012EFE7A647B0011
:0F01300012007BEEF8E6C3940150E6D0E0FE2209
:040000050000002ACD
:00000001FF
