:020000040800F2
:1000000000800120891B0408837201088F72010897
:10001000957201089B720108A5720108000000009A
:10002000000000000000000000000000AB720108AA
:10003000B772010800000000C3720108CF72010806
:10004000CD1B0408CD1B0408CD1B0408A3740108B4
:10005000CD1B0408CD1B0408D9720108F7720108F2
:10006000157301083373010851730108CD1B04088F
:10007000CD1B0408CD1B0408CD1B0408CD1B0408B0
:10008000CD1B0408CD1B0408CD1B04080000000094
:100090000000000000000000000000006F73010875
:1000A000CD1B0408CD1B0408CD1B0408CD1B040880
:1000B000CD1B0408CD1B0408CD1B0408CD1B040870
:1000C000CD1B0408CD1B0408CD1B04087576010860
:1000D0008976010801760108157601080000000004
:1000E000F5730108CD1B0408CD1B040800000000B7
:1000F000000000000000000000000000CD1B04080C
:1001000000000000CD1B0408616701089D7601080E
:1001100000000000000000000000000000000000DF
:10012000CD1B0408CD1B0408CD1B0408CD1B0408FF
:10013000CD1B0408000000000000000000000000CB
:10014000000000000000000000000000CD1B0408BB
:10015000CD1B0408CD1B0408CD1B0408297601081B
:10016000CD1B0408CD1B04080000000000000000A7
:10017000000000000000000000000000000000007F
:1001800000000000CD1B040800000000000000007B
:04019000CD1B040877
:08019400B40A000001000000A4
:1001A00081F0004102E000BF83F0004330B54FEA28
:1001B00041044FEA430594EA050F08BF90EA020F95
:1001C0001FBF54EA000C55EA020C7FEA645C7FEA28
:1001D000655C00F0E2804FEA5454D4EB5555B8BF4B
:1001E0006D420CDD2C4480EA020281EA030382EABC
:1001F000000083EA010180EA020281EA0303362D4E
:1002000088BF30BD11F0004F4FEA01314FF4801C20
:100210004CEA113102D0404261EB410113F0004F32
:100220004FEA03334CEA133302D0524263EB4303E9
:1002300094EA050F00F0A780A4F10104D5F1200E87
:100240000DDB02FA0EFC22FA05F2801841F10001E2
:1002500003FA0EF2801843FA05F359410EE0A5F1B6
:1002600020050EF1200E012A03FA0EFC28BF4CF0E7
:10027000020C43FA05F3C01851EBE37101F000459D
:1002800007D54FF0000EDCF1000C7EEB00006EEBAA
:100290000101B1F5801F1BD3B1F5001F0CD3490834
:1002A0005FEA30004FEA3C0C04F101044FEA44528B
:1002B00012F5800F80F09A80BCF1004F08BF5FEA12
:1002C000500C50F1000041EB045141EA050130BDF2
:1002D0005FEA4C0C404141EB010111F4801FA4F195
:1002E0000104E9D191F0000F04BF01460020B1FAEA
:1002F00081F308BF2033A3F10B03B3F120020CDA22
:100300000C3208DD02F1140CC2F10C0201FA0CF0FF
:1003100021FA02F10CE002F11402D8BFC2F1200C64
:1003200001FA02F120FA0CFCDCBF41EA0C0190401A
:10033000E41AA2BF01EB0451294330BD6FEA040463
:100340001F3C1CDA0C340EDC04F11404C4F120024E
:1003500020FA04F001FA02F340EA030021FA04F360
:1003600045EA030130BDC4F10C04C4F1200220FAB7
:1003700002F001FA04F340EA0300294630BD21FAF5
:1003800004F0294630BD94F0000F83F4801306BFBB
:1003900081F480110134013D4EE77FEA645C18BFAF
:1003A0007FEA655C29D094EA050F08BF90EA020F46
:1003B00005D054EA000C04BF1946104630BD91EA3E
:1003C000030F1EBF0021002030BD5FEA545C05D141
:1003D0004000494128BF41F0004130BD14F5800480
:1003E0003CBF01F5801130BD01F0004545F0FE41F4
:1003F00041F470014FF0000030BD7FEA645C1ABF29
:10040000194610467FEA655C1CBF0B46024650EA5F
:10041000013406BF52EA033591EA030F41F400218B
:1004200030BD00BF90F0000F04BF0021704730B511
:100430004FF4806404F132044FF000054FF00001E6
:1004400050E700BF90F0000F04BF0021704730B5A7
:100450004FF4806404F1320410F0004548BF40427C
:100460004FF000013EE700BF42004FEAE2014FEAD1
:1004700031014FEA02701FBF12F07F4393F07F4FAC
:1004800081F06051704792F0000F14BF93F07F4FDE
:10049000704730B54FF4607401F0004521F0004121
:1004A00020E700BF50EA010208BF704730B54FF0A7
:1004B00000050AE050EA010208BF704730B511F0AC
:1004C000004502D5404261EB41014FF4806404F1E4
:1004D00032045FEA915C3FF4DCAE4FF003025FEA66
:1004E000DC0C18BF03325FEADC0C18BF033202EBEE
:1004F000DC02C2F1200300FA03FC20FA02F001FA48
:1005000003FE40EA0E0021FA02F11444C1E600BFE6
:1005100070B54FF0FF0C4CF4E06C1CEA11541DBF99
:100520001CEA135594EA0C0F95EA0C0F00F0DEF864
:100530002C4481EA030621EA4C5123EA4C5350EA49
:10054000013518BF52EA033541F4801143F480139A
:1005500038D0A0FB02CE4FF00005E1FB02E506F02B
:100560000042E0FB03E54FF00006E1FB03569CF080
:10057000000F18BF4EF0010EA4F1FF04B6F5007F86
:1005800064F5407404D25FEA4E0E6D4146EB0606F8
:1005900042EAC62141EA55514FEAC52040EA5E5081
:1005A0004FEACE2EB4F1FD0C88BFBCF5E06F1ED82B
:1005B000BEF1004F08BF5FEA500E50F1000041EB62
:1005C000045170BD06F0004646EA010140EA02000F
:1005D00081EA0301B4EB5C04C2BFD4EB0C0541EA31
:1005E000045170BD41F480114FF0000E013C00F346
:1005F000AB8014F1360FDEBF002001F0004170BD6A
:10060000C4F10004203C35DA0C341BDC04F1140482
:10061000C4F1200500FA05F320FA04F001FA05F20E
:1006200040EA020001F0004221F0004110EBD370DB
:1006300021FA04F642EB06015EEA430E08BF20EA07
:10064000D37070BDC4F10C04C4F1200500FA04F3AA
:1006500020FA05F001FA04F240EA020001F000413C
:1006600010EBD37041F100015EEA430E08BF20EAAF
:10067000D37070BDC4F1200500FA05F24EEA020EF7
:1006800020FA04F301FA05F243EA020321FA04F026
:1006900001F0004121FA04F220EA020000EBD370DD
:1006A0005EEA430E08BF20EAD37070BD94F0000FDD
:1006B0000FD101F00046400041EB010111F4801F11
:1006C00008BF013CF7D041EA060195F0000F18BFC2
:1006D000704703F00046520043EB030313F4801FFE
:1006E00008BF013DF7D043EA0603704794EA0C0FB8
:1006F0000CEA135518BF95EA0C0F0CD050EA4106CE
:1007000018BF52EA4306D1D181EA030101F000414A
:100710004FF0000070BD50EA410606BF1046194672
:1007200052EA430619D094EA0C0F02D150EA01367E
:1007300013D195EA0C0F05D152EA03361CBF1046BF
:1007400019460AD181EA030101F0004141F0FE415E
:1007500041F470014FF0000070BD41F0FE4141F4E2
:10076000780170BD70B54FF0FF0C4CF4E06C1CEAE2
:1007700011541DBF1CEA135594EA0C0F95EA0C0F97
:1007800000F0A7F8A4EB050481EA030E52EA033552
:100790004FEA013100F088804FEA03334FF0805573
:1007A00045EA131343EA12634FEA022245EA1115A0
:1007B00045EA10654FEA00260EF000419D4208BF51
:1007C000964244F1FD0404F5407402D25B084FEAFE
:1007D0003202B61A65EB03055B084FEA32024FF4AA
:1007E00080104FF4002CB6EB020E75EB030E22BF07
:1007F000B61A754640EA0C005B084FEA3202B6EBC7
:10080000020E75EB030E22BFB61A754640EA5C0075
:100810005B084FEA3202B6EB020E75EB030E22BF05
:10082000B61A754640EA9C005B084FEA3202B6EB06
:10083000020E75EB030E22BFB61A754640EADC00C5
:1008400055EA060E18D04FEA051545EA16754FEA27
:1008500006164FEAC30343EA52734FEAC2025FEA45
:100860001C1CC0D111F4801F0BD141EA00014FF0D4
:1008700000004FF0004CB6E711F4801F04BF0143A5
:100880000020B4F1FD0C88BFBCF5E06F3FF6AFAEC1
:10089000B5EB030C04BFB6EB020C5FEA500C50F151
:1008A000000041EB045170BD0EF0004E4EEA1131D4
:1008B00014EB5C04C2BFD4EB0C0541EA045170BDDB
:1008C00041F480114FF0000E013C90E645EA060E1F
:1008D0008DE60CEA135594EA0C0F08BF95EA0C0F4D
:1008E0003FF43BAF94EA0C0F0AD150EA01347FF495
:1008F00034AF95EA0C0F7FF425AF104619462CE76C
:1009000095EA0C0F06D152EA03353FF4FDAE1046CE
:10091000194622E750EA410618BF52EA43067FF41F
:10092000C5AE50EA41047FF40DAF52EA43057FF4AF
:10093000EBAE12E74FF0FF3C06E000BF4FF0010CBA
:1009400002E000BF4FF0010C4DF804CD4FEA410C1E
:100950007FEA6C5C4FEA430C18BF7FEA6C5C1BD0EB
:1009600001B050EA410C0CBF52EA430C91EA030F6C
:1009700002BF90EA020F0020704710F1000F91EAC9
:10098000030F58BF994208BF90422CBFD8176FEA97
:10099000E37040F0010070474FEA410C7FEA6C5C65
:1009A00002D150EA013C07D14FEA430C7FEA6C5C6C
:1009B000D6D152EA033CD3D05DF8040B704700BF98
:1009C0008446104662468C461946634600E000BFE6
:1009D00001B5FFF7B7FF002848BF10F1000F01BDB8
:1009E0004DF808EDFFF7F4FF0CBF012000205DF883
:1009F00008FB00BF4DF808EDFFF7EAFF34BF012008
:100A000000205DF808FB00BF4DF808EDFFF7E0FFA0
:100A100094BF012000205DF808FB00BF4DF808EDF1
:100A2000FFF7CEFF94BF012000205DF808FB00BF58
:100A30004DF808EDFFF7C4FF34BF012000205DF83A
:100A400008FB00BF4FEA410C7FEA6C5C02D150EA20
:100A5000013C0AD14FEA430C7FEA6C5C02D152EAB6
:100A6000033C02D14FF0000070474FF00100704787
:100A70004FEA410212F5001215D211D56FF47873C6
:100A8000B3EB625212D94FEAC12343F0004343EA69
:100A9000505311F0004F23FA02F018BF4042704744
:100AA0004FF00000704750EA013005D111F00040CE
:100AB00008BF6FF0004070474FF00000704700BF64
:100AC0004A0011D212F5001211D20DD56FF47873CD
:100AD000B3EB62520ED44FEAC12343F0004343EA22
:100AE000505323FA02F070474FF00000704750EA6D
:100AF000013002D14FF0FF3070474FF000007047D7
:100B00004FEA4102B2F1E04324BFB3F5001CDCF12F
:100B1000FE5C0DD901F0004C4FEAC0024CEA507067
:100B2000B2F1004F40EB830008BF20F00100704796
:100B300011F0804F21D113F13872BCBF01F0004099
:100B4000704741F480114FEA5252C2F11802C2F1CB
:100B5000200C10FA0CF320FA02F018BF40F001004C
:100B60004FEAC1234FEAD32303FA0CFC40EA0C00FE
:100B700023FA02F34FEA4303CCE77FEA625307D13B
:100B800050EA01331EBF4FF0FE4040F44000704772
:100B900001F0004040F0FE4040F40000704700BF0C
:100BA00053B94AB9002908BF00281CBF4FF0FF31D4
:100BB0004FF0FF3000F0B6B9ADF1080C6DE904CE8E
:100BC00000F042F8DDF804E0DDE9022304B07047EC
:100BD00038B50022002304460D46FFF70BFF28B965
:100BE00020462946BDE8384000F00AB8204605F105
:100BF000004100F005F8404261EB410138BD00BF03
:100C0000D0B500220E4B06460F46FFF781FCFFF7DA
:100C100057FF0446FFF706FC00220A4BFFF778FC5B
:100C200002460B4630463946FFF7BEFAFFF748FF4B
:100C30002346002242EA000210461946D0BD00BFFA
:100C40000000F03D0000F0412DE9F0478C460D46D4
:100C50000446089E002B51D18A4217466DD9B2FA3C
:100C600082FEBEF1000F0BD0CEF1200C01FA0EF582
:100C700020FA0CFC02FA0EF74CEA050C00FA0EF40E
:100C80004FEA174A250CBCFBFAF81FFA87F90AFB52
:100C900018CC45EA0C4508FB09F3AB420AD9ED191B
:100CA00008F1FF3280F02381AB4240F22081A8F1AD
:100CB00002083D44ED1AA4B2B5FBFAF00AFB105548
:100CC00044EA054400FB09F9A14509D9E41900F1FA
:100CD000FF3380F00A81A14540F2078102383C448D
:100CE000A4EB090440EA08400021002E61D024FA58
:100CF0000EF4002334607360BDE8F0878B4207D99F
:100D0000002E54D0002186E821000846BDE8F08777
:100D1000B3FA83F1002940F08E80AB4202D38242C5
:100D200000F2FA80841A65EB03050120AC46002E20
:100D30003FD086E81010BDE8F08712B90127B7FB55
:100D4000F2F7B7FA87FEBEF1000F34D1EB1B3A0C75
:100D50001FFA87FC0121B3FBF2F8250C02FB1833C4
:100D600045EA03450CFB08F3AB4207D9ED1908F13E
:100D7000FF3002D2AB4200F2D1808046ED1AA3B21E
:100D8000B5FBF2F002FB105543EA05440CFB00FCF6
:100D9000A44507D9E41900F1FF3302D2A44500F2BB
:100DA000B8801846A4EB0C0440EA08409DE73146A1
:100DB0003046BDE8F087CEF1200405FA0EF307FABD
:100DC0000EF720FA04F83A0C25FA04F448EA03086E
:100DD000B4FBF2F14FEA184502FB11441FFA87FCFD
:100DE00045EA044501FB0CF3AB4200FA0EF409D9C5
:100DF000ED1901F1FF3080F08A80AB4240F287802C
:100E000002393D44EB1A1FFA88F5B3FBF2F002FBFE
:100E1000103345EA034500FB0CF3AB4207D9ED194B
:100E200000F1FF386FD2AB426DD902383D44EB1A66
:100E300040EA01418FE7C1F1200722FA07F88B4011
:100E400005FA01F448EA030320FA07FE4FEA134CBF
:100E5000FD404EEA040EB5FBFCF94FEA1E440CFBC4
:100E600019551FFA83F844EA054509FB08F4AC421A
:100E700002FA01F200FA01FA08D9ED1809F1FF307F
:100E800043D2AC4241D9A9F102091D442D1B1FFADE
:100E90008EFEB5FBFCF00CFB10554EEA054400FB42
:100EA00008F8A04507D9E41800F1FF3529D2A0457C
:100EB00027D902381C4440EA0940A4EB0804A0FBEF
:100EC00002894C45C6464D4615D312D056B1BAEBF1
:100ED0000E0364EB050404FA07F7CB401F43CC4034
:100EE000376074600021BDE8F0871846F8E6904648
:100EF000E0E6C245EAD2B8EB020E69EB0305013821
:100F0000E4E72846D7E7404691E78146BEE7014639
:100F100078E702383C4445E7084608E7A8F10208AC
:100F20003D442BE7704700BF10F8012B11F8013B3F
:100F3000012A28BF9A42F7D0D01A7047034613F807
:100F4000012B002AFBD1181A0138704702440346CE
:100F5000934200D1704703F8011BF9E780B483B0D6
:100F600000AF786008497B689BB243F08003DA43A6
:100F7000054BDB6803F080031343CB600C37BD46A1
:100F80005DF8047B704700BF0028004080B487B044
:100F900000AF78600023FB7500233B610023FB60FA
:100FA000134B1B6C03F004033B61114B9A687B6885
:100FB0001A407B68D90B3B690B401343FB600C4B19
:100FC000DA687B681B0913403B61FB68002B06D085
:100FD0003B699BB2002B02D00123FB7501E000238B
:100FE000FB75FB7D18461C37BD465DF8047B7047DA
:100FF0000028004080B485B000AF78600023FB601B
:101000007B681B09FB600849FB689BB243F08003C7
:10101000DA43054BDB6803F080031343CB601437DE
:10102000BD465DF8047B70470028004080B485B061
:1010300000AF786039600023FB817B681B68FB810F
:10104000FB8903F44153FB813B681A883B685B884A
:1010500013439AB23B689B8813439AB23B68DB8880
:1010600013439AB23B681B8913439AB23B685B896E
:1010700013439AB23B689B8913439AB23B68DB895E
:1010800013439AB2FB891343FB81FA897B681A6088
:101090007B68DA694FF2FF7313407A68D3613B686B
:1010A0001B8A1A467B681A611437BD465DF8047BBB
:1010B000704780B483B000AF78600B46FB70FB785C
:1010C000002B06D07B681B6843F040027B681A60E7
:1010D00006E07B681A684FF6BF7313407A681360A6
:1010E0000C37BD465DF8047B704780B483B000AF19
:1010F00078600B467B807B681A684FF2FF73134061
:101100007A6813607B681A687B881A437B681A6068
:101110000C37BD465DF8047B704780B483B000AFE8
:1011200078607B68DB689BB218460C37BD465DF87B
:10113000047B704780B483B000AF78600B467B803F
:101140007A887B68DA600C37BD465DF8047B7047AF
:1011500080B485B000AF78600B46FB701346BB705F
:101160000023FB810023BB81FB781B09DBB2FB81E1
:10117000FB89012202FA03F3BB81BB78002B06D066
:101180007B685A68BB891A437B685A6007E07B68B2
:101190005B68BA89D24392B21A407B685A601437AE
:1011A000BD465DF8047B704780B485B000AF7860C1
:1011B0000B467B800023FB737B689A687B88134017
:1011C000002B02D00123FB7301E00023FB73FB7BA8
:1011D00018461437BD465DF8047B704780B485B06F
:1011E00000AF78600B46FB700023FB730023BB81CC
:1011F00000237B8100233B81FB7803F00F03012256
:1012000002FA03F3BB81FB781B09DBB27B817B898C
:10121000012202FA03F37B817B685B689AB27B89C7
:1012200013403B817B689A68BB891340002B05D033
:101230003B89002B02D00123FB7301E00023FB73E9
:10124000FB7B18461437BD465DF8047B70470000F1
:1012500090B484B000AF03460A46FB711346BB71DD
:101260000023FB60BB7903F003039B000F2202FA0B
:1012700003F3FB601649BB799B08DBB21846144A9E
:10128000BB799B08DBB2023352F82320FB68DB43B7
:101290001A40831C41F823200D48BB799B08DBB220
:1012A0001C460B4ABB799B08DBB2023352F8232061
:1012B000F979BB7903F003039B0001FA03F31A43A6
:1012C000A31C40F823201037BD4690BC704700BFD8
:1012D0000038014080B485B000AF786039600023E9
:1012E000FB817B681B68FB817B681C4A93420FD0A3
:1012F0007B68B3F1804F0BD07B68194A934207D0CB
:101300007B68184A934203D07B68174A934208D1FE
:10131000FB8923F07003FB813B685A88FB891343E8
:10132000FB81FA897B681A603B685A687B68DA62DD
:101330003B681B881A467B689A627B68074A93421F
:1013400004D13B689B7A1A467B681A637B6801224A
:101350005A611437BD465DF8047B704700000140B8
:101360000004004000080040000C004080B483B03E
:1013700000AF78607B684FF0FF325A607B680022D4
:101380001A807B6800221A817B6800225A807B6861
:1013900000229A720C37BD465DF8047B704780B41A
:1013A00083B000AF78600B467B8013463B807A8821
:1013B0007B689A623A887B685A610C37BD465DF853
:1013C000047B704780B483B000AF786039607B687D
:1013D0003A68DA620C37BD465DF8047B704780B42A
:1013E00083B000AF78600B46FB70FB78002B06D013
:1013F0007B681B6843F080027B681A6006E07B68AC
:101400001A684FF67F7313407A6813600C37BD4635
:101410005DF8047B704780B483B000AF78600B4602
:10142000FB70FB78002B06D07B681B6843F0010241
:101430007B681A6006E07B681A684FF6FE731340FB
:101440007A6813600C37BD465DF8047B7047000076
:1014500080B485B000AF7860396000237B810023C1
:10146000FB810023BB817B681A6A4FF6FE73134031
:101470007A6813627B681B6AFB817B685B68BB814F
:101480007B689B697B817B8923F070037B817B89EF
:1014900023F003037B813B681A887B8913437B819C
:1014A000FB8923F00203FB813B689A89FB89134384
:1014B000FB813B685A88FB891343FB817B681C4A8C
:1014C000934223D1FB8923F00803FB813B68DA892F
:1014D000FB891343FB81FB8923F00403FB813B68F9
:1014E0009A88FB891343FB81BB8923F48073BB81FA
:1014F000BB8923F40073BB813B681A8ABB89134301
:10150000BB813B685A8ABB891343BB81BA897B681C
:101510005A607A897B689A613B689A687B685A63EB
:10152000FA897B681A621437BD465DF8047B704700
:101530000000014080B485B000AF786039600023BE
:101540007B810023FB810023BB817B681A6A4FF6F5
:10155000EF7313407A6813627B681B6AFB817B68B8
:101560005B68BB817B689B697B817B8923F4E0435B
:101570007B817B8923F440737B813B681B881B0242
:101580009AB27B8913437B81FB8923F02003FB8183
:101590003B689B891B019AB2FB891343FB813B6823
:1015A0005B881B019AB2FB891343FB817B68204A4D
:1015B00093422BD1FB8923F08003FB813B68DB89BD
:1015C0001B019AB2FB891343FB81FB8923F0400383
:1015D000FB813B689B881B019AB2FB891343FB810B
:1015E000BB8923F48063BB81BB8923F40063BB8187
:1015F0003B681B8A9B009AB2BB891343BB813B6843
:101600005B8A9B009AB2BB891343BB81BA897B6812
:101610005A607A897B689A613B689A687B689A63AA
:10162000FA897B681A621437BD465DF8047B7047FF
:101630000000014080B485B000AF786039600023BD
:101640007B810023FB810023BB817B681A6A4FF6F4
:10165000FF6313407A6813627B681B6AFB817B68B7
:101660005B68BB817B68DB697B817B8923F07003CE
:101670007B817B8923F003037B813B681A887B890C
:1016800013437B81FB8923F40073FB813B689B89B7
:101690001B029AB2FB891343FB813B685B881B02E8
:1016A0009AB2FB891343FB817B68204A93422BD17A
:1016B000FB8923F40063FB813B68DB891B029AB240
:1016C000FB891343FB81FB8923F48063FB813B6827
:1016D0009B881B029AB2FB891343FB81BB8923F4CD
:1016E0008053BB81BB8923F40053BB813B681B8AB9
:1016F0001B019AB2BB891343BB813B685B8A1B0108
:101700009AB2BB891343BB81BA897B685A607A89D4
:101710007B68DA613B689A687B68DA63FA897B6880
:101720001A621437BD465DF8047B70470000014023
:1017300080B485B000AF786039600023BB8100239E
:101740007B810023FB817B681A6A4EF6FF7313408E
:101750007A6813627B681B6A7B817B685B68FB81AC
:101760007B68DB69BB81BB8923F4E043BB81BB8918
:1017700023F44073BB813B681B881B029AB2BB8970
:101780001343BB817B8923F400537B813B689B8996
:101790001B039AB27B8913437B813B685B881B03E5
:1017A0009AB27B8913437B817B68104A93420AD1AA
:1017B000FB8923F48043FB813B681B8A9B019AB21F
:1017C000FB891343FB81FA897B685A60BA897B687D
:1017D000DA613B689A687B681A647A897B681A6266
:1017E0001437BD465DF8047B704700BF0000014020
:1017F00080B483B000AF78607B6800221A807B6879
:1018000000225A807B6800229A807B6800229A60BE
:101810007B6800229A817B680022DA817B68002243
:101820001A827B6800225A820C37BD465DF8047B21
:10183000704780B483B000AF786039607B683A68E5
:101840005A630C37BD465DF8047B704780B483B0A3
:1018500000AF786039607B683A689A630C37BD46A0
:101860005DF8047B704780B483B000AF7860396066
:101870007B683A68DA630C37BD465DF8047B7047D5
:1018800080B483B000AF786039607B683A681A64CE
:101890000C37BD465DF8047B704780B485B000AF5F
:1018A00078600B467B800023FB817B689B69FB8112
:1018B000FB8923F00803FB81FA897B881343FB81B2
:1018C000FA897B689A611437BD465DF8047B7047DE
:1018D00080B485B000AF78600B467B800023FB812D
:1018E0007B689B69FB81FB8923F40063FB817B8818
:1018F0001B029AB2FB891343FB81FA897B689A61C8
:101900001437BD465DF8047B704780B485B000AFE6
:1019100078600B467B800023FB817B68DB69FB8161
:10192000FB8923F00803FB81FA897B881343FB8141
:10193000FA897B68DA611437BD465DF8047B70472D
:1019400080B485B000AF78600B467B800023FB81BC
:101950007B68DB69FB81FB8923F40063FB817B8867
:101960001B029AB2FB891343FB81FA897B68DA6117
:101970001437BD465DF8047B704780B483B000AF78
:1019800078600B46FB70FB78002B06D07B685B6CA5
:1019900043F400427B685A6405E07B685B6CC3F3E8
:1019A0000E027B685A640C37BD465DF8047B7047B5
:1019B00080B483B000AF78600B467B8013467B70A9
:1019C0007B78002B06D07B68DA687B881A437B68BB
:1019D000DA6007E07B68DB687A88D24392B21A400B
:1019E0007B68DA600C37BD465DF8047B704780B4D5
:1019F00085B000AF78600B467B800023FB7300232B
:101A0000BB8100237B817B681B699AB27B88134072
:101A1000BB817B68DB689AB27B8813407B81BB8982
:101A2000002B05D07B89002B02D00123FB7301E042
:101A30000023FB73FB7B18461437BD465DF8047B1F
:101A4000704780B483B000AF78600B467B807B88A2
:101A5000DB439BB21A467B681A610C37BD465DF8C2
:101A6000047B704780B58AB000AF7860396000238E
:101A70007B6200233B620023FB610023BB617B6828
:101A80001B697B627B6A23F440537B623B68DB8883
:101A90001A467B6A13437B627B6A9BB21A467B6859
:101AA0001A617B68DB687B627B6A23F4B05323F0A6
:101AB0000C037B623B689A883B681B8913439AB28C
:101AC0003B685B8913439BB21A467B6A13437B6274
:101AD0007B6A9BB21A467B68DA607B685B697B62D3
:101AE0007B6A23F440737B623B689B891A467B6A5E
:101AF00013437B627B6A9BB21A467B685A6107F18B
:101B00000803184600F0D8FC7B68304A934203D0A3
:101B10007B682F4A934202D17B693B6201E03B69BB
:101B20003B627B68DB6803F40043002B0CD03A6A0D
:101B300013469B0013449A001A443B681B685B00E1
:101B4000B2FBF3F3FB610BE03A6A13469B001344CC
:101B50009A001A443B681B689B00B2FBF3F3FB61DD
:101B6000FB691C4AA2FB03235B091B017B627B6AA6
:101B70001B09642202FB03F3FA69D31ABB617B6879
:101B8000DB6803F40043002B0CD0BB69DB0032336D
:101B9000104AA2FB03235B0903F007037A6A13438D
:101BA0007B620BE0BB691B0132330A4AA2FB0323B1
:101BB0005B0903F00F037A6A13437B627B6A9BB273
:101BC0001A467B689A602837BD4680BD00100140E8
:101BD000001401401F85EB5180B485B000AF7860E0
:101BE00039600023FB607B681B69FB60FB6823F4A2
:101BF0007063FB603B681A883B685B8813439AB24A
:101C00003B689B8813439AB23B68DB8813439BB2C3
:101C10001A46FB681343FB60FB689BB21A467B685D
:101C20001A611437BD465DF8047B704780B483B0F9
:101C300000AF78607B6800221A807B6800225A809F
:101C40007B6800229A807B680022DA800C37BD46D0
:101C50005DF8047B704780B483B000AF78600B46BA
:101C6000FB70FB78002B06D07B68DB6843F40052E6
:101C70007B68DA6006E07B68DA684DF6FF73134034
:101C80007A68D3600C37BD465DF8047B704780B43A
:101C900083B000AF78600B467B807B88C3F308027B
:101CA0007B685A600C37BD465DF8047B704780B492
:101CB00083B000AF78607B685B689BB2C3F30803B6
:101CC0009BB218460C37BD465DF8047B704780B464
:101CD00087B000AF78600B467B8013467B70002393
:101CE0003B610023FB600023BB6000237B617B68BA
:101CF0007B617B88DBB25B09DBB23B617B8803F0F5
:101D00001F03FB600122FB6802FA03F3BB603B691F
:101D1000012B03D17B690C337B6109E03B69022B0A
:101D200003D17B6910337B6102E07B6914337B61F3
:101D30007B78002B06D07B697A691168BA680A4300
:101D40001A6006E07B697A691168BA68D2430A4072
:101D50001A601C37BD465DF8047B704780B485B0BF
:101D600000AF78600B467B800023FB737B681A68AA
:101D70007B881340002B02D00123FB7301E000237A
:101D8000FB73FB7B18461437BD465DF8047B704738
:101D900080B487B000AF78600B467B800023FB6087
:101DA00000237B610023BB600023FB747B88DBB2D4
:101DB0005B09DBB2BB607B8803F01F037B61012200
:101DC0007B6902FA03F37B61BB68012B05D17B6859
:101DD000DB687A6913407B610DE0BB68022B05D19B
:101DE0007B681B697A6913407B6104E07B685B69EF
:101DF0007A6913407B617B881B0A9BB2FB600122DE
:101E0000FB6802FA03F3FB607B681B68FA68134007
:101E1000FB607B69002B05D0FB68002B02D00123FF
:101E2000FB7401E00023FB74FB7C18461C37BD46A5
:101E30005DF8047B704780B485B000AF78600B46D6
:101E40007B800023FB810023BB817B881B0AFB81F5
:101E5000FB89012202FA03F3BB81BB89DB439BB2FE
:101E60001A467B681A601437BD465DF8047B7047DC
:101E700080B500AF154A154BD3F8883043F4700392
:101E8000C2F88830124A124B1B6843F001031360FA
:101E90000F4B00229A600E4A0D4B1B6823F084738F
:101EA00023F4803313600A4B0A4A5A60084A084BED
:101EB0001B6823F480231360054B0022DA6000F0D6
:101EC00085F8024B4FF000629A6080BD00ED00E0A3
:101ED000003802401030002480B487B000AF0023E7
:101EE0003B6100237B610223FB600023BB60022374
:101EF0007B60314B9B6803F00C033B613B69042B17
:101F000007D0082B09D0002B3DD12C4B2C4A1A604E
:101F10003CE02A4B2B4A1A6038E0274B5B689B0D4C
:101F200003F00103BB60244B5B6803F03F037B605D
:101F3000BB68002B0CD0234A7B68B2FBF3F31E4A2C
:101F400052689209C2F3080202FB03F37B610BE0C3
:101F50001B4A7B68B2FBF3F3174A52689209C2F33B
:101F6000080202FB03F37B61134B5B681B0C03F05D
:101F7000030301335B00FB607A69FB68B2FBF3F398
:101F80000E4A136002E00D4B0D4A1A600A4B9B6823
:101F90001B0903F00F030C4AD35CDBB23B61074B18
:101FA0001A683B6922FA03F3044A13601C37BD46E2
:101FB0005DF8047B704700BF003802402801002014
:101FC0000024F40000127A002C01002080B483B0B9
:101FD00000AF00237B6000233B60334A324B1B6819
:101FE00043F480331360304B1B6803F400333B60D1
:101FF0007B6801337B603B68002B03D17B68B3F5C2
:10200000A04FF0D1284B1B6803F40033002B02D003
:1020100001233B6001E000233B603B68012B3ED184
:10202000214A214B1B6C43F0805313641F4A1F4B02
:102030001B6843F4404313601B4A1B4B9B6893602F
:10204000194A194B9B689360174A174B9B6843F4D6
:1020500080539360144B164A5A60134A124B1B6804
:1020600043F080731360104B1B6803F00073002B68
:10207000F9D0104B40F202621A600B4A0A4B9B687F
:1020800023F003039360084A074B9B6843F0020365
:102090009360054B9B6803F00C03082BF9D10C37B8
:1020A000BD465DF8047B7047003802400070004078
:1020B00008544107003C024080B483B000AF786010
:1020C0007B6841F288321A607B6800229A807B68C4
:1020D0004BF6FF72DA807B6800221A817B6800224F
:1020E0005A817B684FF480429A810C37BD465DF877
:1020F000047B704780B483B000AF78600B46FB7000
:10210000FB78002B06D07B681B6843F001027B68DC
:102110001A6006E07B681A684FF6FE7313407A680F
:1021200013600C37BD465DF8047B704780B483B004
:1021300000AF78600B46FB70FB78002B06D07B6805
:102140001B6843F480727B681A6006E07B681A683B
:102150004FF6FF6313407A6813600C37BD465DF895
:10216000047B704780B483B000AF78600B46FB708F
:10217000FB78002B06D07B681B6843F400727B68F9
:102180001A6006E07B681A684FF6FF5313407A68BE
:1021900013600C37BD465DF8047B704780B483B094
:1021A00000AF78600B46FB701346BB70BB78002B0A
:1021B00004D0FB7843F00103FB7003E0FB7823F0CD
:1021C0000103FB70FA787B681A610C37BD465DF835
:1021D000047B704780B483B000AF78600B46FB701F
:1021E000FB78002B06D07B681B6843F480627B6819
:1021F0001A6006E07B681A684FF6FF3313407A686E
:1022000013600C37BD465DF8047B704780B483B023
:1022100000AF78600B46FB70FA787B681A610C3768
:10222000BD465DF8047B704780B483B000AF786032
:102230007B681B69DBB218460C37BD465DF8047B32
:10224000704780B487B000AF7860396000233B618D
:102250000023FB600023BB600023FB757B685B6988
:10226000FB607B689B69BB60BB681B04BB60FA6852
:10227000BB68134323F07F433B613A693B681A40D4
:102280003B689A4202D10123FB7501E00023FB75F4
:10229000FB7D18461C37BD465DF8047B704780B453
:1022A00087B000AF786039600023FB7500233B6185
:1022B0000023FB607B68FB603B681B0F3B613B6856
:1022C00023F07F433B603B69002B03D0FB68143352
:1022D000FB6005E03B681B0C3B60FB681833FB6050
:1022E000FB681A683B681340002B02D00123FB7582
:1022F00001E00023FB75FB7D18461C37BD465DF8E9
:10230000047B704780B483B000AF0346FB80044A6F
:10231000FB8813600C37BD465DF8047B704700BF37
:102320000030004080B483B000AF0346FB71044A24
:10233000FB7953600C37BD465DF8047B704700BFE6
:102340000030004080B483B000AF0346FB80044AF5
:10235000FB8893600C37BD465DF8047B704700BF77
:102360000030004080B400AF034B4AF6AA221A6046
:10237000BD465DF8047B70470030004080B400AF7C
:10238000034B4CF6CC421A60BD465DF8047B7047A7
:102390000030004080B483B000AF0346FB71044AB4
:1023A000FB7913600C37BD465DF8047B704700BFB6
:1023B000800E474280B485B000AFF860B9607A60A3
:1023C0003B600A497B689A01BB681A433B685B081B
:1023D000013B1B041A43FB681A43BB691B061343EA
:1023E0004B601437BD465DF8047B704700380240EF
:1023F00080B483B000AF0346FB71044AFB791360DD
:102400000C37BD465DF8047B704700BF6000474253
:1024100080B485B000AF78600023FB60094B9B68F7
:10242000FB60FB6823F00303FB60FA687B681343DF
:10243000FB60044AFB6893601437BD465DF8047B7B
:10244000704700BF0038024080B485B000AF7860AC
:102450000023FB60094B9B68FB60FB6823F4E0539F
:10246000FB60FA687B681343FB60044AFB68936077
:102470001437BD465DF8047B704700BF003802404A
:1024800080B485B000AF78600023FB60094B9B6887
:10249000FB60FB6823F46043FB607B68DB00FA6849
:1024A0001343FB60034AFB6893601437BD465DF835
:1024B000047B70470038024080B489B000AF786078
:1024C0000023BB6100237B610023FB6102233B618E
:1024D0000023FB600223BB60464B9B6803F00C03A8
:1024E000BB61BB69042B07D0082B09D0002B3DD161
:1024F0007B68414A1A603CE07B68404A1A6038E0D9
:102500003C4B5B689B0D03F00103FB60394B5B6840
:1025100003F03F03BB60FB68002B0CD0374ABB685D
:10252000B2FBF3F3334A52689209C2F3080202FB8A
:1025300003F3FB610BE0304ABB68B2FBF3F32D4AB7
:1025400052689209C2F3080202FB03F3FB61294BB4
:102550005B681B0C03F0030301335B003B61FA690A
:102560003B69B2FBF3F27B681A6002E07B68224AA7
:102570001A60204B9B6803F0F003BB61BB691B0929
:10258000BB611F4ABB6913441B78DBB27B617B686C
:102590001A687B69DA407B685A60164B9B6803F4C3
:1025A000E053BB61BB699B0ABB61154ABB6913441D
:1025B0001B78DBB27B617B685A687B69DA407B6899
:1025C0009A600C4B9B6803F46043BB61BB695B0B77
:1025D000BB610B4ABB6913441B78DBB27B617B6830
:1025E0005A687B69DA407B68DA602437BD465DF85B
:1025F000047B7047003802400024F40000127A0087
:102600001801002080B483B000AF78600B46FB70E7
:10261000FB78002B06D00949084B1A6B7B681343E3
:102620000B6306E00549054B1A6B7B68DB431340DF
:102630000B630C37BD465DF8047B704700380240E1
:1026400080B483B000AF78600B46FB70FB78002B42
:1026500006D00949084B1A6C7B6813430B6406E0EB
:102660000549054B1A6C7B68DB4313400B640C3740
:10267000BD465DF8047B70470038024080B483B0EB
:1026800000AF78600B46FB70FB78002B06D0094941
:10269000084B5A6C7B6813434B6406E00549054BB5
:1026A0005A6C7B68DB4313404B640C37BD465DF8C6
:1026B000047B70470038024080B483B000AF78607C
:1026C0000B46FB70FB78002B06D00949084B1A6AB1
:1026D0007B6813430B6206E00549054B1A6A7B6869
:1026E000DB4313400B620C37BD465DF8047B70473B
:1026F0000038024080B487B000AF0346FB7100236E
:10270000FB6000237B610023FB74FB795B09DBB278
:10271000FB60FB68012B03D1124B1B687B6109E056
:10272000FB68022B03D10F4B1B6F7B6102E00D4B4B
:102730005B6F7B61FB7903F01F03FB607A69FB68C9
:1027400022FA03F303F00103002B02D00123FB74F0
:1027500001E00023FB74FB7C18461C37BD465DF886
:10276000047B70470038024080B58EB000AF3B1D3F
:10277000184618F007FE034683F00103DBB2002B76
:1027800001D0002311E0D7F816303A1D10469847C3
:102790003B1D18461AF01AFB034687F837303B1DDD
:1027A000184618F075FE97F8373018463837BD468A
:1027B00080BD80B500AF19F0DBFD80BD80B58EB067
:1027C00000AF18F0C3FD0346002B13D03B1D184685
:1027D00018F0D8FD034683F00103DBB2002B08D1CB
:1027E0003B1D184619F0CAFD3B1D184618F050FE57
:1027F00000E000BF3837BD4680BD000090B599B0FD
:1028000000AF78600B46FB7078683AF0C2FC034674
:1028100083F00103DBB2002B01D000231CE238F06F
:1028200059FFF862FB6A002B01D1002314E207F183
:10283000080300227968184632F04EF90023FB6540
:102840000023BB654FF0FF337B654FF0FF333B65E3
:102850004FF0FF33FB644FF0FF33BB6400237B6416
:1028600000233B6461E007F10803184604F0D1FB44
:10287000034687F82B3097F82B302F2B18D1FB6DA0
:102880000133FB65FB6C002B01DA7B6CFB64BB6DD9
:10289000012B0DD1FB6D022B0AD17B6D002B07DACA
:1028A0007B6C7B654FF0FF33FB644FF0FF33BB6401
:1028B00097F82B303A2B0AD1BB6D0133BB657B6D8A
:1028C000002B04DBFB6C002B01DA7B6C3B653B6D62
:1028D000002B19DB7A6C3B6D9A4215DDFB6C002BEB
:1028E00012DA97F82B302F2B0ED997F82B30392B83
:1028F0000AD83A6C13469B0013445B001A4697F8BB
:102900002B30303B13443B6497F82B303F2B04D1E2
:10291000FB6C002B01DB7B6CBB6407F108031846E2
:1029200032F0ECF97B6C01337B6407F10803184645
:1029300004F085FB0346002B95D107F108031846E8
:1029400004F090FBFB6C002B01DA7B6CFB64FB6CEE
:10295000002B01DA7B6CFB643B6D002B01DB3B6DD4
:1029600000E0FB6C7B627B6D002B0CDD7B6D013B23
:102970001A460021786836F0D7FE03461A46B84951
:10298000F86A36F0FFF8B74838F04CFD03461A46AF
:10299000B549F86A36F0F6F87B6D013319467B6D60
:1029A00001337A6AD31A1A46786836F0BDFE0346B8
:1029B0001A46AE49F86A36F0E5F8FB6C6FF0004253
:1029C0001946786836F0B0FE3862386A39F06DFE24
:1029D0000346002B03D1A649386A36F05DFD3A6AFA
:1029E000A449F86A36F0CEF8F96CBB6C002B03DB17
:1029F000BA6CFB6CD31A01E06FF000431A4678689A
:102A000036F092FE3862386A39F04FFE0346002BEA
:102A100003D19749386A36F03FFD3A6A9649F86A19
:102A200036F0B0F8BB6C002B08DBBB6C6FF00042DB
:102A30001946786836F078FE034602E004F0D2FAD0
:102A400003461A468D49F86A36F09CF83B6C002B19
:102A500003DD3B6CB3F5803F04DB02203BF094FACE
:102A6000034603E0386C38F0A9FD03461A46844952
:102A7000F86A36F087F8BB6C002B09DBBB6C0133BE
:102A80006FF000421946786836F04EFE034602E0C9
:102A900004F0A8FA0346FB63FB78002B00F0D68015
:102AA000F86B3AF03AFD034683F00103DBB2002BEA
:102AB00000F0CC80FB6BFB6107F108030022F96B8F
:102AC000184632F009F838F005FEF86304F07EFA93
:102AD000B86304F07BFA7863002387F8333088E02A
:102AE00007F10803184604F094FA034687F83230D9
:102AF00097F83230262B25D1B86B39F0D6FD034636
:102B0000002B05D1786B39F0D0FD0346002B67D040
:102B1000B86B39F09EFDB863796BB86B38F080FE06
:102B2000B96BF86B35F036FA796BB86B38F09EFA02
:102B300004F04CFAB86304F049FA7863002387F88C
:102B400033304EE097F8333083F00103DBB2002BD3
:102B500007D097F832303D2B03D1012387F833306B
:102B60003FE097F83230252B28D107F108031846AB
:102B700032F0C4F807F10803184604F04AFA034695
:102B800087F8323007F10803184632F0B7F897F8A3
:102B9000323018462FF03FFB03461B015CB207F1B1
:102BA0000803184604F035FA034618462FF033FBA5
:102BB00003465BB223435BB287F8323097F8333079
:102BC000002B06D097F832301946786B04F012FAD1
:102BD00007E097F832301946B86B04F00BFA00E0C2
:102BE00000BF07F10803184632F088F87B6C013308
:102BF0007B6407F10803184604F021FA0346002B12
:102C00007FF46EAF07F10803184604F02BFAF86959
:102C100038F000FAB86B39F048FD0346002B05D1B7
:102C2000786B39F042FD0346002B0BD0B86B39F0BE
:102C300010FDB863796BB86B38F0F2FDB96BF86BC7
:102C400035F0A8F9796BB86B38F010FAFA6B0D49CA
:102C5000F86A35F097FFFB6A18466437BD4690BDA9
:102C6000407B04084C7B0408507B0408587B040814
:102C7000607B0408647B04086C7B0408787B040890
:102C8000807B0408887B040880B584B000AF78603E
:102C9000786837F01DFEF860F8683AF032FB0346BA
:102CA00083F00103DBB2002B08D0F96809482FF04C
:102CB00081FBF86838F0AEF9002307E0F86838F0D7
:102CC000A9F9796800201AF091F9034618461037DF
:102CD000BD4680BD907B040880B594B000AFF8601D
:102CE000B9601346FB71002387F84F30F8683AF05B
:102CF00050FA0346002B07D00021F868FFF77EFD4D
:102D0000F860012387F84F30F8683AF053FB034628
:102D100083F00103DBB2002B05D0F96838482FF0AF
:102D200049FB002367E0B8683AF0E7FB034683F00D
:102D30000103DBB2002B0ED0B8683AF0E2FA03468A
:102D400083F00103DBB2002B05D0B9682D482FF0CA
:102D500031FB00234FE0FB7903F00303022B23D167
:102D600007F11003184618F00DFB0346002B1BD08B
:102D700000222549F86835F015FE0346184637F05D
:102D80008FF9B864D7F81920BB6C9A4207DABB6C8C
:102D9000C7F8193007F11003184618F069FB07F15E
:102DA0001003184618F074FBFB79BA68F9681846E6
:102DB00015F0E0F9786497F84F30002B02D0F868EE
:102DC00038F028F9FB7903F00303002B12D107F147
:102DD0001003184618F024FB0346002B0AD007F115
:102DE0001003796C184615F0CBFB07F11003184659
:102DF00018F04EFB7B6C18465037BD4680BD00BFB7
:102E0000B87B0408907B0408E87B040880B584B094
:102E100000AF7860396078683AF0CCFA0346002B4E
:102E200003D138F057FC034600E07B68FB600222C8
:102E30003968F868FFF750FFB860FA687B689A4213
:102E400002D0F86838F0E6F8BB6818461037BD467F
:102E500080BD000080B598B002AFF860B9607A60BC
:102E60003B60F8683AF0A6FA034683F00103DBB250
:102E7000002B05D0404A40F2E91140482FF052FBA8
:102E8000B8683AF086F9034683F00103DBB2002B01
:102E900005D03B4A4FF4F57138482FF043FB07F15A
:102EA0001003184618F0BCFA034683F00103DBB2A6
:102EB000002B5DD10021386E36F006F9F864F86C0D
:102EC0003AF0FEF90346002B1FD0786836F03CFE3E
:102ED000B864386836F038FE786404F077F87865BE
:102EE0007B6D002B05D107F11003184618F0D0FABE
:102EF0003EE0BA6C7B6CB968786D36F0B7FB0121A7
:102F0000386E36F0E1F8386517E0F86C38F082F882
:102F1000BB687B657B68FB643B683B65F86C3AF09B
:102F2000CFF9034683F00103DBB2002B05D0154A2D
:102F300040F2012111482FF0F5FAF86C36F004FE4A
:102F400003469BB207F1100000933B6D7A6DF96860
:102F500015F08AF97A6DBB689A4204D03A6DF96C23
:102F6000786D38F091F807F11003184618F090FAD0
:102F70005837BD4680BD00BFF87B04080C7C0408B0
:102F8000287C04083C7C040880B584B000AFF8605D
:102F90000B467A607B81FB6818463BF05FFA03467C
:102FA000FB60FB687A680D49184635F073FDFB68D5
:102FB00079890222184600F04FF80346184638F087
:102FC00029F8F86807F10C020123044924F0E4FE13
:102FD000FB6818461037BD4680BD00BF507C040812
:102FE00080B590B000AF786007F10C03184618F078
:102FF00017FA034683F00103DBB2002B0BD107F174
:103000000C037968184615F07FFB07F10C0318468E
:1030100018F03EFA00E000BF4037BD4680BD80B5E5
:1030200092B000AFF860B9607A6007F114031846F7
:1030300018F0F6F9034683F00103DBB2002B07D149
:1030400007F114007B68BA68F96819F0FDFF00E029
:1030500000BF4837BD4680BD80B592B000AFF86074
:10306000B9601346FB71F8683BF0F8F9F86007F1B6
:103070001403184618F0D4F9034683F00103DBB2B9
:10308000002B01D0FB680DE0BB689AB2FB7907F119
:103090001400F96819F0FEFF07F11403184618F040
:1030A000F7F9FB6818464837BD4680BD80B590B03B
:1030B00000AF786007F10C03184618F0B1F9034629
:1030C00083F00103DBB2002B0BD107F10C0379680D
:1030D000184615F01FF807F10C03184618F0D8F938
:1030E00000E000BF4037BD4680BD80B592B002AF62
:1030F0007860396007F10C03184618F091F903461F
:1031000083F00103DBB2002B01D000230EE007F1B6
:103110000C000023009300233A68796815F0A4F8A6
:1031200007F10C03184618F0B3F90023184640378E
:10313000BD4680BD80B590B000AF7860396007F1C2
:103140000C03184618F06CF9034683F00103DBB258
:10315000002B18D138683AF0D0F9034683F0010308
:10316000DBB2002B03D039687868FFF7BEFF07F1A8
:103170000C037968184615F0C7FA07F10C031846D6
:1031800018F086F900E000BF4037BD4680BD000062
:1031900080B584B000AF7860786837F099FBF8604C
:1031A000F8683AF0AEF8034683F00103DBB2002B77
:1031B00008D0F96809482FF0FDF8F86837F02AFFC1
:1031C000002307E0F86837F025FF7968012019F03F
:1031D0000DFF034618461037BD4680BD907B04089E
:1031E00080B592B000AF7860396007F108031846E7
:1031F00018F016F9034683F00103DBB2002B01D06F
:1032000000234AE078683AF0D5F80346002B0DD049
:10321000244838F007F97864234A796C786834F0E8
:10322000B4FF0346796C184637F020FF386837F052
:103230004FFB3864386C3AF060F9034683F00103C1
:10324000DBB2002B11D0386C3AF05BF8034683F008
:103250000103DBB2002B08D0396C14482FF0AAF818
:10326000386C37F0D7FE002317E0386C37F0D2FE09
:10327000012239687868FFF72FFDF863FB6B002B9C
:1032800005D007F10803F96B184615F03DFA07F170
:103290000803184618F0FCF8FB6B18464837BD4683
:1032A00080BD00BF4C7B0408507B0408907B040861
:1032B00080B582B000AF786039603968786815F001
:1032C000E9FA002318460837BD4680BD80B582B0B4
:1032D00000AF7860396038683AF00FF9034683F040
:1032E0000103DBB2002B03D039687868FFF7E0FFF9
:1032F000786815F035FB0837BD4680BD80B584B0D1
:1033000000AFF860B9607A607A68B968F86815F05B
:1033100059FA1037BD4680BD80B590B000AF7860D7
:1033200007F10C030321184617F0D2FF07F10C0335
:10333000184618F09DF807F10C03184618F0A8F885
:10334000786815F05BFB054B02221A7078683BF039
:1033500085F8034618464037BD4680BD8457012096
:1033600090B585B000AF03463960FB710023BB60A8
:1033700007F108031946386839F016FAF860FB6857
:10338000002B23D1386831F059FB0346BB60BB6882
:1033900003F580742FF09EFF03469C4204D9204918
:1033A00001202FF04BF811E0BB6807330733DB082F
:1033B000DB00ADEB030D6B460733DB08DB00FB6086
:1033C000BB681A46F968386831F06CFBFB68002B63
:1033D00005D13A68134901202FF030F81DE0BB6891
:1033E000002B04D1104901202FF028F815E0B9680E
:1033F0000E4BA3FB01235A0813465B001344CA1A61
:10340000002A04D00A4901202FF018F805E0BA6814
:10341000FB79F968184600F00DF81437BD4690BDE9
:10342000587C0408807C0408AC7C0408ABAAAAAAD7
:10343000CC7C040880B58AB000AF0346B9607A60DE
:10344000FB73FB7B18462AF039F9034683F001032E
:10345000DBB2002B05D0584901202EF0EFFF0023EE
:10346000A6E00023FB8400233B624BE0FA7B534839
:103470003B6A590013469B0013445B0013440B4402
:103480000344B3F803309BB203F47F63B3F5007FCA
:1034900035DBFA7B49483B6A590013469B001344CD
:1034A0005B0013440B440344B3F803309BB203F4B2
:1034B0007F63B3F5087F22DCFA7B40483B6A590002
:1034C00013469B0013445B0013440B440344B3F8BE
:1034D00003309BB203F47043B3F5805F0FD1FA7BE6
:1034E00036483B6A590013469B0013445B00134463
:1034F0000B440344DA781B791B021343FB843B6AB9
:1035000001333B623B6A032BB0D9FB8C184625F094
:1035100095FE0346FB77FB8C002B02D0FB7F002B34
:1035200005D1274901202EF089FF002340E007F153
:103530001403184620F015FE224B7B61FB7BFB76C3
:1035400007F11402FB7F1146184612F0F7FBFB7FD0
:103550000121184612F002FEFB7F0021184612F0EE
:103560003FFE16F067F900233B620BE0BA683B6A46
:1035700013441978F87F0C23082220F0E3FC3B6AFF
:1035800001333B623A6A7B689A42EFD3F87F0023AB
:103590000022002120F0D6FC16F053F9FB7F1846DC
:1035A00012F05AFEFB7F0021184612F0D7FD0123CE
:1035B00018462837BD4680BDF87C0408D878040832
:1035C0000C7D040800D4300080B483B000AF786074
:1035D000054A7B6843F0BF6343F40033D3600C3784
:1035E000BD465DF8047B704700ED00E080B485B017
:1035F00000AF78600023FB730023BB730F237B7342
:103600007B68DB78002B39D0274BDB68DB431B0A58
:10361000DBB203F00703FB73FB7BC3F10403BB7353
:103620007A7BFB7B42FA03F37B737B685B781A46F9
:10363000BB7B02FA03F3FB737B689A787B7B1340B6
:10364000DAB2FB7B1343FB73FB7B1B01FB73174A53
:103650007B681B781344FA7B83F80023134A7B684A
:103660001B785B09DBB218467B681B7803F01F03ED
:10367000012101FA03F342F820300FE00B497B6887
:103680001B785B09DBB218467B681B7803F01F03CD
:1036900001229A4000F1200341F823201437BD464F
:1036A0005DF8047B704700BF00ED00E000E100E042
:1036B00080B483B000AF78607B68042B06D1094AE0
:1036C000084B1B6843F00403136005E0054A054BF3
:1036D0001B6823F0040313600C37BD465DF8047BC0
:1036E000704700BF10E000E080B485B000AF7860A4
:1036F00039600023FB600023FB727B685B68FB6022
:10370000FB6823F0407323F48073FB603B681B79F4
:103710001A023B681B681343FA681343FB607B681B
:10372000FA685A607B689B68FB60FA68174B134025
:10373000FB603B681A693B68DB681A433B689B681F
:103740001A433B685B795B001343FA681343FB60E1
:103750007B68FA689A607B68DB6AFB60FB6823F42D
:103760007003FB603B681B7D013BDAB2FB7A1343BD
:10377000FB72FB7A1B05FA681343FB607B68FA68EF
:10378000DA621437BD465DF8047B7047FDF7FFC071
:1037900080B483B000AF78607B6800221A607B68D9
:1037A00000221A717B6800225A717B6800229A609D
:1037B0007B680022DA607B6800221A617B68012244
:1037C0001A750C37BD465DF8047B704780B485B030
:1037D00000AF78600023FB600E4B5B68FB60FA680B
:1037E0000D4B1340FB607B681A687B685B681A436B
:1037F0007B689B681A437B68DB681343FA68134352
:10380000FB60044AFB6853601437BD465DF8047BD7
:10381000704700BF00230140E030FCFF80B483B05C
:1038200000AF78607B6800221A607B6800225A60D3
:103830007B6800229A607B680022DA600C37BD4604
:103840005DF8047B704780B483B000AF78600B46AE
:10385000FB70FB78002B06D07B689B6843F001026D
:103860007B689A6005E07B689B6823F001027B68B7
:103870009A600C37BD465DF8047B704780B483B016
:1038800000AF0346FB71FB79002B06D0084A084BBA
:103890005B6843F40003536005E0054A044B5B6832
:1038A00023F4000353600C37BD465DF8047B70477A
:1038B0000023014080B485B000AF7860084611460F
:1038C0001A460346FB700B46BB7013467B70002301
:1038D000FB600023BB60FB78092B23D97B68DB6886
:1038E000FB60FB78A3F10A0213465B001344072236
:1038F00002FA03F3BB60BB68DB43FA681340FB606A
:103900007978FB78A3F10A0213465B00134401FAAD
:1039100003F3BB60FA68BB681343FB607B68FA681B
:10392000DA601EE07B681B69FB60FA7813465B0077
:103930001344072202FA03F3BB60BB68DB43FA6857
:103940001340FB607978FA7813465B00134401FA60
:1039500003F3BB60FA68BB681343FB607B68FA68DB
:103960001A61BB78062B21D87B685B6BFB60BB7848
:103970005A1E13469B0013441F2202FA03F3BB6036
:10398000BB68DB43FA681340FB60F978BB785A1ECA
:1039900013469B00134401FA03F3BB60FA68BB684B
:1039A0001343FB607B68FA685A6347E0BB780C2BD3
:1039B00021D87B681B6BFB60BB78DA1F13469B002A
:1039C00013441F2202FA03F3BB60BB68DB43FA68AF
:1039D0001340FB60F978BB78DA1F13469B00134451
:1039E00001FA03F3BB60FA68BB681343FB607B68B2
:1039F000FA681A6322E07B68DB6AFB60BB78A3F19C
:103A00000D0213469B0013441F2202FA03F3BB600E
:103A1000BB68DB43FA681340FB60F978BB78A3F11D
:103A20000D0213469B00134401FA03F3BB60FA68CE
:103A3000BB681343FB607B68FA68DA621437BD46E3
:103A40005DF8047B704780B483B000AF78607B681A
:103A50009B6843F080427B689A600C37BD465DF8F6
:103A6000047B704780B483B000AF78607B68DB6C08
:103A70009BB218460C37BD465DF8047B704780B496
:103A800085B000AF78600B46FB700023FB737B684A
:103A90001A68FB781340002B02D00123FB7301E06E
:103AA0000023FB73FB7B18461437BD465DF8047B8F
:103AB0007047000080B485B000AF78600023FB60E1
:103AC000344BFB607B689B79002B4FD03149314BE5
:103AD0001A687B681B68DB4313400B602D492D4B34
:103AE0005A687B681B68DB4313404B607B681B791B
:103AF0001A46FB681344FB60FB68FA6811687A6831
:103B000012680A431A602349224B9A687B681B6833
:103B1000DB4313408B601F491E4BDA687B681B68D0
:103B2000DB431340CB607B685B79102B0ED11949C6
:103B3000184B9A687B681B6813438B601549154BBB
:103B4000DA687B681B681343CB601DE0114BFB6098
:103B50007B685B791A46FB681344FB60FB68FA6874
:103B600011687A6812680A431A600DE07B681B7955
:103B70001A46FB681344FB60FB68FA6811687A68B0
:103B80001268D2430A401A601437BD465DF8047BC0
:103B9000704700BF003C014080B483B000AF786044
:103BA0007B6800221A607B6800221A717B680C22F5
:103BB0005A717B6800229A710C37BD465DF8047B10
:103BC0007047000080B485B000AF78600023FB73BD
:103BD000084B5A697B681340002B02D00123FB730A
:103BE00001E00023FB73FB7B18461437BD465DF8EC
:103BF000047B7047003C014080B483B000AF786024
:103C0000034A7B6853610C37BD465DF8047B7047FF
:103C1000003C014080B483B000AF7860044B7A6808
:103C2000D2B21A700C37BD465DF8047B704700BFF6
:103C3000003C024080B400AF064B1B69002B05DA44
:103C4000044B054A5A60034B044A5A60BD465DF86E
:103C5000047B7047003C024023016745AB89EFCDF0
:103C600080B400AF044A044B1B6943F00043136166
:103C7000BD465DF8047B7047003C024080B584B0CF
:103C800000AF78600B46FB700023FB600923FB72DA
:103C9000FB78002B02D10023FB6010E0FB78012BA6
:103CA00003D14FF48073FB6009E0FB78022B03D152
:103CB0004FF40073FB6002E04FF44073FB6000F0D0
:103CC000BDF80346FB72FB7A092B2FD11A4A1A4B17
:103CD0001B6923F4407313611749174B1A69FB687A
:103CE00013430B61144A144B1B6923F0F80313614F
:103CF0001149114B1A697B68134343F002030B61AE
:103D00000D4A0D4B1B6943F48033136100F096F8A4
:103D10000346FB72084A084B1B6923F00203136138
:103D2000054A054B1B6923F0F8031361FB7A18461B
:103D30001037BD4680BD00BF003C024080B584B056
:103D400000AF786039600923FB7300F077F8034611
:103D5000FB73FB7B092B1ED1114A114B1B6923F40A
:103D6000407313610E4A0E4B1B6943F400731361D9
:103D70000B4A0B4B1B6943F0010313617B683A68E4
:103D80001A6000F05BF80346FB73054A044B1B699D
:103D900023F001031361FB7B18461037BD4680BD3D
:103DA000003C024080B483B000AF7860034A7B6877
:103DB000D3600C37BD465DF8047B7047003C024081
:103DC00080B483B000AF0923FB711B4BDB6803F4A5
:103DD0008033B3F5803F02D10123FB7125E0164B00
:103DE000DB6803F01003002B02D00623FB711CE0FC
:103DF000114BDB6803F48073002B02D00223FB71AC
:103E000013E00D4BDB6803F0EF03002B02D0072318
:103E1000FB710AE0084BDB6803F00203002B02D0C1
:103E20000823FB7101E00923FB71FB7918460C376D
:103E3000BD465DF8047B7047003C024080B582B00F
:103E400000AF0923FB71FFF7BBFF0346FB7103E0E3
:103E5000FFF7B6FF0346FB71FB79DBB2012BF7D00E
:103E6000FB79DBB218460837BD4680BD80B487B009
:103E700000AF7860396000237B6100233B61002341
:103E8000FB6000237B6176E001227B6902FA03F389
:103E90003B613B681A683B691340FB60FA683B6909
:103EA0009A4265D17B681A687B695B00032101FA3D
:103EB00003F3DB431A407B681A607B681A683B682F
:103EC0001B7919467B695B0001FA03F31A437B688F
:103ED0001A603B681B79012B03D03B681B79022BCE
:103EE0002ED17B689A687B695B00032101FA03F39A
:103EF000DB431A407B689A607B689A683B685B7911
:103F000019467B695B0001FA03F31A437B689A60E8
:103F10007B685A687B699BB2194601238B40DB435F
:103F20001A407B685A607B685B683A6892791146F0
:103F30007A6992B201FA02F292B21A437B685A602D
:103F40007B68DA687B699BB25B00032101FA03F3AB
:103F5000DB431A407B68DA607B68DA683B68DB79B0
:103F600019467B695B0001FA03F31A437B68DA6048
:103F70007B6901337B617B690F2B85D91C37BD467B
:103F80005DF8047B704780B485B000AF78600B4665
:103F90007B800023FB737B681A697B881340002BAE
:103FA00002D00123FB7301E00023FB73FB7B184667
:103FB0001437BD465DF8047B704780B483B000AF12
:103FC00078600B467B807A887B689A610C37BD46A7
:103FD0005DF8047B704780B483B000AF78600B4617
:103FE0007B807B881B041A467B689A610C37BD4630
:103FF0005DF8047B704780B485B000AF78600B46F5
:104000007B8013467B700023FB600023BB607A78C3
:104010007B8803F007039B0002FA03F3FB607B88B5
:10402000DB089BB218467B88DB089BB21A467B688C
:10403000083253F822207B8803F007039B000F21EE
:1040400001FA03F3DB4302EA03017B6800F1080293
:1040500043F822107B88DB089BB21A467B68083243
:1040600053F82220FB681343BB607B88DB089BB2BC
:104070001A467B680832B96843F822101437BD46E7
:104080005DF8047B7047000080B58AB000AF7860AF
:1040900039600023FB8400237B840423BB84564BBC
:1040A000FB617B685B68FB84FB8C23F03F03FB8434
:1040B00007F10C031846FEF7FFF97B69FB61FB690A
:1040C0004E4AA2FB03239B0C7B84FA8C7B8C13430C
:1040D000FB84FA8C7B685A607B681A684FF6FE7323
:1040E00013407A6813600023FB843B681B68444AD2
:1040F000934215D83B681B685B00FA69B2FBF3F387
:10410000BB84BB8C032B01D80423BB84FA8CBB8CEF
:104110001343FB847B8C01331A467B681A6241E0AF
:104120003B68DB884BF6FF72934209D13B681A6803
:1041300013465B001344FA69B2FBF3F3BB840EE051
:104140003B681A6813469B0013449A001344FA69AB
:10415000B2FBF3F3BB84BB8C43F48043BB84BB8CC6
:10416000C3F30B03002B03D1BB8C43F00103BB84CF
:10417000BA8CFB8C13439BB26FEA43436FEA534301
:10418000FB847B8C4FF4967202FB03F31D4A82FB87
:1041900003129211DB17D31A9BB201339BB21A465A
:1041A0007B681A62FA8C7B68DA617B681B6843F073
:1041B00001027B681A607B681B68FB84FB8C23F41C
:1041C000816323F00203FB843B689A883B685B8928
:1041D00013439AB2FB8C1343FB84FA8C7B681A60FE
:1041E0003B689A893B681B8913439BB21A467B68DC
:1041F0009A602837BD4680BD00127A0083DE1B43DB
:10420000A0860100D34D621080B586B000AF294B67
:104210005B6800222849184634F0C4FB78617B694A
:10422000002B44D03B1D7969184630F083FE30E006
:104230003B1D184605F0FFF8386100221F49386918
:1042400034F0B0FB0346184635F044FF0346FB73D9
:10425000FB7B002B15D000220021386905F01CF9EA
:10426000B860B8681EF0D4FA034683F00103DBB2ED
:10427000002B03D0124901202EF0E0F8B86836F088
:10428000C9FE386936F0C6FE3B1D7969184630F024
:10429000D4FE3B1D184605F0E2F80346002BC7D1BB
:1042A0003B1D184605F0ECF8786936F0B3FE183778
:1042B000BD4680BD58510120387D0408887E040821
:1042C000407D040880B588B000AF786039607B68B5
:1042D000002B05DC454901202EF0B0F8002381E0D9
:1042E0000023FB770023BB77386839F063F8034677
:1042F000002B29D000223E49386834F053FB034696
:10430000184635F0E7FE0346FB7700223949386846
:1043100034F048FB0346184635F0C2FE78617B69ED
:10432000002B0BD07B69082B08D07B69102B05D0A4
:10433000314901202EF082F8002353E07B69102BD5
:1043400011D10123BB770FE0386839F0D6F8034666
:1043500083F00103DBB2002B06D03A682749012025
:104360002EF06CF800E000BFBB7F002B01D00223D1
:1043700000E001237B827B8A7968184630F0E2F8FE
:10438000F8600023BB61FB7F002B05D07B8A796836
:10439000184630F0D7F8B8611949002028F0B6FE69
:1043A000B860BB68002B08D0FB68002B05D0FB7FF2
:1043B000002B09D0BB69002B06D1BA69F968B8682F
:1043C00036F062FE00230DE0FA680E49B86834F05A
:1043D000D9FBBB69002B04D0BA690B49B86834F02B
:1043E000D1FBBB6818462037BD4680BD607D040800
:1043F000807D040814A80408907D0408A87D0408A2
:10440000E07D0408EC7D0408F47D04080000000051
:10441000F0B595B004AF7861C7E902230B46FB7491
:104420000022A149786934F0BDFA0346184635F0F8
:1044300051FE034687F8353097F83530002B04D00D
:104440009A4901202DF0FAFF25E1FB7C184629F05E
:1044500035F9034683F00103DBB2002B04D0944905
:1044600001202DF0EBFF16E1BB683B60FB6823F0F9
:1044700000437B604FF0FF328E4BD7E90001FCF721
:10448000E1FA0346002B13D14FF0FF32894BD7E9F5
:104490000001FCF7CDFA0346002B09D180A3D3E934
:1044A0000023D7E90201FCF7A5FA0346002B04D04C
:1044B000814901202DF0C2FFEDE015F06DFEC7E946
:1044C0000E01002387F83730B86D38F073FF0346CC
:1044D000002B53D000227949B86D34F063FA0346BB
:1044E000184635F0E9FDC7E90A01BC6AFB6A23F00A
:1044F000004501231E464FF0FF326E4B20462946F1
:10450000FCF7A0FA0346002B0BD14FF0FF32694BAA
:1045100020462946FCF78CFA0346002B01D10023E4
:104520001E46F3B283F00103DBB2002B19D04FF02B
:1045300000024FF00003D7E90A01FCF779FA0346BD
:10454000002B0ED04FF000025D4BD7E90A01FBF7BC
:10455000DFFF03460C461846214615F0C9FDC7E9A2
:104560000E0100225749B86D34F01CFA0346184674
:1045700035F0B0FD034687F837300DE0B86D38F000
:10458000BCFF034683F00103DBB2002B04D0BA6DFD
:104590004D4901202DF052FF0023FB7607F11B034C
:1045A0001A460021786904F077FF78620022012121
:1045B000786904F071FF3862FB7E002B09D097F810
:1045C0005C30002B01D0052300E0062387F836304D
:1045D00008E097F85C30002B01D0032300E00423AF
:1045E00087F83630D7E902234FF000003449FCF752
:1045F000B9F803460C461846214615F079FD97F8A0
:104600003730002B06D03B6A002B01D03B6A02E01A
:104610007B6A00E0002397F83620039202937B6ABE
:104620000193FB7C009302460B46D7E90E011EF076
:1046300043F8034683F00103DBB2002B02D023488A
:104640002DF0DAFE396A786A36F010FD012036F076
:10465000CAFF03461A461449786934F093FAD7E939
:10466000020136F0D7FF03461A461949786934F03B
:1046700089FA184B5B6803221749184634F092F9FF
:10468000F861FB69002B06D07969F86934F06EFE99
:10469000F86936F0BFFC4437BD46F0BDAFF300808B
:1046A000FCA9F1D24D62503F887E0408FC7D0408CD
:1046B000187E0408FFFFEF7F247E0408447E040870
:1046C00000408F404C7E0408A87D0408547E0408F6
:1046D000707E040858510120387D040880B586B0EA
:1046E00002AFF860C7E900230B46FB72F97A012399
:1046F0000193BB690093D7E90023F868FFF788FEB0
:104700001037BD4680BD80B586B002AFF860C7E9FE
:1047100000230B46FB72FB7A184615F041FE4FF062
:1047200000024FF00003FCF765F90346002B09D1A6
:10473000F97A00230193BB690093D7E90023F86855
:10474000FFF766FE1037BD4680BD000080B584B01F
:1047500000AF786000221849786834F023F90346E6
:10476000184635F0B7FC0346FB73FB7B83F001036F
:10477000DBB2002B04D0114901202DF05FFE17E0C1
:1047800000220021786804F087FEB860B8681EF047
:104790003FF8034683F00103DBB2002B03D0084946
:1047A00001202DF04BFEB86836F034FC04F0B0FE6A
:1047B0001037BD4680BD00BF887E0408787E04089F
:1047C000407D040880B582B000AF78607B681B68CC
:1047D000002B01D1002305E07B681B68184636F0EA
:1047E00077F8034618460837BD4680BD80B483B0CD
:1047F00000AF78607B681B68002B14BF0123002387
:10480000DBB218460C37BD465DF8047B704780B5B7
:1048100082B000AF78607B681B68184636F0FAFB00
:104820000837BD4680BD90B484B000AFC7E9000131
:104830004FF000034FF00044C7E902343B46D3E990
:10484000001207F10803D3E90034A24206BF9942DF
:1048500001230023DBB218461037BD4690BC7047D9
:1048600090B583B000AFC7E90001D7E900013DF082
:1048700067FC03460C46184621460C37BD4690BDE2
:10488000B0B582B000AFC7E900014FF000024FF0B1
:104890000003D7E90001FCF7ADF80346002B04D074
:1048A0003C687B6883F0004501E0D7E9004523467A
:1048B0002C46184621460837BD46B0BD90B583B09A
:1048C00000AFC7E90001D7E900013DF081F90346D7
:1048D0000C46184621460C37BD4690BDB0B58CB08D
:1048E00000AFC7E90401C7E90223D7E90423C7E9F8
:1048F00008233B693B607B6923F000437B604FF0FA
:10490000FF325C4BD7E90001FCF79CF80346002B13
:1049100012D14FF0FF32574BD7E90001FCF788F86E
:104920000346002B08D1D7E90223D7E90201FCF79F
:1049300089F80346002B03D04FF000044E4D91E060
:104940004FF000024FF00003D7E90801FCF752F8DE
:104950000346002B05D03B693B617B6983F0004334
:104960007B614FF000024FF00003D7E90201FCF732
:1049700041F80346002B05D0BB68BB60FB6883F0A1
:104980000043FB604FF000024FF00003D7E9020143
:10499000FCF726F80346002B4CD14FF0FF32354B85
:1049A000D7E90201FCF730F80346002B42D04FF064
:1049B000FF32304BD7E90401FCF726F80346002B01
:1049C0002ED137E04FF000024FF08043D7E90401C9
:1049D000FBF7C8FE02460B46C7E90623D7E90223C8
:1049E000C7E90A2309E0D7E90A0102460B46FBF7AB
:1049F000DDFB02460B46C7E90A23D7E90A23D7E9BC
:104A00000601FCF70BF80346002BECD1D7E90A238B
:104A1000D7E90401FBF7C8FB02460B46C7E90423AC
:104A2000D7E90223D7E90401FBF7F8FF0346002B7F
:104A3000C8D105E04FF000024FF00003C7E904239E
:104A40004FF000024FF00003D7E90801FBF7D2FF57
:104A50000346002B04D03C697B6983F0004501E0EC
:104A6000D7E9044523462C46184621463037BD4633
:104A7000B0BD00BFFFFFEF7F0000F87F0000000027
:104A8000B0B584B000AFC7E900013C687B6823F093
:104A900000454FF0FF32364B20462946FBF7D2FF48
:104AA0000346002B10D14FF0FF32314B20462946F0
:104AB000FBF7BEFF0346002B06D1D7E90001FFF745
:104AC000B2FE0346002B05D0D7E9000136F0A2FD67
:104AD00003463FE04FF000024FF00003D7E900012A
:104AE000FBF788FF0346002B03D01DA4D4E9003454
:104AF00002E01DA4D4E900341A462346D7E9000198
:104B0000FBF754FB03460C46C7E90034D7E9000124
:104B1000FCF75EF803460C46C7E90234D7E90234D5
:104B2000234312D14FF000024FF00003D7E90001F8
:104B3000FBF760FF0346002B07D04FF000004FF05B
:104B4000004136F067FD034604E0D7E9020136F084
:104B500079FD034618461037BD46B0BDAFF300805F
:104B60002083E4FFFFFFDFBF2083E4FFFFFFDF3F81
:104B7000FFFFEF7F90B583B000AFC7E900014FF0B2
:104B800000024FF00003D7E90001FBF747FF03469F
:104B9000002B11D0D7E900013DF092FB4FF000024D
:104BA000094BFBF7B5FC03460C46184621463DF081
:104BB0000FFB03460C4602E04FF00003034C18467F
:104BC00021460C37BD4690BD0000E03F0000F87F55
:104BD00090B585B000AFC7E90201C7E90023D7E966
:104BE0000023D7E90201FBF705FF0346002B03D0A2
:104BF000D7E90034C7E90234D7E90823D7E902012D
:104C0000FBF716FF0346002B03D0D7E90834C7E9AA
:104C10000234D7E90234184621461437BD4690BD08
:104C200090B589B000AF78600B46FB70FB78002B25
:104C300003D04FF000032D4C02E04FF000032C4C4A
:104C4000C7E9063407F10C037968184630F072F9A9
:104C500037E007F10C031846FFF7B4FD034618468A
:104C600035F02AFAC7E90401FB78002B08D0D7E910
:104C70000623D7E90401FBF7DBFE0346002B17D11F
:104C8000FB7883F00103DBB2002B08D0D7E90623C1
:104C9000D7E90401FBF7AEFE0346002B08D1D7E9A4
:104CA0000423D7E90401FBF7CDFE0346002B03D014
:104CB000D7E90434C7E9063407F10C03184630F08D
:104CC0008CF907F10C031846FFF790FD0346002B03
:104CD000BFD107F10C031846FFF799FDD7E9063459
:104CE000184621462437BD4690BD00BF0000F0FFA6
:104CF0000000F07F80B483B000AF78607B68002252
:104D00005A7100229A717B684FF0FF321A734FF08C
:104D1000FF325A734FF0FF329A734FF0FF32DA735B
:104D20007B6800221A7400225A7400229A740022AE
:104D3000DA747B684FF0FF321A754FF0FF325A7504
:104D40007A68937D43F0030393757A68937D43F00B
:104D50000C0393757A68937D6FF3051393757B68E5
:104D60000022DA7500221A767B6800225A76002229
:104D70009A767B680022DA77002262F07F0283F85D
:104D800020207B68002283F82120002262F07F022D
:104D900083F822207B684FF0FF32DA76002242F05F
:104DA0007F021A777B684FF0FF325A77002242F079
:104DB0007F029A770C37BD465DF8047B704780B45C
:104DC00083B000AF78607B681B69002B01D10023A2
:104DD00005E07B681A697B681B6813441B781846DA
:104DE0000C37BD465DF8047B704780B483B000AFDC
:104DF00078607B681A687B685B689A4234BF0123DD
:104E00000023DBB218460C37BD465DF8047B7047C3
:104E100080B483B000AF78607B689A687B681B6859
:104E2000134418460C37BD465DF8047B704780B5C7
:104E300082B000AF78607B68DB68184636F0EAF82D
:104E40000837BD4680BD80B500AF19F012FF0023C2
:104E5000184680BD80B400AFBD465DF8047B704746
:104E600080B500AF044B5B6800220449184633F05C
:104E700099FD0346184680BD58510120907E0408D4
:104E800080B483B000AF78607B68012B11D07B6861
:104E9000022B0ED07B68042B0BD07B68082B08D02C
:104EA0007B68102B05D07B68182B02D07B68202BE9
:104EB00001D1012300E0002303F00103DBB2184617
:104EC0000C37BD465DF8047B7047000080B594B098
:104ED00000AFF860B9607A603B60FB68002B0ADDC8
:104EE000BB68002B07DDFB68B3F5004F03DABB6836
:104EF000B3F5004F05DB8A4901202DF09FFA00230E
:104F00000AE17868FFF7BCFF034683F00103DBB2D8
:104F1000002B05D0834901202DF090FA0023FBE0FF
:104F20008149002028F0F2F8F864FB6C002B01D1D5
:104F30000023F1E007F110031846FFF7DBFE002322
:104F40003B7500237B750023BB75FB6C3B61FB68E5
:104F50009BB2A7F81730BB689BB2A7F819307B68E3
:104F6000DBB2FB76386838F025FA0346002B00F0F8
:104F7000C88000226D49386833F014FD0346184696
:104F800035F0A8F80346002B07D0B7F815309BB2D0
:104F900043F001039BB2A7F815300022644938683A
:104FA00033F000FD0346184635F094F80346002B15
:104FB00007D0B7F815309BB243F004039BB2A7F8B3
:104FC000153000225B49386833F0ECFC0346184684
:104FD00035F080F80346002B1ED0FB7E012B0FD14D
:104FE000B7F815309BB243F002039BB2A7F8153017
:104FF000B7F819309BB203F00703002B06D10BE082
:105000004D4901202DF01AFA002385E04B4901207B
:105010002DF014FA00237FE000224949386833F06C
:10502000C1FCB864BB6C002B6BD04649B86C35F042
:105030006DFD0346002B61D14349B86C35F066FD28
:10504000034683F00103DBB2002B08D0B7F815301C
:105050009BB243F040039BB2A7F815304EE03B49AA
:10506000B86C35F053FD034683F00103DBB2002B2F
:1050700008D0B7F815309BB243F080039BB2A7F875
:1050800015303BE03249B86C35F040FD034683F003
:105090000103DBB2002B08D0B7F815309BB243F008
:1050A000C0039BB2A7F8153028E02A49B86C35F048
:1050B0002DFD034683F00103DBB2002B08D0B7F8C7
:1050C00015309BB243F480739BB2A7F8153015E0FE
:1050D0002149B86C35F01AFD034683F00103DBB2B9
:1050E000002B08D0B7F815309BB243F4A0739BB2E5
:1050F000A7F8153002E019482DF07EF9B86C35F0AC
:1051000089FF07F1100318461AF08EF907F1100312
:10511000184618F0A5FCFB6C18465037BD4680BDFC
:10512000947E0408A47E0408B07E0408BC7E0408B3
:10513000C47E0408C87E0408D87E0408087F0408DA
:10514000447F0408507F0408547F0408587F0408F3
:105150005C7F0408607F0408647F0408687F04089B
:1051600080B596B000AFF860B9607A603B60FB68CC
:10517000002B0ADDBB68002B07DDFB68B3F5004F91
:1051800003DABB68B3F5004F05DB4B4901202DF076
:1051900055F900238CE07868FFF772FE034683F030
:1051A0000103DBB2002B05D0444901202DF046F964
:1051B00000237DE000237B6500233B65386838F0E1
:1051C000F9F80346002B0FD0786D35F023FF00224D
:1051D0003B49386833F0E6FB786500223949386886
:1051E00033F0E0FB386503E0386839F037F978656B
:1051F000786D38F086F8034683F00103DBB2002BAC
:105200000AD07A6D304901202DF018F9396D786D8A
:1052100035F02CFF00234BE0386D38F06EF9034673
:1052200083F00103DBB2002B13D0386D38F069F83E
:10523000034683F00103DBB2002B0AD03A6D22490A
:1052400001202DF0FBF8396D786D35F00FFF00234C
:105250002EE01E49002027F059FFF864FB6C002B5C
:1052600001D1002324E007F114031846FFF742FDA3
:1052700001233B76FB6C7B61FB689BB2A7F81B307C
:10528000BB689BB2A7F81D307B68DBB2FB7707F1E8
:1052900014033A6D796D184615F0CEFE07F114032C
:1052A000184618F0DDFB396D786D35F0DFFEFB6CCC
:1052B00018465837BD4680BD947E0408A47E040875
:1052C0008C7F0408987F0408A47F0408B07E04083B
:1052D00080B592B000AF7860786837F05AFF034627
:1052E00083F00103DBB2002B05D06C4903202DF0C5
:1052F000A5F80023CDE000237B6400233B6400235A
:10530000FB630023BB6300237B6307F108030022D8
:10531000796818462FF0E0FB2EE007F108031846E5
:10532000FFF74DFD034687F8333097F833300A2BEB
:105330000DD17B6C002B04D13B6C002B01D10123E0
:105340007B6300237B643B6C01333B640FE03A6C6E
:10535000BB6B9A4202DB3B6C0133BB637B6C01335A
:105360007B647A6CFB6B9A4201DD7B6CFB6307F11B
:10537000080318462FF0C2FC07F108031846FFF790
:1053800034FD0346002BC8D107F108031846FFF788
:105390004EFD36F09FF9F862FB6A002B01D1002325
:1053A00077E0F86B36F00AF903461A463C49F86A8A
:1053B00033F0E8FBB86B36F001F903461A46394979
:1053C000F86A33F0DFFBFB6BBA6B02FB03F30733C6
:1053D000DB10BB62BB6A0021184636F07DF87862AC
:1053E0007B6A002B04D1F86A35F014FE002350E0EC
:1053F00000237B6400233B6407F108037A6B796820
:1054000018462FF069FB31E007F108031846FFF753
:10541000D6FC034687F8233097F823300A2B05D1B2
:1054200000237B643B6C01333B641AE097F8233024
:10543000202B13D03B6CFA6B02FB03F27B6C134402
:10544000FB61FB69D908FB6903F00703802242FA7C
:1054500003F3DAB20123786A34F0B4F97B6C0133D8
:105460007B6407F1080318462FF048FC07F1080396
:105470001846FFF7BAFC0346002BC5D107F1080315
:105480001846FFF7D4FC7A6A0749F86A33F07AFBCA
:10549000FB6A18464837BD4680BD00BFD87F040868
:1054A000EC7F040888800408EC7D040880B590B087
:1054B00000AF78600B46FB7007F108037968184667
:1054C00018F06CFA034683F00103DBB2002B01D025
:1054D00000231EE0B7F80D309BB203F00803002B49
:1054E0000DD0FB78002B14BF01230023DBB283F027
:1054F0000103DBB2FB70FB7803F00103FB70FB7868
:10550000002B03D0B7F811309BB202E0B7F80F3090
:105510009BB218464037BD4680BD80B590B000AF05
:10552000786007F108037968184618F037FA0346DF
:1055300083F00103DBB2002B0AD107F10803184600
:1055400018F0CCFC07F10803184618F089FA00E0BF
:1055500000BF4037BD4680BD90B595B002AFF86042
:10556000B9607A603B6007F11003F968184618F0DB
:1055700015FA034683F00103DBB2002B13D1BB689D
:1055800019B27B681AB23B681CB2BB6D1BB207F143
:1055900010000093234618F072FC07F11003184620
:1055A00018F05EFA00E000BF4C37BD4690BD90B5E4
:1055B00095B002AFF860B9607A603B6007F1100304
:1055C000F968184618F0EAF9034683F00103DBB2E4
:1055D000002B13D1BB6819B27B681AB23B681CB2AE
:1055E000BB6D1BB207F110000093234618F09DFC21
:1055F00007F11003184618F033FA00E000BF4C37EB
:10560000BD4690BD80B592B000AFF860B9607A60D9
:105610003B6007F11003F968184618F0BFF903461C
:1056200083F00103DBB2002B0FD1BB6819B27B689A
:105630001AB23B681BB207F1100018F08CFD07F19D
:105640001003184618F00CFA00E000BF4837BD46BA
:1056500080BD80B592B000AFF860B9607A603B6001
:1056600007F11003F968184618F098F9034683F01B
:105670000103DBB2002B0FD1BB6819B27B681AB2F1
:105680003B681BB207F1100018F0AEFC07F11003E5
:10569000184618F0E5F900E000BF4837BD4680BD68
:1056A00080B592B000AFF860B9607A6007F110037E
:1056B000F968184618F072F9034683F00103DBB26B
:1056C000002B01D0002309E0BB6819B27B681AB235
:1056D00007F11003184618F0B7FB03461846483781
:1056E000BD4680BD80B594B000AFF860B9607A6007
:1056F0003B6007F11403F968184618F04FF90346A8
:1057000083F00103DBB2002B26D13B6AFB643868CF
:1057100037F0F3FE034683F00103DBB2002B04D025
:10572000386834F011FA0346FB64BB6819B27B6831
:105730001AB207F11400FB6C18F068FBBB681BB2CF
:10574000A7F82B307B681BB2A7F82D3007F11403A4
:10575000184618F085F900E000BF5037BD4680BDFF
:1057600090B5A1B000AFF860B9607A603B6007F116
:105770001003F968184618F011F9034683F0010385
:10578000DBB2002B40F0F7800023FB67B86834F0F1
:1057900051FBC7E91A01786834F04CFBC7E91801DE
:1057A000386834F047FBC7E91601786837F0A5FE82
:1057B000034683F00103DBB2002B00F0C880386899
:1057C00037F09BFE034683F00103DBB2002B00F0B1
:1057D000BE804FF000026A4BD7E91A01FAF798FE33
:1057E00003460C4618462146FBF742F90346BB67C1
:1057F0004FF00002624BD7E91801FAF789FE034621
:105800000C4618462146FBF733F903467B674FF0F9
:1058100000025B4BD7E91601FAF77AFE03460C4605
:1058200018462146FBF724F903463B67BB6FFF2B65
:1058300001DDFF23BB677B6FFF2B01DDFF237B6750
:105840003B6FFF2B01DDFF233B67BB6F002B01DAB2
:105850000023BB677B6F002B01DA00237B673B6F64
:10586000002B01DA00233B67B7F815309BB203F435
:10587000E0737B657B6D002B32D0BB6F3B657B6F2C
:10588000FB643B6FBB647B6DC02B19D0C02B04DC69
:10589000402B09D0802B0ED022E0B3F5807F16D0AC
:1058A000B3F5A07F18D01BE0BB6CBB673B6D7B677B
:1058B000FB6C3B6714E0BB6CBB673B6D3B670FE069
:1058C000FB6CBB67BB6C7B673B6D3B6708E0FB6CAD
:1058D000BB673B6D7B6703E0BB6C7B67FB6C3B6727
:1058E000FB7E102B0BD13B6FDA107B6F9B105B01A3
:1058F0001A43BB6FDB10DB021343FB672CE0FB7E1C
:10590000202B0AD17B6F1A023B6F1A43BB6F1B041B
:10591000134343F07F43FB671EE0FB7E182B08D147
:105920007B6F1A023B6F1A43BB6F1B041343FB6769
:1059300012E0BA6F7B6F1A443B6F1344B3F5C07F1C
:1059400002DB4FF0FF3300E00023FB6704E0B868A0
:1059500034F0FAF80346FB6797F89030002B02D03A
:10596000FB6FFB6101E0FB6F3B6207F11003184620
:1059700018F076F800E000BF8437BD4690BD00BF48
:105980000000704080B590B000AF78600B46FB70AF
:1059900007F108037968184618F000F8034683F009
:1059A0000103DBB2002B01D000230BE0FB78002BBE
:1059B00001D07B6900E0BB69FA7C114601228A4074
:1059C000013A134018464037BD4680BD80B592B0BD
:1059D00000AFF860B9601346FB7107F11003F96876
:1059E000184617F0DBFF034683F00103DBB2002B00
:1059F0002CD1FB79002B0BD0BB68002B01DC0123E1
:105A0000BB60BB68B3F5806F02DB40F2FF33BB6065
:105A1000B7F9243013F1020F0FD10E49F86833F0B3
:105A2000C3F80D49F86833F0BFF80C49F86833F053
:105A3000BBF80B49F86833F0B7F8BB681BB2BB84FE
:105A400007F11003184618F00BF800E000BF4837C4
:105A5000BD4680BDF47F0408FC7F04080480040870
:105A60000C80040880B592B000AFF860B9607A602D
:105A70003B6007F11003F968184617F08FFF0346E3
:105A800083F00103DBB2002B5ED1B86837F081FBF5
:105A9000034683F00103DBB2002B04D02C49012024
:105AA0002CF0CCFC50E07B68002B02DB7B68FF2BEA
:105AB00004DD284901202CF0C1FC45E0386837F0AE
:105AC00068FB034683F00103DBB2002B0DD038687E
:105AD00037F0EEFA034683F00103DBB2002B04D06B
