:03000000020028D3
:10000B0002000E758CD2758AFF2021088542804331
:10001B0080208006854380438010B22132C2AF75A9
:10002B008901758CD2758AFFD2AFD2A9D28C7A0294
:10003B007842760008DAFB12004780FB1200C730CB
:10004B00D53D78CC1200AB78441200ABD2AF7548DB
:10005B00017549FF754AFFD54AFDD549F7D548F1DA
:10006B00C2AF1200C730D51778CC1200AB78BE12D6
:10007B0000AB1200BDF5301200BDF53112008DD270
:10008B00AF22E53054F0F53AE531540F453AC475DB
:10009B00F00A8485F04375F00A8485F042F541221D
:1000AB00E87D08C31340051200F080031200F9DD50
:1000BB00F2227D0812010713DDFAF822D2B70000F5
:1000CB00C2B77EFADEFE7E32DEFED2B77E0FDEFEDA
:1000DB001200E57E3CDEFED2B722A2B74004D2D599
:1000EB008002C2D522C2B77E1EDEFED2B722C2B7B5
:1000FB000000000000D2B77E1EDEFE22D2B7000049
:10010B00C2B70000D2B700000000000000A2B77E0B
:0D011B0017DEFE227C147D1EDDFEDCFA22C4
:00000001FF
