:10F800003140FE02B0123CF832D0D000B01212F8F3
:10F81000FB3F12D34DA37D9060000B284D434EA3B8
:10F820007E90600006284E434FA37F90240001285D
:10F830004F43C24D2100C24E29003041D2D30000B7
:10F84000B2401C5A2001F2432200F2432A00C24374
:10F850002100C24329004D434E434F4332D2304131
:08F86000B1C0D000000000134C
:10FFE00000F800F800F800F800F800F800F800F851
:10FFF00000F800F860F800F800F800F800F800F8E1
:00000001FF
