:100000000C942A000C9434000C9434000C943400AA
:100010000C9434000C9434000C9434000C94340090
:100020000C9434000C9434000C9434000C94340080
:100030000C9434000C9434000C9434000C94340070
:100040000C9434000C9434000C9434000C94340060
:100050000C94340011241FBECFE5D4E0DEBFCDBF29
:100060000E9436000C9443000C9400008FE58DBF75
:1000700084E08EBF8CE087BB8FEF88BB85E683BFB3
:0A0080008CEC8CBFFFCFF894FFCF8B
:00000001FF
