:020000040000FA
:020000000728CF
:04000A00003400348A
:02000E00831657
:1000100087120B30880070308F0001309100D000C3
:100020009F00EF3092000030810083128801870129
:1000300001309F0007309C0095019B010C30970018
:100040009D0012151014A501A601AD019E010130FD
:10005000A900AA00A801AC010B1D2C280B1112212C
:100060000318AD0AAA0B2C282908AA00A80B2C28D3
:100070001E090319013CA8009F143E2800308A0085
:100080002D080339463E03188A0A82004B286C2843
:10009000B228AD0146280830A900A50AFF30950016
:1000A0009B0030309704970400308A0025080339FC
:1000B0005C3E03188A0A8200602863286628692843
:1000C000803088002C28103088002C284030880090
:1000D0002C28203088002C280430A900A50A3030B4
:1000E0009704970400308A00250807397A3E0318E0
:1000F0008A0A8200822888288E2894289A28A02894
:10010000A628AC28803088003F3095009B002C2822
:10011000903088002F3095009B002C2810308800EC
:100120003F3095009B002C28503088002F309500E0
:100130009B002C28403088003F3095009B002C28E5
:10014000603088002F3095009B002C2820308800DC
:100150003F3095009B002C28A03088002F30950060
:100160009B002C280130A900D020031CB828A50A28
:1001700000308A0025080339C03E03188A0A82002D
:10018000C428C728CA28CD28A03088002C28903041
:1001900088002C28503088002C28603088002C28BB
:1001A000251CF22025180221AB002B0E30398D388A
:1001B0009D00AB0C2B0C3F399B00251C0221251800
:1001C000F220AB002B0E30398D389700AB0C2B0C86
:1001D0003F399500A60A26080739003A0314031D83
:1001E0000310080000308A0026080739FA3E031879
:1001F0008A0A8200FF34F934E634C7349F346F34FE
:100200003934003401308A00260807390A3E0318C1
:100210008A0A8200003439346F349F34C734E6349C
:10022000F934FF3401308A002C0803391A3E0318D0
:100230008A0A82001E2924292C2924290310051A40
:100240002329AC0A03140800051E2A29AC0A8E01D2
:100250008F010C1003100800051EAC030C18AC0134
:04026000031008007F
:02400E00E4309C
:00000001FF
