:100000000C942A000C9434000C9434000C943400AA
:100010000C9434000C9434000C9434000C94340090
:100020000C9434000C9434000C9434000C94340080
:100030000C9434000C9434000C9434000C94340070
:100040000C9434000C9434000C9434000C94340060
:100050000C94340011241FBECFE5D4E0DEBFCDBF29
:100060000E9436000C9478000C940000CF93DF932C
:100070008FE58DBF84E08EBF9FEF9ABB14BA97BB0C
:100080008DEF81BBE2E3F0E090831BBA8AE183BF8E
:1000900081E08CBF80818B7F80838081877F80839C
:1000A00080818F7E8083A0E3B0E023E330E04BE3E8
:1000B00050E080818E7F8083808181608083808119
:1000C0008E7F80838C9181FF0EC0808180628083CF
:1000D00000000000E90188818095EA018883808121
:1000E0008F7D8083E6CF00008C9181FFFCCFEDCF28
:0400F000F894FFCFB2
:00000001FF
