:10000000A2C00000BDC00000BBC00000B9C000001D
:10001000B7C00000B5C00000B3C00000B1C0000010
:10002000AFC00000ADC0000007C40000A9C00000C0
:10003000A7C00000A5C00000A3C00000A1C0000030
:100040009FC000009DC000009BC0000099C0000040
:1000500097C0000095C0000093C0000091C0000050
:100060008FC000008DC000008BC0000089C0000060
:1000700087C0000085C0000083C0000081C0000070
:100080007FC000007DC000007BC0000079C0000080
:1000900077C0000075C0000005010902A101090137
:1000A000A100050919012903150025019503750112
:1000B000810295017505810105010930093116FF9D
:1000C000FF26010036FFFF460100950275088106F4
:1000D000C0C01201100100000008EB034120010024
:1000E0000102000109022200010100C032090400DE
:1000F000000103010200092111010001223A000759
:100100000581030800050403090418034400650081
:1001100061006E002000430061006D006500720008
:100120006100000020034C00550046004100200003
:100130004D006F00750073006500200044006500ED
:100140006D006F00000011241FBECFEFD0E2DEBFB4
:10015000CDBF11E0A0E0B1E0E4E7F1E100E00BBFCA
:1001600002C007900D92A031B107D9F711E0A0E1CC
:10017000B1E001C01D92A032B107E1F78BD0F8C702
:100180003FCF8BB18F70806A8BB908958BB18F7020
:1001900080618BB9089580910E0190910F010097B5
:1001A00029F0019790930F0180930E0108950F930A
:1001B0001F93D801F90123B18CB1809590E0807331
:1001C0009070959587952095207E282B3CB127FF30
:1001D00002C08FEF03C024FF02C081E08283922F10
:1001E00026FF02C08FEF03C023FF02C081E081839E
:1001F00095FF03C080818160808332FD03C08081D0
:100200008260808383E090E08D939C9381E01F91D6
:100210000F910895089580E091E045C680E091E057
:1002200021D69091E20094609093E20080FD02C09C
:1002300090E901C090E68BB18F70982B9BB908951F
:1002400084B7877F84BF88E10FB6F89480936000FD
:10025000109260000FBE80E090E020E80FB6F894A6
:1002600020936100809361000FBE84B18F7184B9C7
:100270008DB18F7C8DB985B1806E85B98EB180636B
:100280008EB98AB1806F8AB98BB18F708BB96A9839
:10029000729AB7C2D5DF8BB18F7080618BB97894B9
:1002A00080E091E011D5FBD4FBCFDA019330B1F0BF
:1002B000943028F4913041F0923079F50AC09132AF
:1002C00011F1923251F524C0E2EDF0E022E130E08C
:1002D00028C0E4EEF0E022E230E023C0813049F0B3
:1002E000813018F08230C9F40AC0E6E0F1E0849170
:1002F00003C0EAE0F1E08491282F30E012C0E4E28C
:10030000F1E08491F9CFE6EFF0E029E030E009C0B8
:10031000E8E9F0E02AE330E004C0E0E0F0E020E0CB
:1003200030E0ED93FC93C90108959C0140911E01BA
:1003300050911F014617570718F4F90190E03DC08E
:100340006115710511F0AB01F8CF8091E8008E774F
:100350008093E80040E050E0F0CF809117018823BF
:1003600009F441C0853009F440C08091E80083FD64
:100370003EC08091E80082FD30C08091E80080FF9F
:100380001CC02091F2003091F30007C0819180934E
:10039000F100415050402F5F3F4F4115510519F07A
:1003A0002830310598F390E02830310509F491E0C8
:1003B0008091E8008E778093E8004115510569F639
:1003C000992359F60AC080911701882361F085307E
:1003D00061F08091E80083FD0AC08091E80082FF0F
:1003E000F2CF80E0089582E0089583E0089581E0EF
:1003F00008959C016115710529F48091E8008B77BF
:100400008093E800F90122C080911701882371F1DF
:10041000853071F18091E80083FF02C081E008958A
:100420008091E80082FFF0CF06C08091F1008193B7
:100430006150704031F08091F2009091F300892B6F
:10044000A1F78091E8008B778093E8006115710532
:10045000D9F606C080911701882341F0853041F01C
:100460008091E80080FFF6CF80E0089582E0089553
:1004700083E008959C0140911E0150911F01461791
:10048000570718F4F90190E03EC06115710511F0AD
:10049000AB01F8CF8091E8008E778093E80040E0D0
:1004A00050E0F0CF80911701882309F442C08530D5
:1004B00009F441C08091E80083FD3FC08091E800CD
:1004C00082FD31C08091E80080FF1DC02091F200C4
:1004D0003091F30008C084918093F100319641502F
:1004E00050402F5F3F4F4115510519F0283031051D
:1004F00090F390E02830310509F491E08091E80014
:100500008E778093E8004115510561F6992351F6E5
:100510000AC080911701882361F0853061F08091D5
:10052000E80083FD0AC08091E80082FFF2CF80E0FE
:10053000089582E0089583E0089581E00895BF92D0
:10054000CF92DF92EF92FF920F931F93CF93DF939F
:10055000182F092F7B016A01D9D0B82E8823B1F555
:10056000812F902F9C01E901C114D10439F0F601CB
:1005700080819181E81AF90AC80FD91F00E010E0C4
:1005800022C08091E80085FD16C08091E8008E773A
:100590008093E80084D3C114D10449F0F60180812E
:1005A0009181800F911F9183808385E010C0AED030
:1005B000882349F00CC089918093F1000894E108E8
:1005C000F1080F5F1F4FE114F104D9F68B2DDF9175
:1005D000CF911F910F91FF90EF90DF90CF90BF9040
:1005E0000895382F282F2EC0822F8F708093E90016
:1005F000231721F4762F942F50E006C07091EC0061
:100600009091ED005091F00091FF1BC08091EB00A4
:100610008E7F8093EB008091ED008D7F8093ED00C5
:100620008091EB0081608093EB007093EC009093DD
:10063000ED005093F0008091EE0087FD02C080E055
:1006400008952F5F273080F23F703093E90081E0FA
:1006500008950F931F93CF93DF93062FEC0110E0C3
:100660002AC09881992329F16B81E981FA812C8133
:10067000892F8F70873018F5223010F452E001C0B6
:1006800056E040E028E030E003C04F5F220F331F08
:100690002E173F07D0F36295660F660F607C991F97
:1006A0009927991F692B4295407F452B9ADF882314
:1006B00031F01F5F25961017A0F281E001C080E0A5
:1006C000DF91CF911F910F91089580911801882398
:1006D0009CF404C0809117018823B9F08091E80050
:1006E00082FFF8CF8091E8008B778093E80008952F
:1006F00080911701882349F08091E80080FFF8CFAE
:100700008091E8008E778093E80008954091E4009E
:100710005091E50024E68091EC0080FF24C0809198
:10072000E80080FD1EC080911701882311F482E04B
:100730000895853011F483E008958091EB0085FFE2
:1007400002C081E008958091E4009091E500841753
:10075000950709F3222311F484E008952150AC0198
:10076000DACF80E008958091E80082FFDCCFF9CFF6
:10077000EF92FF920F931F9352D059D008ED10E0E3
:10078000F80180818F778083808180688083808179
:100790008F7D8083E7EDF0E080818068808319BCE5
:1007A000109217011092130110921501109214016A
:1007B00080EEE82EF12CF70180818B7F8083F80199
:1007C00080818160808380E060E042E00ADFE1EECA
:1007D000F0E080818E7F8083E2EEF0E080818160B6
:1007E0008083808188608083F70180818E7F808311
:1007F000F8018081806180831F910F91FF90EF90BD
:100800000895E8EDF0E080818F7E8083E7EDF0E0F1
:1008100080818160808381E080931601A9CFE8ED1B
:10082000F0E080818C7F80831092E2000895109226
:10083000DA001092E10008951F920F920FB60F9206
:100840000BB60F9211242F933F934F935F936F93A7
:100850007F938F939F93AF93BF93EF93FF93809179
:10086000E10082FF0AC08091E20082FF06C0809111
:10087000E1008B7F8093E1008EDC8091DA0080FFC5
:100880001DC08091D80080FF19C08091DA008E7F52
:100890008093DA008091D90080FF0CC08CE089BD84
:1008A0008EE089BD09B400FEFDCF81E08093170181
:1008B00068DC04C019BC1092170168DC8091E1006B
:1008C00080FF18C08091E20080FF14C08091E20098
:1008D0008E7F8093E2008091E20080618093E2004D
:1008E0008091D80080628093D80019BC85E0809305
:1008F0001701D4D18091E10084FF2FC08091E200E4
:1009000084FF2BC08CE089BD8EE089BD09B400FE58
:10091000FDCF8091D8008F7D8093D8008091E10039
:100920008F7E8093E1008091E2008F7E8093E200D1
:100930008091E20081608093E2008091130188231E
:1009400011F084E007C08091E30087FD02C081E0E0
:1009500001C083E080931701A1D18091E10083FF62
:1009600022C08091E20083FF1EC08091E100877F5A
:100970008093E10082E0809317011092130180912F
:10098000E1008E7F8093E1008091E2008E7F809372
:10099000E2008091E20080618093E20080E060E00C
:1009A00042E01FDE7BD1FF91EF91BF91AF919F910C
:1009B0008F917F916F915F914F913F912F910F9008
:1009C0000BBE0F900FBE0F901F9018951F93DF93D3
:1009D000CF93CDB7DEB7AC970FB6F894DEBF0FBE9E
:1009E000CDBFE8E1F1E08091F100819321E0E032B8
:1009F000F207C9F710DC8091E80083FF37C18091CE
:100A0000180130911901353009F487C0363040F4AF
:100A10003130C9F1313070F0333009F027C133C0C3
:100A2000383009F4F5C0393009F404C1363009F022
:100A30001DC196C0803821F0823809F017C108C066
:100A40009091140180911501882399F0926011C052
:100A500080911C018F708093E9008091EB0090E001
:100A600025E0969587952A95E1F7982F9170109239
:100A7000E9008091E800877F8093E8009093F1007F
:100A80001092F100D0C0882319F0823009F0EEC036
:100A900090E08F719070009721F0029709F0E6C006
:100AA0000CC080911A01813009F0E0C0109215014C
:100AB000333069F5809315012AC080911A0188238B
:100AC00031F520911C012F7009F4D0C02093E9006A
:100AD0008091EB0080FF1BC0333021F48091EB004C
:100AE000806213C08091EB0080618093EB0081E015
:100AF00090E002C0880F991F2A95E2F78093EA00E0
:100B00001092EA008091EB0088608093EB001092D5
:100B1000E9008091E800877F89C0882309F0A6C09A
:100B200010911A011F778091E3008078812B8093C8
:100B3000E3008091E800877F8093E800C6DD809124
:100B4000E80080FFFCCF8091E30080688093E300A1
:100B5000112311F482E001C083E08093170186C065
:100B60008058823008F082C080911A0190911B0158
:100B700023E08C3D920709F033C083E08C838AE246
:100B80008B837FB7F894DE0115966EE040E050E06D
:100B900011E2E62FF0E010935700849140FF03C06C
:100BA00082958F706F5F8F70282F30E08A3018F039
:100BB000C901C79602C0C901C0968D939D934F5F2E
:100BC0005F4F4431510529F77FBF8091E800877F4F
:100BD0008093E800CE0103966AE270E0A6DB12C0C3
:100BE00060911C01AE014F5F5F4F5FDBBC0100975E
:100BF00009F43CC08091E800877F8093E8008981F8
:100C00009A8138DC8091E8008B778093E8002EC0D1
:100C1000803861F58091E800877F8093E8008091BB
:100C200013018093F1008091E8008E778093E800B3
:100C30004CDD1CC08823D1F490911A019230B0F49D
:100C40008091E800877F8093E800909313013DDD59
:100C500080911301882331F48091E30087FD02C065
:100C600081E001C084E080931701D8DA8091E80028
:100C700083FF0AC08091E800877F8093E80080911D
:100C8000EB0080628093EB00AC960FB6F894DEBF69
:100C90000FBECDBFCF91DF911F91089508951F938F
:100CA00080911701882371F01091E9008091EC0088
:100CB0001092E9008091E80083FF01C087DE1F7079
:100CC0001093E9001F9108954F925F926F927F9267
:100CD0008F929F92AF92BF92CF92DF92EF92FF924C
:100CE0000F931F93DF93CF9300D00F92CDB7DEB752
:100CF0007C016DB67EB680911701843009F099C0F1
:100D00002091E4003091E500F701828593858217F8
:100D1000930709F48EC081818F708093E9008091E0
:100D2000E80085FF86C05DB64EB6408550E08DB7C1
:100D30009EB7841B950B0FB6F8949EBF0FBE8DBF58
:100D40000DB71EB70F5F1F4F19821B821A82C02E6C
:100D5000912EC80160E070E050E003D2C701BE01EF
:100D60006F5F7F4F40E098018E010E5F1F4F1FDACB
:100D7000882EF70184859585892B19F4AA24BB2434
:100D80000BC020E0F70186859785892B09F021E0CB
:100D900081E02827A22EBB24F701068117810115C7
:100DA000110511F4DD2412C04A815B818C2D992D2F
:100DB000B801C1D1DD24009711F0DD24D394F701EF
:100DC0004085C8016C2D792D50E0C2D18A819B816C
:100DD000892B01F1882021F4DD2011F4AB28D1F01A
:100DE000F701848595859787868781818F708093A9
:100DF000E9008981882311F08093F1006A817B8169
:100E00008C2D992D40E050E09ADB8091E8008E77A0
:100E10008093E8008091E4009091E500F7019387CA
:100E20008287252D342DC9010FB6F8949EBF0FBEC1
:100E30008DBF0FB6F8947EBE0FBE6DBE0F900F90A3
:100E40000F90CF91DF911F910F91FF90EF90DF9066
:100E5000CF90BF90AF909F908F907F906F905F905A
:100E60004F900895CF93DF93DC010996FC0187E052
:100E7000EF0119928A95E9F781E019968C931997F9
:100E800084EF91E01D969C938E931C9783E01496BB
:100E90008C931497CD01019661E0DBDB811181E039
:100EA000DF91CF9108956F927F928F929F92AF9230
:100EB000BF92CF92DF92EF92FF920F931F93DF9337
:100EC000CF9300D00F92CDB7DEB76C016DB67EB672
:100ED0008091E80083FF18C1F601808190E02091A5
:100EE0001C0130911D012817390709F00DC18091AF
:100EF0001901833009F4B0C0843030F4813071F0CE
:100F0000823009F001C1E4C08A3009F4C9C08B30D5
:100F100009F4B3C0893009F0F7C05BC080911801B3
:100F2000813A09F0F1C09DB68EB61B821A8280917B
:100F30001A0110911B018983F601408550E08DB79D
:100F40009EB7841B950B0FB6F8949EBF0FBE8DBF46
:100F5000EDB6FEB60894E11CF11CBE2CAF2CC70107
:100F600060E070E050E0FDD01150C601BE016F5F3F
:100F70007F4F412F97018E010E5F1F4F18D9F60149
:100F8000268137812115310529F04085C901B70136
:100F900050E0DED01092E9008091E800877F8093D6
:100FA000E8008981882311F08093F1006A817B81B8
:100FB0008B2D9A2DBAD98091E8008B778093E80029
:100FC000292D382DC9010FB6F8949EBF0FBE8DBFD5
:100FD0009BC080911801813209F096C09DB68EB6F3
:100FE00000911E0110911F01A0901A01B0901B01E9
:100FF0008DB79EB7801B910B0FB6F8949EBF0FBEA6
:101000008DBFEDB6FEB60894E11CF11C8091E8009E
:10101000877F8093E800C701B801EBD98091E80091
:101020008E778093E80080E090E0AA2011F081E0C4
:1010300090E0BA94E80EF91E081B190BC6016A2D40
:101040004B2D9701E7D8892D982D9C010FB6F89468
:101050003EBF0FBE2DBF58C080911801813A09F0E4
:1010600053C08091E800877F8093E8008091E8007A
:1010700080FFFCCFF60181853FC08091180181324D
:1010800009F042C08091E800877F8093E8001DDB73
:1010900090E080911A01811191E0F601918734C0AE
:1010A00080911801813281F58091E800877F8093DB
:1010B000E8000BDB80911A0190911B01807036E0F3
:1010C000969587953A95E1F7F601958784871CC038
:1010D00080911801813AC1F48091E800877F809364
:1010E000E8008091E80080FFFCCFF60184859585BB
:1010F00096958795969587958093F1008091E80065
:101100008E778093E800E1DA0FB6F8947EBE0FBECA
:101110006DBE0F900F900F90CF91DF911F910F91A7
:10112000FF90EF90DF90CF90BF90AF909F908F9007
:101130007F906F900895FB01DC0104C08D910190B8
:10114000801921F441505040C8F7881B990B08952D
:10115000FB01DC0102C001900D9241505040D8F7D4
:101160000895DC0101C06D9341505040E0F70895AF
:04117000F894FFCF21
:1011740000810800000110010300000000000000CD
:00000001FF
