:020000040000FA
:06000000DFEF0DF012001D
:020006000000F8
:0600080014EF01F01200EC
:02000E00400EA2
:10001000D36E600E9B6E0001320E786F00017C6B18
:1000200000017D6B2AEC0CF09390F286F28EF28C3C
:100030008A903DEC0CF01FEC0DF0AEEC0CF0638AF6
:10004000608A03000001010E836F0001010E826FC0
:10005000000182051CE1110EE66E47EC05F0E55249
:100060000E0EE66E0BEC06F0E552150EE66ECFECCA
:1000700006F0E552150EE66E93EC07F0E552E66ADF
:1000800057EC08F0E5520001010E816FE1D7AEECAC
:100090000CF0800ECF6ECD8CCD98CD86CD84CD82E8
:1000A000CD809D900001810528E10D0EC16E0001FB
:1000B000010E836F0001010E826F7384638A608A70
:1000C0008A809280C29AC298C296C294BF0EC06EB5
:1000D000C280000182050AE19E9C9D8CC2820300C1
:1000E00072C076F073C077F0C8D9F3D70001020E62
:1000F000816FAEEC0CF0C290D5D7020E0001815D8D
:100100005FE10001010E836F0001010E826F6884C0
:10011000638A608A9282C29AC298C296C284BF0ED3
:10012000C06EC2800001040E616F0001010E7E6F7F
:100130000001020E806F000182053AE10001766B3A
:10014000776B0001606B000161510001605D0FE29F
:100150009E9C9D8CC2820300000174510001762791
:1001600000017551000177230001602BECD70001DD
:100170006151146E156A14C00DF015C00EF076C0F2
:1001800008F077C009F0C9EC0DF008C076F009C09E
:1001900077F000017E0504E100017E6B0001802BF9
:1001A000030E0001805D03E10001806B91D8C3D78D
:1001B0000001030E816FAEEC0CF0C2908A909DD7C7
:1001C000030E0001815D2EE10001010E836F00012D
:1001D000010E826F7984638A608A9D8000017A6B48
:1001E00000017B6B0001796B0001820514E1EDDBFE
:1001F000030080BE0FD080BE0DD050EC0DF080BC4F
:1002000003D000017A2B04D080BE02D000017B2BEA
:10021000DCDBF1D7E9D70001010E816FAEEC0CF009
:100220009D90CED73FD71200DACFE4FFE2CFDAFFBE
:10023000E6529EA017D09E900001792B79513B0881
:1002400002E2796B7A2B7A513B0802E27A6B7B2BC4
:100250007B51170801E27B6B800ECF6E7D1D7D6F99
:10026000010E7E6F9EAC20D09E9C3C0EC2140001FD
:10027000626F62510BE1C450186E18C019F0186A11
:10028000C3501824726F000E1920736F040E625D44
:100290000BE1C450186E18C019F0186AC350182426
:1002A000746F000E1920756FF2A008D0F29081CF04
:1002B00088F0000188BF826B88BD836BA1A204D047
:1002C000A1920001010E7F6FE552E5CFDAFF110028
:1002D00000017D512DE176C014F077C015F0880E35
:1002E000145E010E155A020E086E096A14C00DF054
:1002F00015C00EF0ABEC0DF006C063F007C064F063
:1003000063C0E6FF64C0E6FF18D9E552E55207C0B6
:1003100065F008C066F009C067F065C0E6FF66C01A
:10032000E6FF67C0E6FF31D8E552E552E5522CD032
:1003300076C014F077C015F02F0E145E010E155A1A
:10034000240E086E096A14C00DF015C00EF0ABEC57
:100350000DF006C063F007C064F063C0E6FF64C040
:10036000E6FFEBD8E552E55207C065F008C066F03D
:1003700009C067F065C0E6FF66C0E6FF67C0E6FF3C
:100380003BD8E552E552E5521200D9CFE6FFE1CF66
:10039000D9FFFC0EDBCF6FF0FD0EDBCF70F0FE0E51
:1003A000DBCF71F0E66857EC08F0E55200017051C0
:1003B0000F0BE66E1BEC09F0E55200016F51F00BDC
:1003C000E842E842E842E842E66EDFEC09F0E55236
:1003D00000016F510F0BE66EA3EC0AF0E552608648
:1003E000668C719C000170510F0BE66EA1DAE5522C
:1003F000E552E7CFD9FF1200D9CFE6FFE1CFD9FF11
:10040000FC0EDBCF6FF0FD0EDBCF70F0FE0EDBCF0E
:1004100071F0000171510F0B000905E1E66857EC1E
:1004200008F0E55206D071510F0BE66E57EC08F05C
:10043000E55200017051F00BE842E842E842E84220
:10044000E66E1BEC09F0E552000170510F0BE66EF1
:10045000DFEC09F0E55200016F51F00BE842E84291
:10046000E842E842E66EA3EC0AF0E5526086718C41
:10047000669CE552E7CFD9FF120000017851146E57
:10048000156A72C008F073C009F014C00DF015C0F1
:100490000EF0ABEC0DF006C063F007C064F063C073
:1004A000E6FF64C0E6FF49D8E552E55207C065F0B3
:1004B00008C066F009C067F065C0E6FF66C0E6FFE9
:1004C00067C0E6FF16D8E552E552E552320E146ECB
:1004D000156A72C008F073C009F014C00DF015C0A1
:1004E0000EF0C9EC0DF00850E66E67EC0BF0E5522B
:1004F0001200D9CFE6FFE1CFD9FFFC0EDBCF6FF0C2
:10050000FD0EDBCF70F0FE0EDBCF71F000017151FC
:100510000F0BE66E93EC07F0E55200017051F00B03
:10052000E842E842E842E842E66E57EC08F0E5525D
:100530007282E552E7CFD9FF1200D9CFE6FFE1CFB3
:10054000D9FF030EE126DF6A010EDB6A020EDB6AC9
:100550000001606B100E605D60E2010E176ED9CF76
:10056000E9FFDACFEAFF17501F0BEECF14F0EECF02
:1005700015F0EECF16F006E0D89014361536163684
:10058000E806FAE114C0DFFF010E15C0DBFF020E22
:1005900016C0DBFFFD0EDBCF14F0FE0EDBCF15F037
:1005A000166AD8901650000A06E6000E145C800EFB
:1005B0001558000E165808E3D9CFE9FFDACFEAFF45
:1005C000EE2A000EEE22EE220F0E0001605D13E215
:1005D000DECFE6FFDECFE6FFDDCFE6FFDD5236D829
:1005E000E552E552E55207C0DFFF010E08C0DBFF10
:1005F000020E09C0DBFFFD0EDBCF14F0FE0EDBCFD9
:1006000015F0D89014361536FD0E14C0DBFFFE0E23
:1006100015C0DBFF0001602B9DD7DFCF14F0010E6A
:10062000DBCF15F0020EDBCF16F014C007F015C0BB
:1006300008F016C009F0030EE15C03E200D0E16AA5
:10064000E552E16EE552E7CFD9FF1200D9CFE6FFC0
:10065000E1CFD9FF030EE126FC0EDBCF6FF0FD0EDC
:10066000DBCF70F0FE0EDBCF71F000016F510F0B8E
:10067000030F070811E2030E146E6F0EE96E000EF1
:10068000EA6EEF500F0B14240F0BF36EF46EF00EA6
:10069000EF14F310EF6EF4506F51F00BE842E842A4
:1006A000E842E842030F070819E2030E146E6F0ECA
:1006B000E96E000EEA6EEF50F00BE842E842E842C5
:1006C000E84214240F0BF36EF46EF346F346F34640
:1006D000F3460F0EEF14F310EF6EF45070510F0B42
:1006E000030F070812E2030E146E6F0EE96E000E80
:1006F000EA6EEE52EF500F0B14240F0BF36EF46EF4
:10070000F00EEF14F310EF6EF4507051F00BE8425E
:10071000E842E842E842030F07081AE2030E146EAB
:100720006F0EE96E000EEA6EEE52EF50F00BE842EB
:10073000E842E842E84214240F0BF36EF46EF346ED
:10074000F346F346F3460F0EEF14F310EF6EF4503A
:1007500071510F0B030F070813E2030E146E6F0E97
:10076000E96E000EEA6EEE52EE52EF500F0B1424BB
:100770000F0BF36EF46EF00EEF14F310EF6EF450F7
:100780007151F00BE842E842E842E842030F0708E3
:100790001BE2030E146E6F0EE96E000EEA6EEE524F
:1007A000EE52EF50F00BE842E842E842E8421424EF
:1007B0000F0BF36EF46EF346F346F346F3460F0E5B
:1007C000EF14F310EF6EF450FC0E6FC0DBFFFD0E64
:1007D00070C0DBFFFE0E71C0DBFFFC0EDBCF14F040
:1007E000FD0EDBCF15F0FE0EDBCF16F014C007F0C8
:1007F00015C008F016C009F0030EE15C03E200D05A
:10080000E16AE552E16EE552E7CFD9FF1200D9CF98
:10081000E6FFE1CFD9FFFD0EDBCF6AF0FE0EDBCFA6
:100820006BF000016B510F0BE66E1BEC09F0E5520B
:1008300000016A51F00BE842E842E842E842E66E05
:10084000DFEC09F0E55200016A510F0BE66EA3ECF4
:100850000AF0E552E552E7CFD9FF1200D9CFE6FF03
:10086000E1CFD9FFFC0EDBCF6FF0FD0EDBCF70F0D8
:10087000FE0EDBCF71F0D950FC0FE96EFF0EDA20CF
:10088000EA6E000EEE5C000EEE58010EEF5804E228
:10089000E668FDD8E55206D0000171510F0BE66EF7
:1008A000F6D8E552D950FC0FE96EFF0EDA20EA6E59
:1008B000000EEE5C100EEE58000EEF5804E2E668F3
:1008C000AAD9E5520AD000017051F00BE842E84283
:1008D000E842E842E66E9FD9E552D950FC0FE96E36
:1008E000FF0EDA20EA6E000EEE5C010EEE58000EEE
:1008F000EF5804E2E66853DAE55206D00001705181
:100900000F0BE66E4CDAE55200016F51F00BE84236
:10091000E842E842E842E66E06DBE55200016F512C
:100920000F0BE66EC4DBE552E552E7CFD9FF1200AC
:10093000D9CFE6FFE1CFD9FF638E050EF36EFE0E31
:10094000DBCFF4FFF350F45C04E3638C7A8C7A8E93
:1009500017D0020EF36EFE0EDBCFF4FFF350F45C03
:1009600004E3639C7A8C7A8E0BD0010EF36EFE0E3C
:10097000DBCFF4FFF350F45C03E3639C7A9C7A8E44
:10098000E552E7CFD9FF1200D9CFE6FFE1CFD9FF7B
:100990006380030EF36EFE0EDBCFF4FFF350F45CC6
:1009A00003E3778060806082FE0EDB50020803E183
:1009B000779060806082FE0EDB0403E177906090A8
:1009C0006082E552E7CFD9FF120000017951E66E4F
:1009D000E66AB3DDE552E55207C06FF008C070F07B
:1009E00009C071F000016F51F00BE842E842E842A3
:1009F000E842E66E1BEC09F0E55200016F510F0B67
:100A0000E66EDFEC09F0E55200016F510F0BE66E68
:100A1000F8EC0BF0E55200017A51E66EE66A8DDDE6
:100A2000E552E55207C06FF008C070F009C071F0E0
:100A300000016F51F00BE842E842E842E842E66EFE
:100A4000AED9E55200016F510F0BE66E6CDAE5523C
:100A500000017B51E66EE66A70DDE552E55207C0A3
:100A60006FF008C070F009C071F000016F51F00B19
:100A7000E842E842E842E842E66E09D8E552000161
:100A80006F510F0BE66EC7D8E552738C1200D9CFA9
:100A9000E6FFE1CFD9FFFE0EDB50FF0A01E1B0D047
:100AA000E60A01E1A5D00C0A01E19AD0040A01E1AD
:100AB0008FD01E0A01E184D0010A01E179D0020A37
:100AC0006FE0060A65E0030A5BE0010A51E00F0AE5
:100AD00047E0010A3DE0030A33E0010A29E0070A82
:100AE0001FE0010A15E0030A0BE0010A01E08FD0C4
:100AF000628662886888738868867986799887D0E4
:100B000062966288688873986896799679987FD09B
:100B1000628662886898738868867996798877D0C3
:100B200062866288688873886896799679886FD0BB
:100B3000629662886888739868967986798867D0A3
:100B400062866298688873886896798679885FD0AB
:100B5000628662986888738868867986798857D0B3
:100B600062866288688873986896799679984FD07B
:100B7000628662886888738868867986798847D0B3
:100B800062866288688873886896798679883FD09B
:100B9000628662886888739868867986798837D093
:100BA00062866298689873886886798679982FD06B
:100BB000628662986898738868867986798827D073
:100BC00062866298689873986886798679881FD05B
:100BD000629662886888739868867986798817D063
:100BE00062966298689873886886798679980FD03B
:100BF000628662886898739868867986798807D053
:100C00006296629868987398689679967998E55292
:100C1000E7CFD9FF1200D9CFE6FFE1CFD9FFFE0E13
:100C2000DB50FF0A01E1B0D0E60A01E1A5D00C0AD1
:100C300001E19AD0040A01E18FD01E0A01E184D0BB
:100C4000010A01E179D0020A6FE0060A65E0030AB1
:100C50005BE0010A51E00F0A47E0010A3DE0030AA8
:100C600033E0010A29E0070A1FE0010A15E0030A40
:100C70000BE0010A01E08FD0628A628C688C738A73
:100C8000688A798A799C87D0629A628C688C739A18
:100C9000689A799A799C7FD0628A628C689C738A00
:100CA000688A799A798C77D0628A628C688C738A28
:100CB000689A799A798C6FD0629A628C688C739AF0
:100CC000689A798A798C67D0628A629C688C738A08
:100CD000689A798A798C5FD0628A629C688C738A00
:100CE000688A798A798C57D0628A628C688C739A08
:100CF000689A799A799C4FD0628A628C688C738AE0
:100D0000688A798A798C47D0628A628C688C738A07
:100D1000689A798A798C3FD0628A628C688C739ADF
:100D2000688A798A798C37D0628A629C689C738AD7
:100D3000688A798A799C2FD0628A629C689C738ABF
:100D4000688A798A798C27D0628A629C689C739AB7
:100D5000688A798A798C1FD0629A628C688C739ABF
:100D6000688A798A798C17D0629A629C689C738AA7
:100D7000688A798A799C0FD0628A628C689C739A9F
:100D8000688A798A798C07D0629A629C689C739A87
:100D9000689A799A799CE552E7CFD9FF1200D9CFAA
:100DA000E6FFE1CFD9FFFE0EDB50FF0A01E1B0D034
:100DB000E60A01E1A5D00C0A01E19AD0040A01E19A
:100DC0008FD01E0A01E184D0010A01E179D0020A24
:100DD0006FE0060A65E0030A5BE0010A51E00F0AD2
:100DE00047E0010A3DE0030A33E0010A29E0070A6F
:100DF0001FE0010A15E0030A0BE0010A01E08FD0B1
:100E0000628E61866786738E688E798E789687D0BB
:100E1000629E61866786739E689E799E78967FD073
:100E2000628E61866796738E688E799E788677D09B
:100E3000628E61866786738E689E799E78866FD093
:100E4000629E61866786739E689E798E788667D07B
:100E5000628E61966786738E689E798E78865FD083
:100E6000628E61966786738E688E798E788657D08B
:100E7000628E61866786739E689E799E78964FD053
:100E8000628E61866786738E688E798E788647D08B
:100E9000628E61866786738E689E798E78863FD073
:100EA000628E61866786739E688E798E788637D06B
:100EB000628E61966796738E688E798E78962FD043
:100EC000628E61966796738E688E798E788627D04B
:100ED000628E61966796739E688E798E78861FD033
:100EE000629E61866786739E688E798E788617D03B
:100EF000629E61966796738E688E798E78960FD013
:100F0000628E61866796739E688E798E788607D02A
:100F1000629E61966796739E689E799E7896E5526A
:100F2000E7CFD9FF1200D9CFE6FFE1CFD9FFFE0E00
:100F3000DB50FF0A01E1B0D0E60A01E1A5D00C0ABE
:100F400001E19AD0040A01E18FD01E0A01E184D0A8
:100F5000010A01E179D0020A6FE0060A65E0030A9E
:100F60005BE0010A51E00F0A47E0010A3DE0030A95
:100F700033E0010A29E0070A1FE0010A15E0030A2D
:100F80000BE0010A01E08FD0618461826782728484
:100F900067847884789287D0619461826782729442
:100FA0006794789478927FD061846182679272842A
:100FB00067847894788277D0618461826782728452
:100FC0006794789478826FD061946182678272941A
:100FD00067947884788267D0618461926782728432
:100FE0006794788478825FD061846192678272842A
:100FF00067847884788257D0618461826782729432
:101000006794789478924FD0618461826782728409
:1010100067847884788247D0618461826782728431
:101020006794788478823FD0618461826782729409
:1010300067847884788237D0618461926792728401
:101040006784788478922FD06184619267927284E9
:1010500067847884788227D06184619267927294E1
:101060006784788478821FD06194618267827294E9
:1010700067847884788217D06194619267927284D1
:101080006784788478920FD06184618267927294C9
:1010900067847884788207D06194619267927294B1
:1010A000679478947892E552E7CFD9FF1200D9CFB0
:1010B000E6FFE1CFD9FFFE0EDB50FF0A01E1B0D021
:1010C000E60A01E1A5D00C0A01E19AD0040A01E187
:1010D0008FD01E0A01E184D0010A01E179D0020A11
:1010E0006FE0060A65E0030A5BE0010A51E00F0ABF
:1010F00047E0010A3DE0030A33E0010A29E0070A5C
:101100001FE0010A15E0030A0BE0010A01E08FD09D
:101110006180608E668E728067807880779E87D0CF
:101120006190608E668E729067907890779E7FD087
:101130006180608E669E728067807890778E77D0AF
:101140006180608E668E728067907890778E6FD0A7
:101150006190608E668E729067907880778E67D08F
:101160006180609E668E728067907880778E5FD097
:101170006180609E668E728067807880778E57D09F
:101180006180608E668E729067907890779E4FD067
:101190006180608E668E728067807880778E47D09F
:1011A0006180608E668E728067907880778E3FD087
:1011B0006180608E668E729067807880778E37D07F
:1011C0006180609E669E728067807880779E2FD057
:1011D0006180609E669E728067807880778E27D05F
:1011E0006180609E669E729067807880778E1FD047
:1011F0006190608E668E729067807880778E17D04F
:101200006190609E669E728067807880779E0FD026
:101210006180608E669E729067807880778E07D03E
:101220006190609E669E729067907890779EE5527E
:10123000E7CFD9FF1200D9CFE6FFE1CFD9FFFE0EED
:10124000DB50FF0A01E1B0D0E60A01E1A5D00C0AAB
:1012500001E19AD0040A01E18FD01E0A01E184D095
:10126000010A01E179D0020A6FE0060A65E0030A8B
:101270005BE0010A51E00F0A47E0010A3DE0030A82
:1012800033E0010A29E0070A1FE0010A15E0030A1A
:101290000BE0010A01E08FD0748274807A8063824F
:1012A0007A826982699087D0749274807A8063921E
:1012B0007A92699269907FD0748274807A90638206
:1012C0007A826992698077D0748274807A8063822E
:1012D0007A92699269806FD0749274807A806392F6
:1012E0007A926982698067D0748274907A8063820E
:1012F0007A92698269805FD0748274907A80638206
:101300007A826982698057D0748274807A8063920D
:101310007A92699269904FD0748274807A806382E5
:101320007A826982698047D0748274807A8063820D
:101330007A92698269803FD0748274807A806392E5
:101340007A826982698037D0748274907A906382DD
:101350007A82698269902FD0748274907A906382C5
:101360007A826982698027D0748274907A906392BD
:101370007A82698269801FD0749274807A806392C5
:101380007A826982698017D0749274907A906382AD
:101390007A82698269900FD0748274807A906392A5
:1013A0007A826982698007D0749274907A9063928D
:1013B0007A9269926990E552E7CFD9FF1200D9CFAE
:1013C000E6FFE1CFD9FFFE0EDB50FF0A01E1B0D00E
:1013D000E60A01E1A5D00C0A01E19AD0040A01E174
:1013E0008FD01E0A01E184D0010A01E179D0020AFE
:1013F0006FE0060A65E0030A5BE0010A51E00F0AAC
:1014000047E0010A3DE0030A33E0010A29E0070A48
:101410001FE0010A15E0030A0BE0010A01E08FD08A
:10142000718471867786608477846684669687D0B7
:1014300071947186778660947794669466967FD06F
:10144000718471867796608477846694668677D097
:1014500071847186778660847794669466866FD08F
:10146000719471867786609477946684668667D077
:1014700071847196778660847794668466865FD07F
:10148000718471967786608477846684668657D087
:1014900071847186778660947794669466964FD04F
:1014A000718471867786608477846684668647D087
:1014B00071847186778660847794668466863FD06F
:1014C000718471867786609477846684668637D067
:1014D00071847196779660847784668466962FD03F
:1014E000718471967796608477846684668627D047
:1014F00071847196779660947784668466861FD02F
:10150000719471867786609477846684668617D036
:1015100071947196779660847784668466960FD00E
:10152000718471867796609477846684668607D026
:101530007194719677966094779466946696E55266
:10154000E7CFD9FF1200D9CFE6FFE1CFD9FFFE0EDA
:10155000DB50FF0A01E1B0D0E60A01E1A5D00C0A98
:1015600001E19AD0040A01E18FD01E0A01E184D082
:10157000010A01E179D0020A6FE0060A65E0030A78
:101580005BE0010A51E00F0A47E0010A3DE0030A6F
:1015900033E0010A29E0070A1FE0010A15E0030A07
:1015A0000BE0010A01E08FD07188718A778A608828
:1015B00077886688669A87D07198718A778A6098EA
:1015C00077986698669A7FD07188718A779A6088D2
:1015D00077886698668A77D07188718A778A6088FA
:1015E00077986698668A6FD07198718A778A6098C2
:1015F00077986688668A67D07188719A778A6088DA
:1016000077986688668A5FD07188719A778A6088D1
:1016100077886688668A57D07188718A778A6098D9
:1016200077986698669A4FD07188718A778A6088B1
:1016300077886688668A47D07188718A778A6088D9
:1016400077986688668A3FD07188718A778A6098B1
:1016500077886688668A37D07188719A779A6088A9
:1016600077886688669A2FD07188719A779A608891
:1016700077886688668A27D07188719A779A609889
:1016800077886688668A1FD07198718A778A609891
:1016900077886688668A17D07198719A779A608879
:1016A00077886688669A0FD07188718A779A609871
:1016B00077886688668A07D07198719A779A609859
:1016C00077986698669AE552E7CFD9FF1200D9CF8E
:1016D000E6FFE1CFD9FFFE0EDB500001D8807C553C
:1016E0003CE2FE0EDB50130A37E0010A34E0030A45
:1016F00031E0010A2EE01F0A2BE0010A28E0030A6C
:1017000025E0010A22E0070A1FE0010A1CE0030AA3
:1017100019E0010A16E00F0A13E0010A10E0030ABB
:101720000DE0010A0AE0070A07E0010A04E0030AE3
:1017300001E013D0799268927392739068907990D7
:101740006290619E789E679E729E729C679C789C58
:10175000619C619A789A679A729AFE0EDB50D880E3
:101760007C553FE3FE0EDB50010A3AE0030A37E006
:10177000010A34E0070A31E0010A2EE0030A2BE0F7
:10178000010A28E00F0A25E0010A22E0030A1FE00F
:10179000010A1CE0070A19E0010A16E0030A13E037
:1017A000010A10E01F0A0DE0010A0AE0030A07E03F
:1017B000010A04E0070A01E014D0728A678A788A75
:1017C000618A618C788C678C728C728E678E788E51
:1017D000618E62807980688073807382688279828A
:1017E0006282FE0EDBCF7CF0E552E7CFD9FF12001C
:1017F000D9CFE6FFE1CFD9FF699669987A987A96B2
:1018000063947A946994749474967498FE0EDB5081
:101810001CE0010A19E0030A16E0010A13E0070AB6
:1018200010E0010A0DE0030A0AE0010A07E00F0ACE
:1018300004E0010A01E00AD069887A887A86638424
:101840007A8469847484748674886986E552E7CFE3
:10185000D9FF12000F01589F589D589758855893EB
:1018600058915A695B695C695D695E695F6959870E
:10187000598559835981598F1200638A7A8A698AF6
:10188000748A638E638C7A8C7A8E638077806082B0
:101890006080608A718C668C778C608C67887288B7
:1018A000728A678A788A618A618C788C678C728C7C
:1018B000728E678E788E618E628079806880738088
:1018C0007382688279826282738468847984738681
:1018D000698669887A887A8663847A84698474845C
:1018E0007486748862866288688873886886798658
:1018F0007988628A628C688C738A688A798A798C22
:10190000738C628E61866786738E688E798E788618
:10191000618461826782728467847884788272824B
:101920006180608E668E728067807880778E748228
:1019300074807A8063827A82698269807184718618
:101940007786608477846684668660867188718A0B
:10195000778A608877886688668A1200639A609AB8
:101960007A9A699A749A639E639C7A9C7A9E639031
:10197000779060926090719C669C779C609C679861
:101980007298729A679A789A619A619C789C679C1F
:10199000729C729E679E789E619E6290799068901C
:1019A0007390739268927992629273946894799426
:1019B0007396699669987A987A9663947A946994FA
:1019C00074947496749862966298689873986896FE
:1019D00079967998629A629C689C739A689A799AC7
:1019E000799C739C629E61966796739E689E799EB1
:1019F00078966194619267927294679478947892E1
:101A000072926190609E669E729067907890779EC9
:101A1000749274907A9063927A92699269907194B8
:101A200071967796609477946694669660967198AE
:101A3000719A779A609877986698669A1200D9CFCB
:101A4000E6FFE1CFD9FF040EE126020EDB6A030EAA
:101A5000DB6A020EDBCF14F0030EDBCF15F0980E1D
:101A6000145C3A0E155806E2020EDB2A030E01E35F
:101A7000DB2AEFD7040EE15C02E2E16AE552E16E97
:101A8000E552E7CFD9FF1200E80EB36EB268B1821B
:101A9000B184B180A192A0820300A092B190120003
:101AA000E00EB36EB268B182B184B180A192A0821F
:081AB0000300A092B1901200A6
:081AB800060EF66E000EF76E3B
:101AC000000EF86E00010900F5508F6F0900F55007
:101AD000906F03E18F6701D03DD00900F5508A6F08
:101AE0000900F5508B6F0900F5508C6F0900090053
:101AF000F550E96E0900F550EA6E09000900090089
:101B0000F5508D6F0900F5508E6F09000900F6CF72
:101B100091F0F7CF92F0F8CF93F08AC0F6FF8BC028
:101B2000F7FF8CC0F8FF00018D5302E18E5307E0F0
:101B30000900F550EE6E8D07F8E28E07F9D791C0D7
:101B4000F6FF92C0F7FF93C0F8FF00018F07000E69
:061B5000905BBFD71200FC
:0A1B560008C012F008500D02F4CF91
:101B600007F0F3CF06F009500E02F4CF09F0F3CFDF
:101B700008F00D02F3500726F4500822E86A092203
:101B800012500E02F3500726F4500822E86A092288
:021B9000000C47
:0E1B9200056A046A100EE76ED8900836093610
:101BA000043605360D50045C0E50055805E30D5003
:0E1BB000045E0E50055A082AE72EF0D71200E8
:021BBE0012EE25
:101BC00000F022EE00F0F86A019C5CEC0DF0F4EC01
:0A1BD0000DF007EC00F0FBD7120047
:061BDA0000EE00F00F0E0A
:081BE000EE6AEA62FDD7120073
:021BE8001200E9
:020000040030CA
:0100010008F6
:0100020019E4
:010003001EDE
:0100060001F8
:00000001FF
